{"contracts/RealEstateFractionalize.sol":{"RealEstateFractionalize":{"abi":[{"inputs":[],"stateMutability":"nonpayable","type":"constructor"},{"anonymous":false,"inputs":[{"indexed":true,"internalType":"address","name":"owner","type":"address"},{"indexed":true,"internalType":"address","name":"spender","type":"address"},{"indexed":false,"internalType":"uint256","name":"value","type":"uint256"}],"name":"Approval","type":"event"},{"anonymous":false,"inputs":[{"indexed":false,"internalType":"uint256","name":"propertyId","type":"uint256"},{"indexed":false,"internalType":"address","name":"buyer","type":"address"},{"indexed":false,"internalType":"uint256","name":"fractionAmount","type":"uint256"}],"name":"FractionBought","type":"event"},{"anonymous":false,"inputs":[{"indexed":false,"internalType":"uint256","name":"propertyId","type":"uint256"},{"indexed":false,"internalType":"address","name":"seller","type":"address"},{"indexed":false,"internalType":"uint256","name":"fractionAmount","type":"uint256"},{"indexed":false,"internalType":"address","name":"buyer","type":"address"}],"name":"FractionSold","type":"event"},{"anonymous":false,"inputs":[{"indexed":false,"internalType":"uint256","name":"id","type":"uint256"},{"indexed":false,"internalType":"address","name":"owner","type":"address"},{"indexed":false,"internalType":"uint256","name":"value","type":"uint256"},{"indexed":false,"internalType":"uint256","name":"totalFractions","type":"uint256"},{"indexed":false,"internalType":"string","name":"propertyURI","type":"string"}],"name":"PropertyRegistered","type":"event"},{"anonymous":false,"inputs":[{"indexed":false,"internalType":"uint256","name":"id","type":"uint256"},{"indexed":false,"internalType":"address","name":"renter","type":"address"},{"indexed":false,"internalType":"uint256","name":"rentPrice","type":"uint256"},{"indexed":false,"internalType":"uint256","name":"rentedDays","type":"uint256"}],"name":"PropertyRented","type":"event"},{"anonymous":false,"inputs":[{"indexed":false,"internalType":"address","name":"","type":"address"},{"indexed":false,"internalType":"uint256","name":"","type":"uint256"}],"name":"Received","type":"event"},{"anonymous":false,"inputs":[{"indexed":true,"internalType":"address","name":"from","type":"address"},{"indexed":true,"internalType":"address","name":"to","type":"address"},{"indexed":false,"internalType":"uint256","name":"value","type":"uint256"}],"name":"Transfer","type":"event"},{"inputs":[{"internalType":"address","name":"owner","type":"address"},{"internalType":"address","name":"spender","type":"address"}],"name":"allowance","outputs":[{"internalType":"uint256","name":"","type":"uint256"}],"stateMutability":"view","type":"function"},{"inputs":[{"internalType":"address","name":"spender","type":"address"},{"internalType":"uint256","name":"amount","type":"uint256"}],"name":"approve","outputs":[{"internalType":"bool","name":"","type":"bool"}],"stateMutability":"nonpayable","type":"function"},{"inputs":[{"internalType":"address","name":"account","type":"address"}],"name":"balanceOf","outputs":[{"internalType":"uint256","name":"","type":"uint256"}],"stateMutability":"view","type":"function"},{"inputs":[{"internalType":"uint256","name":"propertyId","type":"uint256"},{"internalType":"uint256","name":"fractionAmount","type":"uint256"}],"name":"buyFraction","outputs":[],"stateMutability":"payable","type":"function"},{"inputs":[],"name":"decimals","outputs":[{"internalType":"uint8","name":"","type":"uint8"}],"stateMutability":"view","type":"function"},{"inputs":[{"internalType":"address","name":"spender","type":"address"},{"internalType":"uint256","name":"subtractedValue","type":"uint256"}],"name":"decreaseAllowance","outputs":[{"internalType":"bool","name":"","type":"bool"}],"stateMutability":"nonpayable","type":"function"},{"inputs":[],"name":"deposit","outputs":[],"stateMutability":"payable","type":"function"},{"inputs":[],"name":"downer","outputs":[{"internalType":"address","name":"","type":"address"}],"stateMutability":"view","type":"function"},{"inputs":[],"name":"fetchETHBalance","outputs":[{"internalType":"uint256","name":"","type":"uint256"}],"stateMutability":"view","type":"function"},{"inputs":[],"name":"fetchForRent","outputs":[{"components":[{"internalType":"uint256","name":"id","type":"uint256"},{"internalType":"address payable","name":"owner","type":"address"},{"internalType":"uint256","name":"value","type":"uint256"},{"internalType":"uint256","name":"totalFractions","type":"uint256"},{"internalType":"uint256","name":"fractionsSold","type":"uint256"},{"internalType":"bool","name":"forSale","type":"bool"},{"internalType":"uint256","name":"salePrice","type":"uint256"},{"internalType":"bool","name":"forRent","type":"bool"},{"internalType":"uint256","name":"rentPrice","type":"uint256"},{"internalType":"uint256","name":"rentedUntil","type":"uint256"},{"internalType":"uint256","name":"rentedDays","type":"uint256"},{"internalType":"string","name":"propertyURI","type":"string"}],"internalType":"struct RealEstateFractionalize.Property[]","name":"","type":"tuple[]"}],"stateMutability":"view","type":"function"},{"inputs":[],"name":"fetchForSale","outputs":[{"components":[{"internalType":"uint256","name":"id","type":"uint256"},{"internalType":"address payable","name":"owner","type":"address"},{"internalType":"uint256","name":"value","type":"uint256"},{"internalType":"uint256","name":"totalFractions","type":"uint256"},{"internalType":"uint256","name":"fractionsSold","type":"uint256"},{"internalType":"bool","name":"forSale","type":"bool"},{"internalType":"uint256","name":"salePrice","type":"uint256"},{"internalType":"bool","name":"forRent","type":"bool"},{"internalType":"uint256","name":"rentPrice","type":"uint256"},{"internalType":"uint256","name":"rentedUntil","type":"uint256"},{"internalType":"uint256","name":"rentedDays","type":"uint256"},{"internalType":"string","name":"propertyURI","type":"string"}],"internalType":"struct RealEstateFractionalize.Property[]","name":"","type":"tuple[]"}],"stateMutability":"view","type":"function"},{"inputs":[{"internalType":"uint256","name":"propertyId","type":"uint256"},{"internalType":"address","name":"owner","type":"address"}],"name":"fetchFractionsOwned","outputs":[{"internalType":"uint256","name":"","type":"uint256"}],"stateMutability":"view","type":"function"},{"inputs":[{"internalType":"uint256","name":"propertyId","type":"uint256"}],"name":"fetchFractionsSold","outputs":[{"internalType":"uint256","name":"","type":"uint256"}],"stateMutability":"view","type":"function"},{"inputs":[],"name":"fetchMyFractions","outputs":[{"internalType":"uint256[]","name":"","type":"uint256[]"}],"stateMutability":"view","type":"function"},{"inputs":[],"name":"fetchMyPropertyRegistered","outputs":[{"components":[{"internalType":"uint256","name":"id","type":"uint256"},{"internalType":"address payable","name":"owner","type":"address"},{"internalType":"uint256","name":"value","type":"uint256"},{"internalType":"uint256","name":"totalFractions","type":"uint256"},{"internalType":"uint256","name":"fractionsSold","type":"uint256"},{"internalType":"bool","name":"forSale","type":"bool"},{"internalType":"uint256","name":"salePrice","type":"uint256"},{"internalType":"bool","name":"forRent","type":"bool"},{"internalType":"uint256","name":"rentPrice","type":"uint256"},{"internalType":"uint256","name":"rentedUntil","type":"uint256"},{"internalType":"uint256","name":"rentedDays","type":"uint256"},{"internalType":"string","name":"propertyURI","type":"string"}],"internalType":"struct RealEstateFractionalize.Property[]","name":"","type":"tuple[]"}],"stateMutability":"view","type":"function"},{"inputs":[{"internalType":"uint256","name":"","type":"uint256"},{"internalType":"uint256","name":"","type":"uint256"}],"name":"fractionOwners","outputs":[{"internalType":"address","name":"","type":"address"}],"stateMutability":"view","type":"function"},{"inputs":[],"name":"getListingPrice","outputs":[{"internalType":"uint256","name":"","type":"uint256"}],"stateMutability":"view","type":"function"},{"inputs":[{"internalType":"uint256","name":"propertyId","type":"uint256"}],"name":"getPropertyById","outputs":[{"components":[{"internalType":"uint256","name":"id","type":"uint256"},{"internalType":"address payable","name":"owner","type":"address"},{"internalType":"uint256","name":"value","type":"uint256"},{"internalType":"uint256","name":"totalFractions","type":"uint256"},{"internalType":"uint256","name":"fractionsSold","type":"uint256"},{"internalType":"bool","name":"forSale","type":"bool"},{"internalType":"uint256","name":"salePrice","type":"uint256"},{"internalType":"bool","name":"forRent","type":"bool"},{"internalType":"uint256","name":"rentPrice","type":"uint256"},{"internalType":"uint256","name":"rentedUntil","type":"uint256"},{"internalType":"uint256","name":"rentedDays","type":"uint256"},{"internalType":"string","name":"propertyURI","type":"string"}],"internalType":"struct RealEstateFractionalize.Property","name":"","type":"tuple"}],"stateMutability":"view","type":"function"},{"inputs":[{"internalType":"address","name":"spender","type":"address"},{"internalType":"uint256","name":"addedValue","type":"uint256"}],"name":"increaseAllowance","outputs":[{"internalType":"bool","name":"","type":"bool"}],"stateMutability":"nonpayable","type":"function"},{"inputs":[{"internalType":"uint256","name":"propertyId","type":"uint256"},{"internalType":"uint256","name":"rentPrice","type":"uint256"}],"name":"listPropertyForRent","outputs":[],"stateMutability":"nonpayable","type":"function"},{"inputs":[{"internalType":"uint256","name":"propertyId","type":"uint256"},{"internalType":"uint256","name":"salePrice","type":"uint256"}],"name":"listPropertyForSale","outputs":[],"stateMutability":"nonpayable","type":"function"},{"inputs":[],"name":"listingPrice","outputs":[{"internalType":"uint256","name":"","type":"uint256"}],"stateMutability":"view","type":"function"},{"inputs":[],"name":"name","outputs":[{"internalType":"string","name":"","type":"string"}],"stateMutability":"view","type":"function"},{"inputs":[],"name":"nextPropertyId","outputs":[{"internalType":"uint256","name":"","type":"uint256"}],"stateMutability":"view","type":"function"},{"inputs":[{"internalType":"uint256","name":"","type":"uint256"}],"name":"properties","outputs":[{"internalType":"uint256","name":"id","type":"uint256"},{"internalType":"address payable","name":"owner","type":"address"},{"internalType":"uint256","name":"value","type":"uint256"},{"internalType":"uint256","name":"totalFractions","type":"uint256"},{"internalType":"uint256","name":"fractionsSold","type":"uint256"},{"internalType":"bool","name":"forSale","type":"bool"},{"internalType":"uint256","name":"salePrice","type":"uint256"},{"internalType":"bool","name":"forRent","type":"bool"},{"internalType":"uint256","name":"rentPrice","type":"uint256"},{"internalType":"uint256","name":"rentedUntil","type":"uint256"},{"internalType":"uint256","name":"rentedDays","type":"uint256"},{"internalType":"string","name":"propertyURI","type":"string"}],"stateMutability":"view","type":"function"},{"inputs":[{"internalType":"uint256","name":"","type":"uint256"},{"internalType":"address","name":"","type":"address"}],"name":"propertyFractions","outputs":[{"internalType":"uint256","name":"","type":"uint256"}],"stateMutability":"view","type":"function"},{"inputs":[{"internalType":"uint256","name":"value","type":"uint256"},{"internalType":"uint256","name":"totalFractions","type":"uint256"},{"internalType":"string","name":"propertyURI","type":"string"}],"name":"registerProperty","outputs":[],"stateMutability":"payable","type":"function"},{"inputs":[{"internalType":"uint256","name":"propertyId","type":"uint256"},{"internalType":"uint256","name":"rentDays","type":"uint256"}],"name":"rentProperty","outputs":[],"stateMutability":"payable","type":"function"},{"inputs":[{"internalType":"uint256","name":"propertyId","type":"uint256"},{"internalType":"uint256","name":"fractionAmount","type":"uint256"},{"internalType":"address","name":"to","type":"address"},{"internalType":"uint256","name":"fractionPrice","type":"uint256"}],"name":"sellFraction","outputs":[],"stateMutability":"payable","type":"function"},{"inputs":[{"internalType":"uint256","name":"price","type":"uint256"}],"name":"setListingPrice","outputs":[],"stateMutability":"nonpayable","type":"function"},{"inputs":[],"name":"symbol","outputs":[{"internalType":"string","name":"","type":"string"}],"stateMutability":"view","type":"function"},{"inputs":[],"name":"totalSupply","outputs":[{"internalType":"uint256","name":"","type":"uint256"}],"stateMutability":"view","type":"function"},{"inputs":[{"internalType":"address","name":"to","type":"address"},{"internalType":"uint256","name":"amount","type":"uint256"}],"name":"transfer","outputs":[{"internalType":"bool","name":"","type":"bool"}],"stateMutability":"nonpayable","type":"function"},{"inputs":[{"internalType":"address","name":"from","type":"address"},{"internalType":"address","name":"to","type":"address"},{"internalType":"uint256","name":"amount","type":"uint256"}],"name":"transferFrom","outputs":[{"internalType":"bool","name":"","type":"bool"}],"stateMutability":"nonpayable","type":"function"},{"inputs":[{"internalType":"uint256","name":"amount","type":"uint256"}],"name":"withdraw","outputs":[],"stateMutability":"nonpayable","type":"function"},{"stateMutability":"payable","type":"receive"}],"devdoc":{"kind":"dev","methods":{"allowance(address,address)":{"details":"See {IERC20-allowance}."},"approve(address,uint256)":{"details":"See {IERC20-approve}. NOTE: If `amount` is the maximum `uint256`, the allowance is not updated on `transferFrom`. This is semantically equivalent to an infinite approval. Requirements: - `spender` cannot be the zero address."},"balanceOf(address)":{"details":"See {IERC20-balanceOf}."},"buyFraction(uint256,uint256)":{"details":"Allows a user to buy fractions of a property. Transfers 0.5% of the cost to the contract and the rest to the property owner.","params":{"fractionAmount":"The number of fractions to buy.","propertyId":"The ID of the property to buy fractions from."}},"decimals()":{"details":"Returns the number of decimals used to get its user representation. For example, if `decimals` equals `2`, a balance of `505` tokens should be displayed to a user as `5.05` (`505 / 10 ** 2`). Tokens usually opt for a value of 18, imitating the relationship between Ether and Wei. This is the value {ERC20} uses, unless this function is overridden; NOTE: This information is only used for _display_ purposes: it in no way affects any of the arithmetic of the contract, including {IERC20-balanceOf} and {IERC20-transfer}."},"decreaseAllowance(address,uint256)":{"details":"Atomically decreases the allowance granted to `spender` by the caller. This is an alternative to {approve} that can be used as a mitigation for problems described in {IERC20-approve}. Emits an {Approval} event indicating the updated allowance. Requirements: - `spender` cannot be the zero address. - `spender` must have allowance for the caller of at least `subtractedValue`."},"fetchForRent()":{"details":"Fetches all properties that are currently for rent.","returns":{"_0":"An array of properties that are for rent."}},"fetchForSale()":{"details":"Fetches all properties that are currently for sale.","returns":{"_0":"An array of properties that are for sale."}},"fetchMyFractions()":{"details":"Fetches all fractions owned by the caller.","returns":{"_0":"Two arrays, one with the properties and another with the fractions owned by the caller."}},"fetchMyPropertyRegistered()":{"details":"Fetches all properties registered by the caller.","returns":{"_0":"An array of properties registered by the caller."}},"getListingPrice()":{"details":"Returns the current listing price.","returns":{"_0":"The current listing price."}},"getPropertyById(uint256)":{"details":"Retrieves a property by its ID.","params":{"propertyId":"The ID of the property to retrieve."},"returns":{"_0":"The property with the given ID."}},"increaseAllowance(address,uint256)":{"details":"Atomically increases the allowance granted to `spender` by the caller. This is an alternative to {approve} that can be used as a mitigation for problems described in {IERC20-approve}. Emits an {Approval} event indicating the updated allowance. Requirements: - `spender` cannot be the zero address."},"listPropertyForRent(uint256,uint256)":{"details":"Lists a property for rent with a given rent price.","params":{"propertyId":"The ID of the property to be listed for sale.","rentPrice":"The sale price of the property."}},"listPropertyForSale(uint256,uint256)":{"details":"Lists a property for sale with a given sale price.","params":{"propertyId":"The ID of the property to be listed for sale.","salePrice":"The sale price of the property."}},"name()":{"details":"Returns the name of the token."},"registerProperty(uint256,uint256,string)":{"details":"Registers a new property with given value, total fractions, and property URI. Transfers the listing price to the contract.","params":{"propertyURI":"The URI of the property metadata.","totalFractions":"The total number of fractions for the property.","value":"The value of the property."}},"rentProperty(uint256,uint256)":{"details":"Allows a user to rent a property. Transfers 0.5% of the msg.value to the contract before computing rent per fraction to be split among addresses.","params":{"propertyId":"The ID of the property to rent.","rentDays":"The number of days to rent the property."}},"sellFraction(uint256,uint256,address,uint256)":{"details":"Allows a user to sell fractions of a property. Transfers 0.5% of the cost to the contract and the rest to the msg.sender.","params":{"fractionAmount":"The number of fractions to sell.","fractionPrice":"The price per fraction.","propertyId":"The ID of the property to sell fractions from.","to":"The address to transfer the fractions to."}},"setListingPrice(uint256)":{"details":"Sets the listing price for registering a property.","params":{"price":"The new listing price."}},"symbol()":{"details":"Returns the symbol of the token, usually a shorter version of the name."},"totalSupply()":{"details":"See {IERC20-totalSupply}."},"transfer(address,uint256)":{"details":"See {IERC20-transfer}. Requirements: - `to` cannot be the zero address. - the caller must have a balance of at least `amount`."},"transferFrom(address,address,uint256)":{"details":"See {IERC20-transferFrom}. Emits an {Approval} event indicating the updated allowance. This is not required by the EIP. See the note at the beginning of {ERC20}. NOTE: Does not update the allowance if the current allowance is the maximum `uint256`. Requirements: - `from` and `to` cannot be the zero address. - `from` must have a balance of at least `amount`. - the caller must have allowance for ``from``'s tokens of at least `amount`."}},"version":1},"evm":{"bytecode":{"linkReferences":{},"object":"60806040526512309ce540006006553480156200001b57600080fd5b506040518060400160405280601481526020017f50726f706572747920426c6f636b20546f6b656e0000000000000000000000008152506040518060400160405280600381526020016214109560ea1b81525081600390816200007f919062000241565b5060046200008e828262000241565b5050600780546001600160a01b0319163317905550620000cc735b38da6a701c568545dcfcb03fcb875f56beddc468056bc75e2d63100000620000d2565b62000335565b6001600160a01b0382166200012d5760405162461bcd60e51b815260206004820152601f60248201527f45524332303a206d696e7420746f20746865207a65726f206164647265737300604482015260640160405180910390fd5b80600260008282546200014191906200030d565b90915550506001600160a01b038216600081815260208181526040808320805486019055518481527fddf252ad1be2c89b69c2b068fc378daa952ba7f163c4a11628f55a4df523b3ef910160405180910390a35050565b505050565b634e487b7160e01b600052604160045260246000fd5b600181811c90821680620001c857607f821691505b602082108103620001e957634e487b7160e01b600052602260045260246000fd5b50919050565b601f8211156200019857600081815260208120601f850160051c81016020861015620002185750805b601f850160051c820191505b81811015620002395782815560010162000224565b505050505050565b81516001600160401b038111156200025d576200025d6200019d565b62000275816200026e8454620001b3565b84620001ef565b602080601f831160018114620002ad5760008415620002945750858301515b600019600386901b1c1916600185901b17855562000239565b600085815260208120601f198616915b82811015620002de57888601518255948401946001909101908401620002bd565b5085821015620002fd5787850151600019600388901b60f8161c191681555b5050505050600190811b01905550565b808201808211156200032f57634e487b7160e01b600052601160045260246000fd5b92915050565b61324780620003456000396000f3fe6080604052600436106102085760003560e01c80636503b36c11610118578063c45eca47116100a0578063d0e30db01161006f578063d0e30db01461061d578063d2fce6dd14610625578063d40b021414610668578063dd62ed3e1461067b578063f7b108081461069b57600080fd5b8063c45eca471461059c578063c78f19f9146105d4578063ccfc7f72146105ea578063cf7dea36146105fd57600080fd5b806395d89b41116100e757806395d89b411461051d5780639797406e14610532578063a457c2d714610547578063a9059cbb14610567578063bd82a1a31461058757600080fd5b80636503b36c1461049457806370a08231146104b457806378f81dde146104ea5780637c726b69146104fd57600080fd5b80632e1a7d4d1161019b578063395093511161016a57806339509351146103ef5780633ec4ebb71461040f57806350a8bc99146104225780635875e8991461045257806359fe18eb1461046757600080fd5b80632e1a7d4d1461037b578063313ce5671461039b57806336fbab3b146103b757806339500f34146103d957600080fd5b806311a2aa13116101d757806311a2aa131461030f57806312e855851461033157806318160ddd1461034657806323b872dd1461035b57600080fd5b806306fdde031461024c578063095ea7b3146102775780630f55415b146102a75780631092974f146102c957600080fd5b3661024757604080513381523460208201527f88a5966d370b9919b20f3e2c13ff65706f196a4e32cc2c12bf57088f88525874910160405180910390a1005b600080fd5b34801561025857600080fd5b506102616106d3565b60405161026e9190612ad8565b60405180910390f35b34801561028357600080fd5b50610297610292366004612b0e565b610765565b604051901515815260200161026e565b3480156102b357600080fd5b506102c76102c2366004612b38565b61077f565b005b3480156102d557600080fd5b506103016102e4366004612b5a565b600960209081526000928352604080842090915290825290205481565b60405190815260200161026e565b34801561031b57600080fd5b506103246107f4565b60405161026e9190612c3e565b34801561033d57600080fd5b50600654610301565b34801561035257600080fd5b50600254610301565b34801561036757600080fd5b50610297610376366004612ca0565b610a3c565b34801561038757600080fd5b506102c7610396366004612cdc565b610a60565b3480156103a757600080fd5b506040516012815260200161026e565b3480156103c357600080fd5b506103cc610ac8565b60405161026e9190612cf5565b3480156103e557600080fd5b5061030160055481565b3480156103fb57600080fd5b5061029761040a366004612b0e565b610d9a565b6102c761041d366004612b38565b610dbc565b34801561042e57600080fd5b5061030161043d366004612cdc565b60009081526008602052604090206004015490565b34801561045e57600080fd5b506103246111a0565b34801561047357600080fd5b50610487610482366004612cdc565b6113df565b60405161026e9190612d39565b3480156104a057600080fd5b506102c76104af366004612b38565b611576565b3480156104c057600080fd5b506103016104cf366004612d4c565b6001600160a01b031660009081526020819052604090205490565b6102c76104f8366004612d67565b6115e6565b34801561050957600080fd5b506102c7610518366004612cdc565b611913565b34801561052957600080fd5b50610261611942565b34801561053e57600080fd5b50610301611951565b34801561055357600080fd5b50610297610562366004612b0e565b611983565b34801561057357600080fd5b50610297610582366004612b0e565b6119fe565b34801561059357600080fd5b50610324611a0c565b3480156105a857600080fd5b506007546105bc906001600160a01b031681565b6040516001600160a01b03909116815260200161026e565b3480156105e057600080fd5b5061030160065481565b6102c76105f8366004612dba565b611c5d565b34801561060957600080fd5b506105bc610618366004612b38565b611f0e565b6102c7611f46565b34801561063157600080fd5b50610301610640366004612b5a565b60009182526009602090815260408084206001600160a01b0393909316845291905290205490565b6102c7610676366004612b38565b611f72565b34801561068757600080fd5b50610301610696366004612e7e565b61235a565b3480156106a757600080fd5b506106bb6106b6366004612cdc565b612385565b60405161026e9c9b9a99989796959493929190612ea8565b6060600380546106e290612f21565b80601f016020809104026020016040519081016040528092919081815260200182805461070e90612f21565b801561075b5780601f106107305761010080835404028352916020019161075b565b820191906000526020600020905b81548152906001019060200180831161073e57829003601f168201915b5050505050905090565b600033610773818585612481565b60019150505b92915050565b600082815260086020526040902060018101546001600160a01b031633146107de5760405162461bcd60e51b815260206004820152600d60248201526c2737ba103a34329037bbb732b960991b60448201526064015b60405180910390fd5b60058101805460ff191660011790556006015550565b60606000805b60055481101561083e5760008181526008602052604090206007015460ff161561082c578161082881612f71565b9250505b8061083681612f71565b9150506107fa565b5060008167ffffffffffffffff81111561085a5761085a612da4565b60405190808252806020026020018201604052801561089357816020015b610880612a24565b8152602001906001900390816108785790505b5090506000805b600554811015610a335760008181526008602052604090206007015460ff1615610a21576000818152600860208181526040928390208351610180810185528154815260018201546001600160a01b0316928101929092526002810154938201939093526003830154606082015260048301546080820152600583015460ff908116151560a0830152600684015460c0830152600784015416151560e0820152908201546101008201526009820154610120820152600a820154610140820152600b820180549192916101608401919061097390612f21565b80601f016020809104026020016040519081016040528092919081815260200182805461099f90612f21565b80156109ec5780601f106109c1576101008083540402835291602001916109ec565b820191906000526020600020905b8154815290600101906020018083116109cf57829003601f168201915b505050505081525050838381518110610a0757610a07612f8a565b60200260200101819052508180610a1d90612f71565b9250505b80610a2b81612f71565b91505061089a565b50909392505050565b600033610a4a8582856125a6565b610a55858585612620565b506001949350505050565b6007546001600160a01b03163314610a8a5760405162461bcd60e51b81526004016107d590612fa0565b6007546040516001600160a01b039091169082156108fc029083906000818181858888f19350505050158015610ac4573d6000803e3d6000fd5b5050565b60606000805b600554811015610b1757600081815260096020908152604080832033845290915290205415610b055781610b0181612f71565b9250505b80610b0f81612f71565b915050610ace565b5060008167ffffffffffffffff811115610b3357610b33612da4565b604051908082528060200260200182016040528015610b6c57816020015b610b59612a24565b815260200190600190039081610b515790505b50905060008267ffffffffffffffff811115610b8a57610b8a612da4565b604051908082528060200260200182016040528015610bb3578160200160208202803683370190505b5090506000805b600554811015610d9057600081815260096020908152604080832033845290915290205415610d7e576000818152600860208181526040928390208351610180810185528154815260018201546001600160a01b0316928101929092526002810154938201939093526003830154606082015260048301546080820152600583015460ff908116151560a0830152600684015460c0830152600784015416151560e0820152908201546101008201526009820154610120820152600a820154610140820152600b8201805491929161016084019190610c9890612f21565b80601f0160208091040260200160405190810160405280929190818152602001828054610cc490612f21565b8015610d115780601f10610ce657610100808354040283529160200191610d11565b820191906000526020600020905b815481529060010190602001808311610cf457829003601f168201915b505050505081525050848381518110610d2c57610d2c612f8a565b602090810291909101810191909152600082815260098252604080822033835290925220548351849084908110610d6557610d65612f8a565b602090810291909101015281610d7a81612f71565b9250505b80610d8881612f71565b915050610bba565b5090949350505050565b600033610773818585610dad838361235a565b610db79190612fc3565b612481565b610df160405180604001604052806013815260200172022aa24102130b630b731b2902132b337b9329606d1b815250476127c4565b6000828152600860205260409020600781015460ff16610e4b5760405162461bcd60e51b8152602060048201526015602482015274141c9bdc195c9d1e481b9bdd08199bdc881c995b9d605a1b60448201526064016107d5565b610e8e6040518060400160405280601781526020017f70726f70657274792e72656e746564556e74696c20697300000000000000000081525082600901546127c4565b610ec3604051806040016040528060138152602001720313637b1b5973a34b6b2b9ba30b6b81034b99606d1b815250426127c4565b4281600901541115610f175760405162461bcd60e51b815260206004820152601760248201527f50726f706572747920616c72656164792072656e74656400000000000000000060448201526064016107d5565b6000828260080154610f299190612fd6565b9050803414610f4a5760405162461bcd60e51b81526004016107d590612fed565b60006103e8610f5b346103e3612fd6565b610f659190613016565b90506000610f738234613038565b9050610faa6040518060400160405280601381526020017202a3432903732ba2932b73a21b7b9ba1034b99606d1b815250836127c4565b610fd76040518060400160405280600b81526020016a02a3432903332b29034b9960ad1b815250826127c4565b610fe48562015180612fd6565b610fee9042612fc3565b84600901819055508484600a01600082825461100a9190612fc3565b909155505060038401546000906110219084613016565b90506110626040518060400160405280601781526020017f5468652072656e745065724672616374696f6e20697320000000000000000000815250826127c4565b60005b6000888152600a6020526040902054811015611119576000888152600a6020526040812080548390811061109b5761109b612f8a565b60009182526020808320909101548b83526009825260408084206001600160a01b0390921680855291909252912054909150816108fc6110db8387612fd6565b6040518115909202916000818181858888f19350505050158015611103573d6000803e3d6000fd5b505050808061111190612f71565b915050611065565b506008850154604080518981523360208201528082019290925260608201889052517f83f582c38246e10118fca894a9512cb07f6c10aec67f1808c8ddd5db8810e5a99181900360800190a16111976040518060400160405280601081526020016f022aa24102130b630b731b29022a722160851b815250476127c4565b50505050505050565b60606000805b6005548110156111ea5760008181526008602052604090206005015460ff16156111d857816111d481612f71565b9250505b806111e281612f71565b9150506111a6565b5060008167ffffffffffffffff81111561120657611206612da4565b60405190808252806020026020018201604052801561123f57816020015b61122c612a24565b8152602001906001900390816112245790505b5090506000805b600554811015610a335760008181526008602052604090206005015460ff16156113cd576000818152600860208181526040928390208351610180810185528154815260018201546001600160a01b0316928101929092526002810154938201939093526003830154606082015260048301546080820152600583015460ff908116151560a0830152600684015460c0830152600784015416151560e0820152908201546101008201526009820154610120820152600a820154610140820152600b820180549192916101608401919061131f90612f21565b80601f016020809104026020016040519081016040528092919081815260200182805461134b90612f21565b80156113985780601f1061136d57610100808354040283529160200191611398565b820191906000526020600020905b81548152906001019060200180831161137b57829003601f168201915b5050505050815250508383815181106113b3576113b3612f8a565b602002602001018190525081806113c990612f71565b9250505b806113d781612f71565b915050611246565b6113e7612a24565b60055482106114385760405162461bcd60e51b815260206004820152601760248201527f50726f706572747920646f6573206e6f7420657869737400000000000000000060448201526064016107d5565b6000828152600860208181526040928390208351610180810185528154815260018201546001600160a01b0316928101929092526002810154938201939093526003830154606082015260048301546080820152600583015460ff908116151560a0830152600684015460c0830152600784015416151560e0820152908201546101008201526009820154610120820152600a820154610140820152600b82018054919291610160840191906114ed90612f21565b80601f016020809104026020016040519081016040528092919081815260200182805461151990612f21565b80156115665780601f1061153b57610100808354040283529160200191611566565b820191906000526020600020905b81548152906001019060200180831161154957829003601f168201915b5050505050815250509050919050565b600082815260086020526040902060018101546001600160a01b031633146115d05760405162461bcd60e51b815260206004820152600d60248201526c2737ba103a34329037bbb732b960991b60448201526064016107d5565b60078101805460ff191660011790556008015550565b61161b60405180604001604052806013815260200172022aa24102130b630b731b2902132b337b9329606d1b815250476127c4565b60008481526008602052604090206001600160a01b0383166116715760405162461bcd60e51b815260206004820152600f60248201526e496e76616c6964206164647265737360881b60448201526064016107d5565b60018101546001600160a01b031633036116cd5760405162461bcd60e51b815260206004820152601a60248201527f596f7520617265207468652050726f7065727479206f776e657200000000000060448201526064016107d5565b600085815260096020908152604080832033845290915290205484111561172d5760405162461bcd60e51b81526020600482015260146024820152734e6f7420656e6f756768206672616374696f6e7360601b60448201526064016107d5565b60006117398584612fd6565b90506117696040518060400160405280600c81526020016b02a34329031b7b9ba1034b9960a51b815250826127c4565b8034146117885760405162461bcd60e51b81526004016107d590612fed565b60006103e8611799346103e3612fd6565b6117a39190613016565b905060006117b18284613038565b90506117e06040518060400160405280600b81526020016a02a3432903332b29034b9960ad1b815250826127c4565b604051339083156108fc029084906000818181858888f1935050505015801561180d573d6000803e3d6000fd5b506118183388612809565b6118228688612938565b60008881526009602090815260408083203384529091528120805489929061184b908490613038565b909155505060008881526009602090815260408083206001600160a01b038a16845290915281208054899290611882908490612fc3565b9091555050604080518981523360208201529081018890526001600160a01b03871660608201527f30d8244e1d6b3f8ffaf165e67a9ba4d260733377fe3c64dc07fd78b7ea27b9089060800160405180910390a161190960405180604001604052806011815260200170022aa24102130b630b731b2903630b9ba1607d1b815250476127c4565b5050505050505050565b6007546001600160a01b0316331461193d5760405162461bcd60e51b81526004016107d590612fa0565b600655565b6060600480546106e290612f21565b6007546000906001600160a01b0316331461197e5760405162461bcd60e51b81526004016107d590612fa0565b504790565b60003381611991828661235a565b9050838110156119f15760405162461bcd60e51b815260206004820152602560248201527f45524332303a2064656372656173656420616c6c6f77616e63652062656c6f77604482015264207a65726f60d81b60648201526084016107d5565b610a558286868403612481565b600033610773818585612620565b60606000805b600554811015611a5f57600081815260086020526040902060010154336001600160a01b0390911603611a4d5781611a4981612f71565b9250505b80611a5781612f71565b915050611a12565b5060008167ffffffffffffffff811115611a7b57611a7b612da4565b604051908082528060200260200182016040528015611ab457816020015b611aa1612a24565b815260200190600190039081611a995790505b5090506000805b600554811015610a3357600081815260086020526040902060010154336001600160a01b0390911603611c4b576000818152600860208181526040928390208351610180810185528154815260018201546001600160a01b0316928101929092526002810154938201939093526003830154606082015260048301546080820152600583015460ff908116151560a0830152600684015460c0830152600784015416151560e0820152908201546101008201526009820154610120820152600a820154610140820152600b8201805491929161016084019190611b9d90612f21565b80601f0160208091040260200160405190810160405280929190818152602001828054611bc990612f21565b8015611c165780601f10611beb57610100808354040283529160200191611c16565b820191906000526020600020905b815481529060010190602001808311611bf957829003601f168201915b505050505081525050838381518110611c3157611c31612f8a565b60200260200101819052508180611c4790612f71565b9250505b80611c5581612f71565b915050611abb565b60008211611cbf5760405162461bcd60e51b815260206004820152602960248201527f546f74616c206672616374696f6e73206d7573742062652067726561746572206044820152687468616e207a65726f60b81b60648201526084016107d5565b6006543414611d105760405162461bcd60e51b815260206004820152601760248201527f496e636f7272656374206c697374696e6720707269636500000000000000000060448201526064016107d5565b6040518061018001604052806005548152602001336001600160a01b031681526020018481526020018381526020016000815260200160001515815260200160008152602001600015158152602001600081526020016000815260200160008152602001828152506008600060055481526020019081526020016000206000820151816000015560208201518160010160006101000a8154816001600160a01b0302191690836001600160a01b0316021790555060408201518160020155606082015181600301556080820151816004015560a08201518160050160006101000a81548160ff02191690831515021790555060c0820151816006015560e08201518160070160006101000a81548160ff0219169083151502179055506101008201518160080155610120820151816009015561014082015181600a015561016082015181600b019081611e639190613099565b50506005805460009081526009602090815260408083203380855290835281842088905584548452600a835281842080546001810182559085529290932090910180546001600160a01b03191683179055915491517f4412373545e6dccbfc2488ddcc8ff966a2e6f11db627e5e6facb0838617925029350611eec929190879087908790613159565b60405180910390a160058054906000611f0483612f71565b9190505550505050565b600a6020528160005260406000208181548110611f2a57600080fd5b6000918252602090912001546001600160a01b03169150829050565b6007546001600160a01b03163314611f705760405162461bcd60e51b81526004016107d590612fa0565b565b6000828152600860205260409020600581015460ff16611fcc5760405162461bcd60e51b815260206004820152601560248201527450726f7065727479206e6f7420666f722073616c6560581b60448201526064016107d5565b60008160030154838360060154611fe39190612fd6565b611fed9190613016565b905061201d6040518060400160405280600c81526020016b02a34329031b7b9ba1034b9960a51b815250826127c4565b60018201546001600160a01b031633036120795760405162461bcd60e51b815260206004820152601a60248201527f596f7520617265207468652050726f7065727479206f776e657200000000000060448201526064016107d5565b8034146120985760405162461bcd60e51b81526004016107d590612fed565b6120a23384612938565b60006103e86120b3836103e3612fd6565b6120bd9190613016565b905060006120cb8284613038565b90506120fa6040518060400160405280600b81526020016a02a3432903332b29034b9960ad1b815250826127c4565b60018401546040516001600160a01b039091169083156108fc029084906000818181858888f19350505050158015612136573d6000803e3d6000fd5b50600086815260096020908152604080832033845290915281205490036121c4576000868152600a6020818152604080842080546001810182559085528285200180546001600160a01b031916339081179091558151808301835293845269024b739b4b2329034b3160b51b848401528a855260098352818520908552909152909120546121c491906127c4565b6000868152600960209081526040808320338452909152812080548792906121ed908490612fc3565b9250508190555061222f6040518060600160405280602a81526020016131ba602a913960008881526009602090815260408083203384529091529020546127c4565b600086815260096020908152604080832060018801546001600160a01b0316845290915281208054879290612265908490613038565b925050819055506122b46040518060600160405280602e81526020016131e4602e9139600088815260096020908152604080832060018a01546001600160a01b031684529091529020546127c4565b848460040160008282546122c89190612fc3565b925050819055506123126040518060400160405280601781526020017f70726f70657274792e6672616374696f6e73536f6c642000000000000000000081525085600401546127c4565b604080518781523360208201529081018690527fa09ee622b528975b330f6a8b76649135b6cd75be9b28a394a116b8dadbda87809060600160405180910390a1505050505050565b6001600160a01b03918216600090815260016020908152604080832093909416825291909152205490565b600860208190526000918252604090912080546001820154600283015460038401546004850154600586015460068701546007880154988801546009890154600a8a0154600b8b0180549a9c6001600160a01b03909a169b989a9799969860ff968716989597909616959394929391926123fe90612f21565b80601f016020809104026020016040519081016040528092919081815260200182805461242a90612f21565b80156124775780601f1061244c57610100808354040283529160200191612477565b820191906000526020600020905b81548152906001019060200180831161245a57829003601f168201915b505050505090508c565b6001600160a01b0383166124e35760405162461bcd60e51b8152602060048201526024808201527f45524332303a20617070726f76652066726f6d20746865207a65726f206164646044820152637265737360e01b60648201526084016107d5565b6001600160a01b0382166125445760405162461bcd60e51b815260206004820152602260248201527f45524332303a20617070726f766520746f20746865207a65726f206164647265604482015261737360f01b60648201526084016107d5565b6001600160a01b0383811660008181526001602090815260408083209487168084529482529182902085905590518481527f8c5be1e5ebec7d5bd14f71427d1e84f3dd0314c0f7b2291e5b200ac8c7c3b92591015b60405180910390a3505050565b60006125b2848461235a565b9050600019811461261a578181101561260d5760405162461bcd60e51b815260206004820152601d60248201527f45524332303a20696e73756666696369656e7420616c6c6f77616e636500000060448201526064016107d5565b61261a8484848403612481565b50505050565b6001600160a01b0383166126845760405162461bcd60e51b815260206004820152602560248201527f45524332303a207472616e736665722066726f6d20746865207a65726f206164604482015264647265737360d81b60648201526084016107d5565b6001600160a01b0382166126e65760405162461bcd60e51b815260206004820152602360248201527f45524332303a207472616e7366657220746f20746865207a65726f206164647260448201526265737360e81b60648201526084016107d5565b6001600160a01b0383166000908152602081905260409020548181101561275e5760405162461bcd60e51b815260206004820152602660248201527f45524332303a207472616e7366657220616d6f756e7420657863656564732062604482015265616c616e636560d01b60648201526084016107d5565b6001600160a01b03848116600081815260208181526040808320878703905593871680835291849020805487019055925185815290927fddf252ad1be2c89b69c2b068fc378daa952ba7f163c4a11628f55a4df523b3ef910160405180910390a361261a565b610ac482826040516024016127da929190613197565b60408051601f198184030181529190526020810180516001600160e01b0316632d839cb360e21b1790526129f7565b6001600160a01b0382166128695760405162461bcd60e51b815260206004820152602160248201527f45524332303a206275726e2066726f6d20746865207a65726f206164647265736044820152607360f81b60648201526084016107d5565b6001600160a01b038216600090815260208190526040902054818110156128dd5760405162461bcd60e51b815260206004820152602260248201527f45524332303a206275726e20616d6f756e7420657863656564732062616c616e604482015261636560f01b60648201526084016107d5565b6001600160a01b0383166000818152602081815260408083208686039055600280548790039055518581529192917fddf252ad1be2c89b69c2b068fc378daa952ba7f163c4a11628f55a4df523b3ef9101612599565b505050565b6001600160a01b03821661298e5760405162461bcd60e51b815260206004820152601f60248201527f45524332303a206d696e7420746f20746865207a65726f20616464726573730060448201526064016107d5565b80600260008282546129a09190612fc3565b90915550506001600160a01b038216600081815260208181526040808320805486019055518481527fddf252ad1be2c89b69c2b068fc378daa952ba7f163c4a11628f55a4df523b3ef910160405180910390a35050565b612a0081612a03565b50565b60006a636f6e736f6c652e6c6f679050600080835160208501845afa505050565b6040518061018001604052806000815260200160006001600160a01b0316815260200160008152602001600081526020016000815260200160001515815260200160008152602001600015158152602001600081526020016000815260200160008152602001606081525090565b6000815180845260005b81811015612ab857602081850181015186830182015201612a9c565b506000602082860101526020601f19601f83011685010191505092915050565b602081526000612aeb6020830184612a92565b9392505050565b80356001600160a01b0381168114612b0957600080fd5b919050565b60008060408385031215612b2157600080fd5b612b2a83612af2565b946020939093013593505050565b60008060408385031215612b4b57600080fd5b50508035926020909101359150565b60008060408385031215612b6d57600080fd5b82359150612b7d60208401612af2565b90509250929050565b6000610180825184526020830151612ba960208601826001600160a01b03169052565b5060408301516040850152606083015160608501526080830151608085015260a0830151612bdb60a086018215159052565b5060c083015160c085015260e0830151612bf960e086018215159052565b5061010083810151908501526101208084015190850152610140808401519085015261016080840151818601839052612c3483870182612a92565b9695505050505050565b6000602080830181845280855180835260408601915060408160051b870101925083870160005b82811015612c9357603f19888603018452612c81858351612b86565b94509285019290850190600101612c65565b5092979650505050505050565b600080600060608486031215612cb557600080fd5b612cbe84612af2565b9250612ccc60208501612af2565b9150604084013590509250925092565b600060208284031215612cee57600080fd5b5035919050565b6020808252825182820181905260009190848201906040850190845b81811015612d2d57835183529284019291840191600101612d11565b50909695505050505050565b602081526000612aeb6020830184612b86565b600060208284031215612d5e57600080fd5b612aeb82612af2565b60008060008060808587031215612d7d57600080fd5b8435935060208501359250612d9460408601612af2565b9396929550929360600135925050565b634e487b7160e01b600052604160045260246000fd5b600080600060608486031215612dcf57600080fd5b8335925060208401359150604084013567ffffffffffffffff80821115612df557600080fd5b818601915086601f830112612e0957600080fd5b813581811115612e1b57612e1b612da4565b604051601f8201601f19908116603f01168101908382118183101715612e4357612e43612da4565b81604052828152896020848701011115612e5c57600080fd5b8260208601602083013760006020848301015280955050505050509250925092565b60008060408385031215612e9157600080fd5b612e9a83612af2565b9150612b7d60208401612af2565b60006101808e835260018060a01b038e1660208401528c60408401528b60608401528a608084015289151560a08401528860c084015287151560e084015286610100840152856101208401528461014084015280610160840152612f0e81840185612a92565b9f9e505050505050505050505050505050565b600181811c90821680612f3557607f821691505b602082108103612f5557634e487b7160e01b600052602260045260246000fd5b50919050565b634e487b7160e01b600052601160045260246000fd5b600060018201612f8357612f83612f5b565b5060010190565b634e487b7160e01b600052603260045260246000fd5b6020808252600990820152682737ba1037bbb732b960b91b604082015260600190565b8082018082111561077957610779612f5b565b808202811582820484141761077957610779612f5b565b6020808252600f908201526e496e636f72726563742076616c756560881b604082015260600190565b60008261303357634e487b7160e01b600052601260045260246000fd5b500490565b8181038181111561077957610779612f5b565b601f82111561293357600081815260208120601f850160051c810160208610156130725750805b601f850160051c820191505b818110156130915782815560010161307e565b505050505050565b815167ffffffffffffffff8111156130b3576130b3612da4565b6130c7816130c18454612f21565b8461304b565b602080601f8311600181146130fc57600084156130e45750858301515b600019600386901b1c1916600185901b178555613091565b600085815260208120601f198616915b8281101561312b5788860151825594840194600190910190840161310c565b50858210156131495787850151600019600388901b60f8161c191681555b5050505050600190811b01905550565b85815260018060a01b038516602082015283604082015282606082015260a06080820152600061318c60a0830184612a92565b979650505050505050565b6040815260006131aa6040830185612a92565b9050826020830152939250505056fe70726f70657274794672616374696f6e735b70726f706572747949645d5b6d73672e73656e6465725d2070726f70657274794672616374696f6e735b70726f706572747949645d5b70726f70657274792e6f776e65725d20a264697066735822122014bfcd16de361d63b5e68f3e9de22094d9c1af43ae8a8e691512bfbac93addab64736f6c63430008110033","opcodes":"PUSH1 0x80 PUSH1 0x40 MSTORE PUSH6 0x12309CE54000 PUSH1 0x6 SSTORE CALLVALUE DUP1 ISZERO PUSH3 0x1B JUMPI PUSH1 0x0 DUP1 REVERT JUMPDEST POP PUSH1 0x40 MLOAD DUP1 PUSH1 0x40 ADD PUSH1 0x40 MSTORE DUP1 PUSH1 0x14 DUP2 MSTORE PUSH1 0x20 ADD PUSH32 0x50726F706572747920426C6F636B20546F6B656E000000000000000000000000 DUP2 MSTORE POP PUSH1 0x40 MLOAD DUP1 PUSH1 0x40 ADD PUSH1 0x40 MSTORE DUP1 PUSH1 0x3 DUP2 MSTORE PUSH1 0x20 ADD PUSH3 0x141095 PUSH1 0xEA SHL DUP2 MSTORE POP DUP2 PUSH1 0x3 SWAP1 DUP2 PUSH3 0x7F SWAP2 SWAP1 PUSH3 0x241 JUMP JUMPDEST POP PUSH1 0x4 PUSH3 0x8E DUP3 DUP3 PUSH3 0x241 JUMP JUMPDEST POP POP PUSH1 0x7 DUP1 SLOAD PUSH1 0x1 PUSH1 0x1 PUSH1 0xA0 SHL SUB NOT AND CALLER OR SWAP1 SSTORE POP PUSH3 0xCC PUSH20 0x5B38DA6A701C568545DCFCB03FCB875F56BEDDC4 PUSH9 0x56BC75E2D63100000 PUSH3 0xD2 JUMP JUMPDEST PUSH3 0x335 JUMP JUMPDEST PUSH1 0x1 PUSH1 0x1 PUSH1 0xA0 SHL SUB DUP3 AND PUSH3 0x12D JUMPI PUSH1 0x40 MLOAD PUSH3 0x461BCD PUSH1 0xE5 SHL DUP2 MSTORE PUSH1 0x20 PUSH1 0x4 DUP3 ADD MSTORE PUSH1 0x1F PUSH1 0x24 DUP3 ADD MSTORE PUSH32 0x45524332303A206D696E7420746F20746865207A65726F206164647265737300 PUSH1 0x44 DUP3 ADD MSTORE PUSH1 0x64 ADD PUSH1 0x40 MLOAD DUP1 SWAP2 SUB SWAP1 REVERT JUMPDEST DUP1 PUSH1 0x2 PUSH1 0x0 DUP3 DUP3 SLOAD PUSH3 0x141 SWAP2 SWAP1 PUSH3 0x30D JUMP JUMPDEST SWAP1 SWAP2 SSTORE POP POP PUSH1 0x1 PUSH1 0x1 PUSH1 0xA0 SHL SUB DUP3 AND PUSH1 0x0 DUP2 DUP2 MSTORE PUSH1 0x20 DUP2 DUP2 MSTORE PUSH1 0x40 DUP1 DUP4 KECCAK256 DUP1 SLOAD DUP7 ADD SWAP1 SSTORE MLOAD DUP5 DUP2 MSTORE PUSH32 0xDDF252AD1BE2C89B69C2B068FC378DAA952BA7F163C4A11628F55A4DF523B3EF SWAP2 ADD PUSH1 0x40 MLOAD DUP1 SWAP2 SUB SWAP1 LOG3 POP POP JUMP JUMPDEST POP POP POP JUMP JUMPDEST PUSH4 0x4E487B71 PUSH1 0xE0 SHL PUSH1 0x0 MSTORE PUSH1 0x41 PUSH1 0x4 MSTORE PUSH1 0x24 PUSH1 0x0 REVERT JUMPDEST PUSH1 0x1 DUP2 DUP2 SHR SWAP1 DUP3 AND DUP1 PUSH3 0x1C8 JUMPI PUSH1 0x7F DUP3 AND SWAP2 POP JUMPDEST PUSH1 0x20 DUP3 LT DUP2 SUB PUSH3 0x1E9 JUMPI PUSH4 0x4E487B71 PUSH1 0xE0 SHL PUSH1 0x0 MSTORE PUSH1 0x22 PUSH1 0x4 MSTORE PUSH1 0x24 PUSH1 0x0 REVERT JUMPDEST POP SWAP2 SWAP1 POP JUMP JUMPDEST PUSH1 0x1F DUP3 GT ISZERO PUSH3 0x198 JUMPI PUSH1 0x0 DUP2 DUP2 MSTORE PUSH1 0x20 DUP2 KECCAK256 PUSH1 0x1F DUP6 ADD PUSH1 0x5 SHR DUP2 ADD PUSH1 0x20 DUP7 LT ISZERO PUSH3 0x218 JUMPI POP DUP1 JUMPDEST PUSH1 0x1F DUP6 ADD PUSH1 0x5 SHR DUP3 ADD SWAP2 POP JUMPDEST DUP2 DUP2 LT ISZERO PUSH3 0x239 JUMPI DUP3 DUP2 SSTORE PUSH1 0x1 ADD PUSH3 0x224 JUMP JUMPDEST POP POP POP POP POP POP JUMP JUMPDEST DUP2 MLOAD PUSH1 0x1 PUSH1 0x1 PUSH1 0x40 SHL SUB DUP2 GT ISZERO PUSH3 0x25D JUMPI PUSH3 0x25D PUSH3 0x19D JUMP JUMPDEST PUSH3 0x275 DUP2 PUSH3 0x26E DUP5 SLOAD PUSH3 0x1B3 JUMP JUMPDEST DUP5 PUSH3 0x1EF JUMP JUMPDEST PUSH1 0x20 DUP1 PUSH1 0x1F DUP4 GT PUSH1 0x1 DUP2 EQ PUSH3 0x2AD JUMPI PUSH1 0x0 DUP5 ISZERO PUSH3 0x294 JUMPI POP DUP6 DUP4 ADD MLOAD JUMPDEST PUSH1 0x0 NOT PUSH1 0x3 DUP7 SWAP1 SHL SHR NOT AND PUSH1 0x1 DUP6 SWAP1 SHL OR DUP6 SSTORE PUSH3 0x239 JUMP JUMPDEST PUSH1 0x0 DUP6 DUP2 MSTORE PUSH1 0x20 DUP2 KECCAK256 PUSH1 0x1F NOT DUP7 AND SWAP2 JUMPDEST DUP3 DUP2 LT ISZERO PUSH3 0x2DE JUMPI DUP9 DUP7 ADD MLOAD DUP3 SSTORE SWAP5 DUP5 ADD SWAP5 PUSH1 0x1 SWAP1 SWAP2 ADD SWAP1 DUP5 ADD PUSH3 0x2BD JUMP JUMPDEST POP DUP6 DUP3 LT ISZERO PUSH3 0x2FD JUMPI DUP8 DUP6 ADD MLOAD PUSH1 0x0 NOT PUSH1 0x3 DUP9 SWAP1 SHL PUSH1 0xF8 AND SHR NOT AND DUP2 SSTORE JUMPDEST POP POP POP POP POP PUSH1 0x1 SWAP1 DUP2 SHL ADD SWAP1 SSTORE POP JUMP JUMPDEST DUP1 DUP3 ADD DUP1 DUP3 GT ISZERO PUSH3 0x32F JUMPI PUSH4 0x4E487B71 PUSH1 0xE0 SHL PUSH1 0x0 MSTORE PUSH1 0x11 PUSH1 0x4 MSTORE PUSH1 0x24 PUSH1 0x0 REVERT JUMPDEST SWAP3 SWAP2 POP POP JUMP JUMPDEST PUSH2 0x3247 DUP1 PUSH3 0x345 PUSH1 0x0 CODECOPY PUSH1 0x0 RETURN INVALID PUSH1 0x80 PUSH1 0x40 MSTORE PUSH1 0x4 CALLDATASIZE LT PUSH2 0x208 JUMPI PUSH1 0x0 CALLDATALOAD PUSH1 0xE0 SHR DUP1 PUSH4 0x6503B36C GT PUSH2 0x118 JUMPI DUP1 PUSH4 0xC45ECA47 GT PUSH2 0xA0 JUMPI DUP1 PUSH4 0xD0E30DB0 GT PUSH2 0x6F JUMPI DUP1 PUSH4 0xD0E30DB0 EQ PUSH2 0x61D JUMPI DUP1 PUSH4 0xD2FCE6DD EQ PUSH2 0x625 JUMPI DUP1 PUSH4 0xD40B0214 EQ PUSH2 0x668 JUMPI DUP1 PUSH4 0xDD62ED3E EQ PUSH2 0x67B JUMPI DUP1 PUSH4 0xF7B10808 EQ PUSH2 0x69B JUMPI PUSH1 0x0 DUP1 REVERT JUMPDEST DUP1 PUSH4 0xC45ECA47 EQ PUSH2 0x59C JUMPI DUP1 PUSH4 0xC78F19F9 EQ PUSH2 0x5D4 JUMPI DUP1 PUSH4 0xCCFC7F72 EQ PUSH2 0x5EA JUMPI DUP1 PUSH4 0xCF7DEA36 EQ PUSH2 0x5FD JUMPI PUSH1 0x0 DUP1 REVERT JUMPDEST DUP1 PUSH4 0x95D89B41 GT PUSH2 0xE7 JUMPI DUP1 PUSH4 0x95D89B41 EQ PUSH2 0x51D JUMPI DUP1 PUSH4 0x9797406E EQ PUSH2 0x532 JUMPI DUP1 PUSH4 0xA457C2D7 EQ PUSH2 0x547 JUMPI DUP1 PUSH4 0xA9059CBB EQ PUSH2 0x567 JUMPI DUP1 PUSH4 0xBD82A1A3 EQ PUSH2 0x587 JUMPI PUSH1 0x0 DUP1 REVERT JUMPDEST DUP1 PUSH4 0x6503B36C EQ PUSH2 0x494 JUMPI DUP1 PUSH4 0x70A08231 EQ PUSH2 0x4B4 JUMPI DUP1 PUSH4 0x78F81DDE EQ PUSH2 0x4EA JUMPI DUP1 PUSH4 0x7C726B69 EQ PUSH2 0x4FD JUMPI PUSH1 0x0 DUP1 REVERT JUMPDEST DUP1 PUSH4 0x2E1A7D4D GT PUSH2 0x19B JUMPI DUP1 PUSH4 0x39509351 GT PUSH2 0x16A JUMPI DUP1 PUSH4 0x39509351 EQ PUSH2 0x3EF JUMPI DUP1 PUSH4 0x3EC4EBB7 EQ PUSH2 0x40F JUMPI DUP1 PUSH4 0x50A8BC99 EQ PUSH2 0x422 JUMPI DUP1 PUSH4 0x5875E899 EQ PUSH2 0x452 JUMPI DUP1 PUSH4 0x59FE18EB EQ PUSH2 0x467 JUMPI PUSH1 0x0 DUP1 REVERT JUMPDEST DUP1 PUSH4 0x2E1A7D4D EQ PUSH2 0x37B JUMPI DUP1 PUSH4 0x313CE567 EQ PUSH2 0x39B JUMPI DUP1 PUSH4 0x36FBAB3B EQ PUSH2 0x3B7 JUMPI DUP1 PUSH4 0x39500F34 EQ PUSH2 0x3D9 JUMPI PUSH1 0x0 DUP1 REVERT JUMPDEST DUP1 PUSH4 0x11A2AA13 GT PUSH2 0x1D7 JUMPI DUP1 PUSH4 0x11A2AA13 EQ PUSH2 0x30F JUMPI DUP1 PUSH4 0x12E85585 EQ PUSH2 0x331 JUMPI DUP1 PUSH4 0x18160DDD EQ PUSH2 0x346 JUMPI DUP1 PUSH4 0x23B872DD EQ PUSH2 0x35B JUMPI PUSH1 0x0 DUP1 REVERT JUMPDEST DUP1 PUSH4 0x6FDDE03 EQ PUSH2 0x24C JUMPI DUP1 PUSH4 0x95EA7B3 EQ PUSH2 0x277 JUMPI DUP1 PUSH4 0xF55415B EQ PUSH2 0x2A7 JUMPI DUP1 PUSH4 0x1092974F EQ PUSH2 0x2C9 JUMPI PUSH1 0x0 DUP1 REVERT JUMPDEST CALLDATASIZE PUSH2 0x247 JUMPI PUSH1 0x40 DUP1 MLOAD CALLER DUP2 MSTORE CALLVALUE PUSH1 0x20 DUP3 ADD MSTORE PUSH32 0x88A5966D370B9919B20F3E2C13FF65706F196A4E32CC2C12BF57088F88525874 SWAP2 ADD PUSH1 0x40 MLOAD DUP1 SWAP2 SUB SWAP1 LOG1 STOP JUMPDEST PUSH1 0x0 DUP1 REVERT JUMPDEST CALLVALUE DUP1 ISZERO PUSH2 0x258 JUMPI PUSH1 0x0 DUP1 REVERT JUMPDEST POP PUSH2 0x261 PUSH2 0x6D3 JUMP JUMPDEST PUSH1 0x40 MLOAD PUSH2 0x26E SWAP2 SWAP1 PUSH2 0x2AD8 JUMP JUMPDEST PUSH1 0x40 MLOAD DUP1 SWAP2 SUB SWAP1 RETURN JUMPDEST CALLVALUE DUP1 ISZERO PUSH2 0x283 JUMPI PUSH1 0x0 DUP1 REVERT JUMPDEST POP PUSH2 0x297 PUSH2 0x292 CALLDATASIZE PUSH1 0x4 PUSH2 0x2B0E JUMP JUMPDEST PUSH2 0x765 JUMP JUMPDEST PUSH1 0x40 MLOAD SWAP1 ISZERO ISZERO DUP2 MSTORE PUSH1 0x20 ADD PUSH2 0x26E JUMP JUMPDEST CALLVALUE DUP1 ISZERO PUSH2 0x2B3 JUMPI PUSH1 0x0 DUP1 REVERT JUMPDEST POP PUSH2 0x2C7 PUSH2 0x2C2 CALLDATASIZE PUSH1 0x4 PUSH2 0x2B38 JUMP JUMPDEST PUSH2 0x77F JUMP JUMPDEST STOP JUMPDEST CALLVALUE DUP1 ISZERO PUSH2 0x2D5 JUMPI PUSH1 0x0 DUP1 REVERT JUMPDEST POP PUSH2 0x301 PUSH2 0x2E4 CALLDATASIZE PUSH1 0x4 PUSH2 0x2B5A JUMP JUMPDEST PUSH1 0x9 PUSH1 0x20 SWAP1 DUP2 MSTORE PUSH1 0x0 SWAP3 DUP4 MSTORE PUSH1 0x40 DUP1 DUP5 KECCAK256 SWAP1 SWAP2 MSTORE SWAP1 DUP3 MSTORE SWAP1 KECCAK256 SLOAD DUP2 JUMP JUMPDEST PUSH1 0x40 MLOAD SWAP1 DUP2 MSTORE PUSH1 0x20 ADD PUSH2 0x26E JUMP JUMPDEST CALLVALUE DUP1 ISZERO PUSH2 0x31B JUMPI PUSH1 0x0 DUP1 REVERT JUMPDEST POP PUSH2 0x324 PUSH2 0x7F4 JUMP JUMPDEST PUSH1 0x40 MLOAD PUSH2 0x26E SWAP2 SWAP1 PUSH2 0x2C3E JUMP JUMPDEST CALLVALUE DUP1 ISZERO PUSH2 0x33D JUMPI PUSH1 0x0 DUP1 REVERT JUMPDEST POP PUSH1 0x6 SLOAD PUSH2 0x301 JUMP JUMPDEST CALLVALUE DUP1 ISZERO PUSH2 0x352 JUMPI PUSH1 0x0 DUP1 REVERT JUMPDEST POP PUSH1 0x2 SLOAD PUSH2 0x301 JUMP JUMPDEST CALLVALUE DUP1 ISZERO PUSH2 0x367 JUMPI PUSH1 0x0 DUP1 REVERT JUMPDEST POP PUSH2 0x297 PUSH2 0x376 CALLDATASIZE PUSH1 0x4 PUSH2 0x2CA0 JUMP JUMPDEST PUSH2 0xA3C JUMP JUMPDEST CALLVALUE DUP1 ISZERO PUSH2 0x387 JUMPI PUSH1 0x0 DUP1 REVERT JUMPDEST POP PUSH2 0x2C7 PUSH2 0x396 CALLDATASIZE PUSH1 0x4 PUSH2 0x2CDC JUMP JUMPDEST PUSH2 0xA60 JUMP JUMPDEST CALLVALUE DUP1 ISZERO PUSH2 0x3A7 JUMPI PUSH1 0x0 DUP1 REVERT JUMPDEST POP PUSH1 0x40 MLOAD PUSH1 0x12 DUP2 MSTORE PUSH1 0x20 ADD PUSH2 0x26E JUMP JUMPDEST CALLVALUE DUP1 ISZERO PUSH2 0x3C3 JUMPI PUSH1 0x0 DUP1 REVERT JUMPDEST POP PUSH2 0x3CC PUSH2 0xAC8 JUMP JUMPDEST PUSH1 0x40 MLOAD PUSH2 0x26E SWAP2 SWAP1 PUSH2 0x2CF5 JUMP JUMPDEST CALLVALUE DUP1 ISZERO PUSH2 0x3E5 JUMPI PUSH1 0x0 DUP1 REVERT JUMPDEST POP PUSH2 0x301 PUSH1 0x5 SLOAD DUP2 JUMP JUMPDEST CALLVALUE DUP1 ISZERO PUSH2 0x3FB JUMPI PUSH1 0x0 DUP1 REVERT JUMPDEST POP PUSH2 0x297 PUSH2 0x40A CALLDATASIZE PUSH1 0x4 PUSH2 0x2B0E JUMP JUMPDEST PUSH2 0xD9A JUMP JUMPDEST PUSH2 0x2C7 PUSH2 0x41D CALLDATASIZE PUSH1 0x4 PUSH2 0x2B38 JUMP JUMPDEST PUSH2 0xDBC JUMP JUMPDEST CALLVALUE DUP1 ISZERO PUSH2 0x42E JUMPI PUSH1 0x0 DUP1 REVERT JUMPDEST POP PUSH2 0x301 PUSH2 0x43D CALLDATASIZE PUSH1 0x4 PUSH2 0x2CDC JUMP JUMPDEST PUSH1 0x0 SWAP1 DUP2 MSTORE PUSH1 0x8 PUSH1 0x20 MSTORE PUSH1 0x40 SWAP1 KECCAK256 PUSH1 0x4 ADD SLOAD SWAP1 JUMP JUMPDEST CALLVALUE DUP1 ISZERO PUSH2 0x45E JUMPI PUSH1 0x0 DUP1 REVERT JUMPDEST POP PUSH2 0x324 PUSH2 0x11A0 JUMP JUMPDEST CALLVALUE DUP1 ISZERO PUSH2 0x473 JUMPI PUSH1 0x0 DUP1 REVERT JUMPDEST POP PUSH2 0x487 PUSH2 0x482 CALLDATASIZE PUSH1 0x4 PUSH2 0x2CDC JUMP JUMPDEST PUSH2 0x13DF JUMP JUMPDEST PUSH1 0x40 MLOAD PUSH2 0x26E SWAP2 SWAP1 PUSH2 0x2D39 JUMP JUMPDEST CALLVALUE DUP1 ISZERO PUSH2 0x4A0 JUMPI PUSH1 0x0 DUP1 REVERT JUMPDEST POP PUSH2 0x2C7 PUSH2 0x4AF CALLDATASIZE PUSH1 0x4 PUSH2 0x2B38 JUMP JUMPDEST PUSH2 0x1576 JUMP JUMPDEST CALLVALUE DUP1 ISZERO PUSH2 0x4C0 JUMPI PUSH1 0x0 DUP1 REVERT JUMPDEST POP PUSH2 0x301 PUSH2 0x4CF CALLDATASIZE PUSH1 0x4 PUSH2 0x2D4C JUMP JUMPDEST PUSH1 0x1 PUSH1 0x1 PUSH1 0xA0 SHL SUB AND PUSH1 0x0 SWAP1 DUP2 MSTORE PUSH1 0x20 DUP2 SWAP1 MSTORE PUSH1 0x40 SWAP1 KECCAK256 SLOAD SWAP1 JUMP JUMPDEST PUSH2 0x2C7 PUSH2 0x4F8 CALLDATASIZE PUSH1 0x4 PUSH2 0x2D67 JUMP JUMPDEST PUSH2 0x15E6 JUMP JUMPDEST CALLVALUE DUP1 ISZERO PUSH2 0x509 JUMPI PUSH1 0x0 DUP1 REVERT JUMPDEST POP PUSH2 0x2C7 PUSH2 0x518 CALLDATASIZE PUSH1 0x4 PUSH2 0x2CDC JUMP JUMPDEST PUSH2 0x1913 JUMP JUMPDEST CALLVALUE DUP1 ISZERO PUSH2 0x529 JUMPI PUSH1 0x0 DUP1 REVERT JUMPDEST POP PUSH2 0x261 PUSH2 0x1942 JUMP JUMPDEST CALLVALUE DUP1 ISZERO PUSH2 0x53E JUMPI PUSH1 0x0 DUP1 REVERT JUMPDEST POP PUSH2 0x301 PUSH2 0x1951 JUMP JUMPDEST CALLVALUE DUP1 ISZERO PUSH2 0x553 JUMPI PUSH1 0x0 DUP1 REVERT JUMPDEST POP PUSH2 0x297 PUSH2 0x562 CALLDATASIZE PUSH1 0x4 PUSH2 0x2B0E JUMP JUMPDEST PUSH2 0x1983 JUMP JUMPDEST CALLVALUE DUP1 ISZERO PUSH2 0x573 JUMPI PUSH1 0x0 DUP1 REVERT JUMPDEST POP PUSH2 0x297 PUSH2 0x582 CALLDATASIZE PUSH1 0x4 PUSH2 0x2B0E JUMP JUMPDEST PUSH2 0x19FE JUMP JUMPDEST CALLVALUE DUP1 ISZERO PUSH2 0x593 JUMPI PUSH1 0x0 DUP1 REVERT JUMPDEST POP PUSH2 0x324 PUSH2 0x1A0C JUMP JUMPDEST CALLVALUE DUP1 ISZERO PUSH2 0x5A8 JUMPI PUSH1 0x0 DUP1 REVERT JUMPDEST POP PUSH1 0x7 SLOAD PUSH2 0x5BC SWAP1 PUSH1 0x1 PUSH1 0x1 PUSH1 0xA0 SHL SUB AND DUP2 JUMP JUMPDEST PUSH1 0x40 MLOAD PUSH1 0x1 PUSH1 0x1 PUSH1 0xA0 SHL SUB SWAP1 SWAP2 AND DUP2 MSTORE PUSH1 0x20 ADD PUSH2 0x26E JUMP JUMPDEST CALLVALUE DUP1 ISZERO PUSH2 0x5E0 JUMPI PUSH1 0x0 DUP1 REVERT JUMPDEST POP PUSH2 0x301 PUSH1 0x6 SLOAD DUP2 JUMP JUMPDEST PUSH2 0x2C7 PUSH2 0x5F8 CALLDATASIZE PUSH1 0x4 PUSH2 0x2DBA JUMP JUMPDEST PUSH2 0x1C5D JUMP JUMPDEST CALLVALUE DUP1 ISZERO PUSH2 0x609 JUMPI PUSH1 0x0 DUP1 REVERT JUMPDEST POP PUSH2 0x5BC PUSH2 0x618 CALLDATASIZE PUSH1 0x4 PUSH2 0x2B38 JUMP JUMPDEST PUSH2 0x1F0E JUMP JUMPDEST PUSH2 0x2C7 PUSH2 0x1F46 JUMP JUMPDEST CALLVALUE DUP1 ISZERO PUSH2 0x631 JUMPI PUSH1 0x0 DUP1 REVERT JUMPDEST POP PUSH2 0x301 PUSH2 0x640 CALLDATASIZE PUSH1 0x4 PUSH2 0x2B5A JUMP JUMPDEST PUSH1 0x0 SWAP2 DUP3 MSTORE PUSH1 0x9 PUSH1 0x20 SWAP1 DUP2 MSTORE PUSH1 0x40 DUP1 DUP5 KECCAK256 PUSH1 0x1 PUSH1 0x1 PUSH1 0xA0 SHL SUB SWAP4 SWAP1 SWAP4 AND DUP5 MSTORE SWAP2 SWAP1 MSTORE SWAP1 KECCAK256 SLOAD SWAP1 JUMP JUMPDEST PUSH2 0x2C7 PUSH2 0x676 CALLDATASIZE PUSH1 0x4 PUSH2 0x2B38 JUMP JUMPDEST PUSH2 0x1F72 JUMP JUMPDEST CALLVALUE DUP1 ISZERO PUSH2 0x687 JUMPI PUSH1 0x0 DUP1 REVERT JUMPDEST POP PUSH2 0x301 PUSH2 0x696 CALLDATASIZE PUSH1 0x4 PUSH2 0x2E7E JUMP JUMPDEST PUSH2 0x235A JUMP JUMPDEST CALLVALUE DUP1 ISZERO PUSH2 0x6A7 JUMPI PUSH1 0x0 DUP1 REVERT JUMPDEST POP PUSH2 0x6BB PUSH2 0x6B6 CALLDATASIZE PUSH1 0x4 PUSH2 0x2CDC JUMP JUMPDEST PUSH2 0x2385 JUMP JUMPDEST PUSH1 0x40 MLOAD PUSH2 0x26E SWAP13 SWAP12 SWAP11 SWAP10 SWAP9 SWAP8 SWAP7 SWAP6 SWAP5 SWAP4 SWAP3 SWAP2 SWAP1 PUSH2 0x2EA8 JUMP JUMPDEST PUSH1 0x60 PUSH1 0x3 DUP1 SLOAD PUSH2 0x6E2 SWAP1 PUSH2 0x2F21 JUMP JUMPDEST DUP1 PUSH1 0x1F ADD PUSH1 0x20 DUP1 SWAP2 DIV MUL PUSH1 0x20 ADD PUSH1 0x40 MLOAD SWAP1 DUP2 ADD PUSH1 0x40 MSTORE DUP1 SWAP3 SWAP2 SWAP1 DUP2 DUP2 MSTORE PUSH1 0x20 ADD DUP3 DUP1 SLOAD PUSH2 0x70E SWAP1 PUSH2 0x2F21 JUMP JUMPDEST DUP1 ISZERO PUSH2 0x75B JUMPI DUP1 PUSH1 0x1F LT PUSH2 0x730 JUMPI PUSH2 0x100 DUP1 DUP4 SLOAD DIV MUL DUP4 MSTORE SWAP2 PUSH1 0x20 ADD SWAP2 PUSH2 0x75B JUMP JUMPDEST DUP3 ADD SWAP2 SWAP1 PUSH1 0x0 MSTORE PUSH1 0x20 PUSH1 0x0 KECCAK256 SWAP1 JUMPDEST DUP2 SLOAD DUP2 MSTORE SWAP1 PUSH1 0x1 ADD SWAP1 PUSH1 0x20 ADD DUP1 DUP4 GT PUSH2 0x73E JUMPI DUP3 SWAP1 SUB PUSH1 0x1F AND DUP3 ADD SWAP2 JUMPDEST POP POP POP POP POP SWAP1 POP SWAP1 JUMP JUMPDEST PUSH1 0x0 CALLER PUSH2 0x773 DUP2 DUP6 DUP6 PUSH2 0x2481 JUMP JUMPDEST PUSH1 0x1 SWAP2 POP POP JUMPDEST SWAP3 SWAP2 POP POP JUMP JUMPDEST PUSH1 0x0 DUP3 DUP2 MSTORE PUSH1 0x8 PUSH1 0x20 MSTORE PUSH1 0x40 SWAP1 KECCAK256 PUSH1 0x1 DUP2 ADD SLOAD PUSH1 0x1 PUSH1 0x1 PUSH1 0xA0 SHL SUB AND CALLER EQ PUSH2 0x7DE JUMPI PUSH1 0x40 MLOAD PUSH3 0x461BCD PUSH1 0xE5 SHL DUP2 MSTORE PUSH1 0x20 PUSH1 0x4 DUP3 ADD MSTORE PUSH1 0xD PUSH1 0x24 DUP3 ADD MSTORE PUSH13 0x2737BA103A34329037BBB732B9 PUSH1 0x99 SHL PUSH1 0x44 DUP3 ADD MSTORE PUSH1 0x64 ADD JUMPDEST PUSH1 0x40 MLOAD DUP1 SWAP2 SUB SWAP1 REVERT JUMPDEST PUSH1 0x5 DUP2 ADD DUP1 SLOAD PUSH1 0xFF NOT AND PUSH1 0x1 OR SWAP1 SSTORE PUSH1 0x6 ADD SSTORE POP JUMP JUMPDEST PUSH1 0x60 PUSH1 0x0 DUP1 JUMPDEST PUSH1 0x5 SLOAD DUP2 LT ISZERO PUSH2 0x83E JUMPI PUSH1 0x0 DUP2 DUP2 MSTORE PUSH1 0x8 PUSH1 0x20 MSTORE PUSH1 0x40 SWAP1 KECCAK256 PUSH1 0x7 ADD SLOAD PUSH1 0xFF AND ISZERO PUSH2 0x82C JUMPI DUP2 PUSH2 0x828 DUP2 PUSH2 0x2F71 JUMP JUMPDEST SWAP3 POP POP JUMPDEST DUP1 PUSH2 0x836 DUP2 PUSH2 0x2F71 JUMP JUMPDEST SWAP2 POP POP PUSH2 0x7FA JUMP JUMPDEST POP PUSH1 0x0 DUP2 PUSH8 0xFFFFFFFFFFFFFFFF DUP2 GT ISZERO PUSH2 0x85A JUMPI PUSH2 0x85A PUSH2 0x2DA4 JUMP JUMPDEST PUSH1 0x40 MLOAD SWAP1 DUP1 DUP3 MSTORE DUP1 PUSH1 0x20 MUL PUSH1 0x20 ADD DUP3 ADD PUSH1 0x40 MSTORE DUP1 ISZERO PUSH2 0x893 JUMPI DUP2 PUSH1 0x20 ADD JUMPDEST PUSH2 0x880 PUSH2 0x2A24 JUMP JUMPDEST DUP2 MSTORE PUSH1 0x20 ADD SWAP1 PUSH1 0x1 SWAP1 SUB SWAP1 DUP2 PUSH2 0x878 JUMPI SWAP1 POP JUMPDEST POP SWAP1 POP PUSH1 0x0 DUP1 JUMPDEST PUSH1 0x5 SLOAD DUP2 LT ISZERO PUSH2 0xA33 JUMPI PUSH1 0x0 DUP2 DUP2 MSTORE PUSH1 0x8 PUSH1 0x20 MSTORE PUSH1 0x40 SWAP1 KECCAK256 PUSH1 0x7 ADD SLOAD PUSH1 0xFF AND ISZERO PUSH2 0xA21 JUMPI PUSH1 0x0 DUP2 DUP2 MSTORE PUSH1 0x8 PUSH1 0x20 DUP2 DUP2 MSTORE PUSH1 0x40 SWAP3 DUP4 SWAP1 KECCAK256 DUP4 MLOAD PUSH2 0x180 DUP2 ADD DUP6 MSTORE DUP2 SLOAD DUP2 MSTORE PUSH1 0x1 DUP3 ADD SLOAD PUSH1 0x1 PUSH1 0x1 PUSH1 0xA0 SHL SUB AND SWAP3 DUP2 ADD SWAP3 SWAP1 SWAP3 MSTORE PUSH1 0x2 DUP2 ADD SLOAD SWAP4 DUP3 ADD SWAP4 SWAP1 SWAP4 MSTORE PUSH1 0x3 DUP4 ADD SLOAD PUSH1 0x60 DUP3 ADD MSTORE PUSH1 0x4 DUP4 ADD SLOAD PUSH1 0x80 DUP3 ADD MSTORE PUSH1 0x5 DUP4 ADD SLOAD PUSH1 0xFF SWAP1 DUP2 AND ISZERO ISZERO PUSH1 0xA0 DUP4 ADD MSTORE PUSH1 0x6 DUP5 ADD SLOAD PUSH1 0xC0 DUP4 ADD MSTORE PUSH1 0x7 DUP5 ADD SLOAD AND ISZERO ISZERO PUSH1 0xE0 DUP3 ADD MSTORE SWAP1 DUP3 ADD SLOAD PUSH2 0x100 DUP3 ADD MSTORE PUSH1 0x9 DUP3 ADD SLOAD PUSH2 0x120 DUP3 ADD MSTORE PUSH1 0xA DUP3 ADD SLOAD PUSH2 0x140 DUP3 ADD MSTORE PUSH1 0xB DUP3 ADD DUP1 SLOAD SWAP2 SWAP3 SWAP2 PUSH2 0x160 DUP5 ADD SWAP2 SWAP1 PUSH2 0x973 SWAP1 PUSH2 0x2F21 JUMP JUMPDEST DUP1 PUSH1 0x1F ADD PUSH1 0x20 DUP1 SWAP2 DIV MUL PUSH1 0x20 ADD PUSH1 0x40 MLOAD SWAP1 DUP2 ADD PUSH1 0x40 MSTORE DUP1 SWAP3 SWAP2 SWAP1 DUP2 DUP2 MSTORE PUSH1 0x20 ADD DUP3 DUP1 SLOAD PUSH2 0x99F SWAP1 PUSH2 0x2F21 JUMP JUMPDEST DUP1 ISZERO PUSH2 0x9EC JUMPI DUP1 PUSH1 0x1F LT PUSH2 0x9C1 JUMPI PUSH2 0x100 DUP1 DUP4 SLOAD DIV MUL DUP4 MSTORE SWAP2 PUSH1 0x20 ADD SWAP2 PUSH2 0x9EC JUMP JUMPDEST DUP3 ADD SWAP2 SWAP1 PUSH1 0x0 MSTORE PUSH1 0x20 PUSH1 0x0 KECCAK256 SWAP1 JUMPDEST DUP2 SLOAD DUP2 MSTORE SWAP1 PUSH1 0x1 ADD SWAP1 PUSH1 0x20 ADD DUP1 DUP4 GT PUSH2 0x9CF JUMPI DUP3 SWAP1 SUB PUSH1 0x1F AND DUP3 ADD SWAP2 JUMPDEST POP POP POP POP POP DUP2 MSTORE POP POP DUP4 DUP4 DUP2 MLOAD DUP2 LT PUSH2 0xA07 JUMPI PUSH2 0xA07 PUSH2 0x2F8A JUMP JUMPDEST PUSH1 0x20 MUL PUSH1 0x20 ADD ADD DUP2 SWAP1 MSTORE POP DUP2 DUP1 PUSH2 0xA1D SWAP1 PUSH2 0x2F71 JUMP JUMPDEST SWAP3 POP POP JUMPDEST DUP1 PUSH2 0xA2B DUP2 PUSH2 0x2F71 JUMP JUMPDEST SWAP2 POP POP PUSH2 0x89A JUMP JUMPDEST POP SWAP1 SWAP4 SWAP3 POP POP POP JUMP JUMPDEST PUSH1 0x0 CALLER PUSH2 0xA4A DUP6 DUP3 DUP6 PUSH2 0x25A6 JUMP JUMPDEST PUSH2 0xA55 DUP6 DUP6 DUP6 PUSH2 0x2620 JUMP JUMPDEST POP PUSH1 0x1 SWAP5 SWAP4 POP POP POP POP JUMP JUMPDEST PUSH1 0x7 SLOAD PUSH1 0x1 PUSH1 0x1 PUSH1 0xA0 SHL SUB AND CALLER EQ PUSH2 0xA8A JUMPI PUSH1 0x40 MLOAD PUSH3 0x461BCD PUSH1 0xE5 SHL DUP2 MSTORE PUSH1 0x4 ADD PUSH2 0x7D5 SWAP1 PUSH2 0x2FA0 JUMP JUMPDEST PUSH1 0x7 SLOAD PUSH1 0x40 MLOAD PUSH1 0x1 PUSH1 0x1 PUSH1 0xA0 SHL SUB SWAP1 SWAP2 AND SWAP1 DUP3 ISZERO PUSH2 0x8FC MUL SWAP1 DUP4 SWAP1 PUSH1 0x0 DUP2 DUP2 DUP2 DUP6 DUP9 DUP9 CALL SWAP4 POP POP POP POP ISZERO DUP1 ISZERO PUSH2 0xAC4 JUMPI RETURNDATASIZE PUSH1 0x0 DUP1 RETURNDATACOPY RETURNDATASIZE PUSH1 0x0 REVERT JUMPDEST POP POP JUMP JUMPDEST PUSH1 0x60 PUSH1 0x0 DUP1 JUMPDEST PUSH1 0x5 SLOAD DUP2 LT ISZERO PUSH2 0xB17 JUMPI PUSH1 0x0 DUP2 DUP2 MSTORE PUSH1 0x9 PUSH1 0x20 SWAP1 DUP2 MSTORE PUSH1 0x40 DUP1 DUP4 KECCAK256 CALLER DUP5 MSTORE SWAP1 SWAP2 MSTORE SWAP1 KECCAK256 SLOAD ISZERO PUSH2 0xB05 JUMPI DUP2 PUSH2 0xB01 DUP2 PUSH2 0x2F71 JUMP JUMPDEST SWAP3 POP POP JUMPDEST DUP1 PUSH2 0xB0F DUP2 PUSH2 0x2F71 JUMP JUMPDEST SWAP2 POP POP PUSH2 0xACE JUMP JUMPDEST POP PUSH1 0x0 DUP2 PUSH8 0xFFFFFFFFFFFFFFFF DUP2 GT ISZERO PUSH2 0xB33 JUMPI PUSH2 0xB33 PUSH2 0x2DA4 JUMP JUMPDEST PUSH1 0x40 MLOAD SWAP1 DUP1 DUP3 MSTORE DUP1 PUSH1 0x20 MUL PUSH1 0x20 ADD DUP3 ADD PUSH1 0x40 MSTORE DUP1 ISZERO PUSH2 0xB6C JUMPI DUP2 PUSH1 0x20 ADD JUMPDEST PUSH2 0xB59 PUSH2 0x2A24 JUMP JUMPDEST DUP2 MSTORE PUSH1 0x20 ADD SWAP1 PUSH1 0x1 SWAP1 SUB SWAP1 DUP2 PUSH2 0xB51 JUMPI SWAP1 POP JUMPDEST POP SWAP1 POP PUSH1 0x0 DUP3 PUSH8 0xFFFFFFFFFFFFFFFF DUP2 GT ISZERO PUSH2 0xB8A JUMPI PUSH2 0xB8A PUSH2 0x2DA4 JUMP JUMPDEST PUSH1 0x40 MLOAD SWAP1 DUP1 DUP3 MSTORE DUP1 PUSH1 0x20 MUL PUSH1 0x20 ADD DUP3 ADD PUSH1 0x40 MSTORE DUP1 ISZERO PUSH2 0xBB3 JUMPI DUP2 PUSH1 0x20 ADD PUSH1 0x20 DUP3 MUL DUP1 CALLDATASIZE DUP4 CALLDATACOPY ADD SWAP1 POP JUMPDEST POP SWAP1 POP PUSH1 0x0 DUP1 JUMPDEST PUSH1 0x5 SLOAD DUP2 LT ISZERO PUSH2 0xD90 JUMPI PUSH1 0x0 DUP2 DUP2 MSTORE PUSH1 0x9 PUSH1 0x20 SWAP1 DUP2 MSTORE PUSH1 0x40 DUP1 DUP4 KECCAK256 CALLER DUP5 MSTORE SWAP1 SWAP2 MSTORE SWAP1 KECCAK256 SLOAD ISZERO PUSH2 0xD7E JUMPI PUSH1 0x0 DUP2 DUP2 MSTORE PUSH1 0x8 PUSH1 0x20 DUP2 DUP2 MSTORE PUSH1 0x40 SWAP3 DUP4 SWAP1 KECCAK256 DUP4 MLOAD PUSH2 0x180 DUP2 ADD DUP6 MSTORE DUP2 SLOAD DUP2 MSTORE PUSH1 0x1 DUP3 ADD SLOAD PUSH1 0x1 PUSH1 0x1 PUSH1 0xA0 SHL SUB AND SWAP3 DUP2 ADD SWAP3 SWAP1 SWAP3 MSTORE PUSH1 0x2 DUP2 ADD SLOAD SWAP4 DUP3 ADD SWAP4 SWAP1 SWAP4 MSTORE PUSH1 0x3 DUP4 ADD SLOAD PUSH1 0x60 DUP3 ADD MSTORE PUSH1 0x4 DUP4 ADD SLOAD PUSH1 0x80 DUP3 ADD MSTORE PUSH1 0x5 DUP4 ADD SLOAD PUSH1 0xFF SWAP1 DUP2 AND ISZERO ISZERO PUSH1 0xA0 DUP4 ADD MSTORE PUSH1 0x6 DUP5 ADD SLOAD PUSH1 0xC0 DUP4 ADD MSTORE PUSH1 0x7 DUP5 ADD SLOAD AND ISZERO ISZERO PUSH1 0xE0 DUP3 ADD MSTORE SWAP1 DUP3 ADD SLOAD PUSH2 0x100 DUP3 ADD MSTORE PUSH1 0x9 DUP3 ADD SLOAD PUSH2 0x120 DUP3 ADD MSTORE PUSH1 0xA DUP3 ADD SLOAD PUSH2 0x140 DUP3 ADD MSTORE PUSH1 0xB DUP3 ADD DUP1 SLOAD SWAP2 SWAP3 SWAP2 PUSH2 0x160 DUP5 ADD SWAP2 SWAP1 PUSH2 0xC98 SWAP1 PUSH2 0x2F21 JUMP JUMPDEST DUP1 PUSH1 0x1F ADD PUSH1 0x20 DUP1 SWAP2 DIV MUL PUSH1 0x20 ADD PUSH1 0x40 MLOAD SWAP1 DUP2 ADD PUSH1 0x40 MSTORE DUP1 SWAP3 SWAP2 SWAP1 DUP2 DUP2 MSTORE PUSH1 0x20 ADD DUP3 DUP1 SLOAD PUSH2 0xCC4 SWAP1 PUSH2 0x2F21 JUMP JUMPDEST DUP1 ISZERO PUSH2 0xD11 JUMPI DUP1 PUSH1 0x1F LT PUSH2 0xCE6 JUMPI PUSH2 0x100 DUP1 DUP4 SLOAD DIV MUL DUP4 MSTORE SWAP2 PUSH1 0x20 ADD SWAP2 PUSH2 0xD11 JUMP JUMPDEST DUP3 ADD SWAP2 SWAP1 PUSH1 0x0 MSTORE PUSH1 0x20 PUSH1 0x0 KECCAK256 SWAP1 JUMPDEST DUP2 SLOAD DUP2 MSTORE SWAP1 PUSH1 0x1 ADD SWAP1 PUSH1 0x20 ADD DUP1 DUP4 GT PUSH2 0xCF4 JUMPI DUP3 SWAP1 SUB PUSH1 0x1F AND DUP3 ADD SWAP2 JUMPDEST POP POP POP POP POP DUP2 MSTORE POP POP DUP5 DUP4 DUP2 MLOAD DUP2 LT PUSH2 0xD2C JUMPI PUSH2 0xD2C PUSH2 0x2F8A JUMP JUMPDEST PUSH1 0x20 SWAP1 DUP2 MUL SWAP2 SWAP1 SWAP2 ADD DUP2 ADD SWAP2 SWAP1 SWAP2 MSTORE PUSH1 0x0 DUP3 DUP2 MSTORE PUSH1 0x9 DUP3 MSTORE PUSH1 0x40 DUP1 DUP3 KECCAK256 CALLER DUP4 MSTORE SWAP1 SWAP3 MSTORE KECCAK256 SLOAD DUP4 MLOAD DUP5 SWAP1 DUP5 SWAP1 DUP2 LT PUSH2 0xD65 JUMPI PUSH2 0xD65 PUSH2 0x2F8A JUMP JUMPDEST PUSH1 0x20 SWAP1 DUP2 MUL SWAP2 SWAP1 SWAP2 ADD ADD MSTORE DUP2 PUSH2 0xD7A DUP2 PUSH2 0x2F71 JUMP JUMPDEST SWAP3 POP POP JUMPDEST DUP1 PUSH2 0xD88 DUP2 PUSH2 0x2F71 JUMP JUMPDEST SWAP2 POP POP PUSH2 0xBBA JUMP JUMPDEST POP SWAP1 SWAP5 SWAP4 POP POP POP POP JUMP JUMPDEST PUSH1 0x0 CALLER PUSH2 0x773 DUP2 DUP6 DUP6 PUSH2 0xDAD DUP4 DUP4 PUSH2 0x235A JUMP JUMPDEST PUSH2 0xDB7 SWAP2 SWAP1 PUSH2 0x2FC3 JUMP JUMPDEST PUSH2 0x2481 JUMP JUMPDEST PUSH2 0xDF1 PUSH1 0x40 MLOAD DUP1 PUSH1 0x40 ADD PUSH1 0x40 MSTORE DUP1 PUSH1 0x13 DUP2 MSTORE PUSH1 0x20 ADD PUSH19 0x22AA24102130B630B731B2902132B337B9329 PUSH1 0x6D SHL DUP2 MSTORE POP SELFBALANCE PUSH2 0x27C4 JUMP JUMPDEST PUSH1 0x0 DUP3 DUP2 MSTORE PUSH1 0x8 PUSH1 0x20 MSTORE PUSH1 0x40 SWAP1 KECCAK256 PUSH1 0x7 DUP2 ADD SLOAD PUSH1 0xFF AND PUSH2 0xE4B JUMPI PUSH1 0x40 MLOAD PUSH3 0x461BCD PUSH1 0xE5 SHL DUP2 MSTORE PUSH1 0x20 PUSH1 0x4 DUP3 ADD MSTORE PUSH1 0x15 PUSH1 0x24 DUP3 ADD MSTORE PUSH21 0x141C9BDC195C9D1E481B9BDD08199BDC881C995B9D PUSH1 0x5A SHL PUSH1 0x44 DUP3 ADD MSTORE PUSH1 0x64 ADD PUSH2 0x7D5 JUMP JUMPDEST PUSH2 0xE8E PUSH1 0x40 MLOAD DUP1 PUSH1 0x40 ADD PUSH1 0x40 MSTORE DUP1 PUSH1 0x17 DUP2 MSTORE PUSH1 0x20 ADD PUSH32 0x70726F70657274792E72656E746564556E74696C206973000000000000000000 DUP2 MSTORE POP DUP3 PUSH1 0x9 ADD SLOAD PUSH2 0x27C4 JUMP JUMPDEST PUSH2 0xEC3 PUSH1 0x40 MLOAD DUP1 PUSH1 0x40 ADD PUSH1 0x40 MSTORE DUP1 PUSH1 0x13 DUP2 MSTORE PUSH1 0x20 ADD PUSH19 0x313637B1B5973A34B6B2B9BA30B6B81034B99 PUSH1 0x6D SHL DUP2 MSTORE POP TIMESTAMP PUSH2 0x27C4 JUMP JUMPDEST TIMESTAMP DUP2 PUSH1 0x9 ADD SLOAD GT ISZERO PUSH2 0xF17 JUMPI PUSH1 0x40 MLOAD PUSH3 0x461BCD PUSH1 0xE5 SHL DUP2 MSTORE PUSH1 0x20 PUSH1 0x4 DUP3 ADD MSTORE PUSH1 0x17 PUSH1 0x24 DUP3 ADD MSTORE PUSH32 0x50726F706572747920616C72656164792072656E746564000000000000000000 PUSH1 0x44 DUP3 ADD MSTORE PUSH1 0x64 ADD PUSH2 0x7D5 JUMP JUMPDEST PUSH1 0x0 DUP3 DUP3 PUSH1 0x8 ADD SLOAD PUSH2 0xF29 SWAP2 SWAP1 PUSH2 0x2FD6 JUMP JUMPDEST SWAP1 POP DUP1 CALLVALUE EQ PUSH2 0xF4A JUMPI PUSH1 0x40 MLOAD PUSH3 0x461BCD PUSH1 0xE5 SHL DUP2 MSTORE PUSH1 0x4 ADD PUSH2 0x7D5 SWAP1 PUSH2 0x2FED JUMP JUMPDEST PUSH1 0x0 PUSH2 0x3E8 PUSH2 0xF5B CALLVALUE PUSH2 0x3E3 PUSH2 0x2FD6 JUMP JUMPDEST PUSH2 0xF65 SWAP2 SWAP1 PUSH2 0x3016 JUMP JUMPDEST SWAP1 POP PUSH1 0x0 PUSH2 0xF73 DUP3 CALLVALUE PUSH2 0x3038 JUMP JUMPDEST SWAP1 POP PUSH2 0xFAA PUSH1 0x40 MLOAD DUP1 PUSH1 0x40 ADD PUSH1 0x40 MSTORE DUP1 PUSH1 0x13 DUP2 MSTORE PUSH1 0x20 ADD PUSH19 0x2A3432903732BA2932B73A21B7B9BA1034B99 PUSH1 0x6D SHL DUP2 MSTORE POP DUP4 PUSH2 0x27C4 JUMP JUMPDEST PUSH2 0xFD7 PUSH1 0x40 MLOAD DUP1 PUSH1 0x40 ADD PUSH1 0x40 MSTORE DUP1 PUSH1 0xB DUP2 MSTORE PUSH1 0x20 ADD PUSH11 0x2A3432903332B29034B99 PUSH1 0xAD SHL DUP2 MSTORE POP DUP3 PUSH2 0x27C4 JUMP JUMPDEST PUSH2 0xFE4 DUP6 PUSH3 0x15180 PUSH2 0x2FD6 JUMP JUMPDEST PUSH2 0xFEE SWAP1 TIMESTAMP PUSH2 0x2FC3 JUMP JUMPDEST DUP5 PUSH1 0x9 ADD DUP2 SWAP1 SSTORE POP DUP5 DUP5 PUSH1 0xA ADD PUSH1 0x0 DUP3 DUP3 SLOAD PUSH2 0x100A SWAP2 SWAP1 PUSH2 0x2FC3 JUMP JUMPDEST SWAP1 SWAP2 SSTORE POP POP PUSH1 0x3 DUP5 ADD SLOAD PUSH1 0x0 SWAP1 PUSH2 0x1021 SWAP1 DUP5 PUSH2 0x3016 JUMP JUMPDEST SWAP1 POP PUSH2 0x1062 PUSH1 0x40 MLOAD DUP1 PUSH1 0x40 ADD PUSH1 0x40 MSTORE DUP1 PUSH1 0x17 DUP2 MSTORE PUSH1 0x20 ADD PUSH32 0x5468652072656E745065724672616374696F6E20697320000000000000000000 DUP2 MSTORE POP DUP3 PUSH2 0x27C4 JUMP JUMPDEST PUSH1 0x0 JUMPDEST PUSH1 0x0 DUP9 DUP2 MSTORE PUSH1 0xA PUSH1 0x20 MSTORE PUSH1 0x40 SWAP1 KECCAK256 SLOAD DUP2 LT ISZERO PUSH2 0x1119 JUMPI PUSH1 0x0 DUP9 DUP2 MSTORE PUSH1 0xA PUSH1 0x20 MSTORE PUSH1 0x40 DUP2 KECCAK256 DUP1 SLOAD DUP4 SWAP1 DUP2 LT PUSH2 0x109B JUMPI PUSH2 0x109B PUSH2 0x2F8A JUMP JUMPDEST PUSH1 0x0 SWAP2 DUP3 MSTORE PUSH1 0x20 DUP1 DUP4 KECCAK256 SWAP1 SWAP2 ADD SLOAD DUP12 DUP4 MSTORE PUSH1 0x9 DUP3 MSTORE PUSH1 0x40 DUP1 DUP5 KECCAK256 PUSH1 0x1 PUSH1 0x1 PUSH1 0xA0 SHL SUB SWAP1 SWAP3 AND DUP1 DUP6 MSTORE SWAP2 SWAP1 SWAP3 MSTORE SWAP2 KECCAK256 SLOAD SWAP1 SWAP2 POP DUP2 PUSH2 0x8FC PUSH2 0x10DB DUP4 DUP8 PUSH2 0x2FD6 JUMP JUMPDEST PUSH1 0x40 MLOAD DUP2 ISZERO SWAP1 SWAP3 MUL SWAP2 PUSH1 0x0 DUP2 DUP2 DUP2 DUP6 DUP9 DUP9 CALL SWAP4 POP POP POP POP ISZERO DUP1 ISZERO PUSH2 0x1103 JUMPI RETURNDATASIZE PUSH1 0x0 DUP1 RETURNDATACOPY RETURNDATASIZE PUSH1 0x0 REVERT JUMPDEST POP POP POP DUP1 DUP1 PUSH2 0x1111 SWAP1 PUSH2 0x2F71 JUMP JUMPDEST SWAP2 POP POP PUSH2 0x1065 JUMP JUMPDEST POP PUSH1 0x8 DUP6 ADD SLOAD PUSH1 0x40 DUP1 MLOAD DUP10 DUP2 MSTORE CALLER PUSH1 0x20 DUP3 ADD MSTORE DUP1 DUP3 ADD SWAP3 SWAP1 SWAP3 MSTORE PUSH1 0x60 DUP3 ADD DUP9 SWAP1 MSTORE MLOAD PUSH32 0x83F582C38246E10118FCA894A9512CB07F6C10AEC67F1808C8DDD5DB8810E5A9 SWAP2 DUP2 SWAP1 SUB PUSH1 0x80 ADD SWAP1 LOG1 PUSH2 0x1197 PUSH1 0x40 MLOAD DUP1 PUSH1 0x40 ADD PUSH1 0x40 MSTORE DUP1 PUSH1 0x10 DUP2 MSTORE PUSH1 0x20 ADD PUSH16 0x22AA24102130B630B731B29022A7221 PUSH1 0x85 SHL DUP2 MSTORE POP SELFBALANCE PUSH2 0x27C4 JUMP JUMPDEST POP POP POP POP POP POP POP JUMP JUMPDEST PUSH1 0x60 PUSH1 0x0 DUP1 JUMPDEST PUSH1 0x5 SLOAD DUP2 LT ISZERO PUSH2 0x11EA JUMPI PUSH1 0x0 DUP2 DUP2 MSTORE PUSH1 0x8 PUSH1 0x20 MSTORE PUSH1 0x40 SWAP1 KECCAK256 PUSH1 0x5 ADD SLOAD PUSH1 0xFF AND ISZERO PUSH2 0x11D8 JUMPI DUP2 PUSH2 0x11D4 DUP2 PUSH2 0x2F71 JUMP JUMPDEST SWAP3 POP POP JUMPDEST DUP1 PUSH2 0x11E2 DUP2 PUSH2 0x2F71 JUMP JUMPDEST SWAP2 POP POP PUSH2 0x11A6 JUMP JUMPDEST POP PUSH1 0x0 DUP2 PUSH8 0xFFFFFFFFFFFFFFFF DUP2 GT ISZERO PUSH2 0x1206 JUMPI PUSH2 0x1206 PUSH2 0x2DA4 JUMP JUMPDEST PUSH1 0x40 MLOAD SWAP1 DUP1 DUP3 MSTORE DUP1 PUSH1 0x20 MUL PUSH1 0x20 ADD DUP3 ADD PUSH1 0x40 MSTORE DUP1 ISZERO PUSH2 0x123F JUMPI DUP2 PUSH1 0x20 ADD JUMPDEST PUSH2 0x122C PUSH2 0x2A24 JUMP JUMPDEST DUP2 MSTORE PUSH1 0x20 ADD SWAP1 PUSH1 0x1 SWAP1 SUB SWAP1 DUP2 PUSH2 0x1224 JUMPI SWAP1 POP JUMPDEST POP SWAP1 POP PUSH1 0x0 DUP1 JUMPDEST PUSH1 0x5 SLOAD DUP2 LT ISZERO PUSH2 0xA33 JUMPI PUSH1 0x0 DUP2 DUP2 MSTORE PUSH1 0x8 PUSH1 0x20 MSTORE PUSH1 0x40 SWAP1 KECCAK256 PUSH1 0x5 ADD SLOAD PUSH1 0xFF AND ISZERO PUSH2 0x13CD JUMPI PUSH1 0x0 DUP2 DUP2 MSTORE PUSH1 0x8 PUSH1 0x20 DUP2 DUP2 MSTORE PUSH1 0x40 SWAP3 DUP4 SWAP1 KECCAK256 DUP4 MLOAD PUSH2 0x180 DUP2 ADD DUP6 MSTORE DUP2 SLOAD DUP2 MSTORE PUSH1 0x1 DUP3 ADD SLOAD PUSH1 0x1 PUSH1 0x1 PUSH1 0xA0 SHL SUB AND SWAP3 DUP2 ADD SWAP3 SWAP1 SWAP3 MSTORE PUSH1 0x2 DUP2 ADD SLOAD SWAP4 DUP3 ADD SWAP4 SWAP1 SWAP4 MSTORE PUSH1 0x3 DUP4 ADD SLOAD PUSH1 0x60 DUP3 ADD MSTORE PUSH1 0x4 DUP4 ADD SLOAD PUSH1 0x80 DUP3 ADD MSTORE PUSH1 0x5 DUP4 ADD SLOAD PUSH1 0xFF SWAP1 DUP2 AND ISZERO ISZERO PUSH1 0xA0 DUP4 ADD MSTORE PUSH1 0x6 DUP5 ADD SLOAD PUSH1 0xC0 DUP4 ADD MSTORE PUSH1 0x7 DUP5 ADD SLOAD AND ISZERO ISZERO PUSH1 0xE0 DUP3 ADD MSTORE SWAP1 DUP3 ADD SLOAD PUSH2 0x100 DUP3 ADD MSTORE PUSH1 0x9 DUP3 ADD SLOAD PUSH2 0x120 DUP3 ADD MSTORE PUSH1 0xA DUP3 ADD SLOAD PUSH2 0x140 DUP3 ADD MSTORE PUSH1 0xB DUP3 ADD DUP1 SLOAD SWAP2 SWAP3 SWAP2 PUSH2 0x160 DUP5 ADD SWAP2 SWAP1 PUSH2 0x131F SWAP1 PUSH2 0x2F21 JUMP JUMPDEST DUP1 PUSH1 0x1F ADD PUSH1 0x20 DUP1 SWAP2 DIV MUL PUSH1 0x20 ADD PUSH1 0x40 MLOAD SWAP1 DUP2 ADD PUSH1 0x40 MSTORE DUP1 SWAP3 SWAP2 SWAP1 DUP2 DUP2 MSTORE PUSH1 0x20 ADD DUP3 DUP1 SLOAD PUSH2 0x134B SWAP1 PUSH2 0x2F21 JUMP JUMPDEST DUP1 ISZERO PUSH2 0x1398 JUMPI DUP1 PUSH1 0x1F LT PUSH2 0x136D JUMPI PUSH2 0x100 DUP1 DUP4 SLOAD DIV MUL DUP4 MSTORE SWAP2 PUSH1 0x20 ADD SWAP2 PUSH2 0x1398 JUMP JUMPDEST DUP3 ADD SWAP2 SWAP1 PUSH1 0x0 MSTORE PUSH1 0x20 PUSH1 0x0 KECCAK256 SWAP1 JUMPDEST DUP2 SLOAD DUP2 MSTORE SWAP1 PUSH1 0x1 ADD SWAP1 PUSH1 0x20 ADD DUP1 DUP4 GT PUSH2 0x137B JUMPI DUP3 SWAP1 SUB PUSH1 0x1F AND DUP3 ADD SWAP2 JUMPDEST POP POP POP POP POP DUP2 MSTORE POP POP DUP4 DUP4 DUP2 MLOAD DUP2 LT PUSH2 0x13B3 JUMPI PUSH2 0x13B3 PUSH2 0x2F8A JUMP JUMPDEST PUSH1 0x20 MUL PUSH1 0x20 ADD ADD DUP2 SWAP1 MSTORE POP DUP2 DUP1 PUSH2 0x13C9 SWAP1 PUSH2 0x2F71 JUMP JUMPDEST SWAP3 POP POP JUMPDEST DUP1 PUSH2 0x13D7 DUP2 PUSH2 0x2F71 JUMP JUMPDEST SWAP2 POP POP PUSH2 0x1246 JUMP JUMPDEST PUSH2 0x13E7 PUSH2 0x2A24 JUMP JUMPDEST PUSH1 0x5 SLOAD DUP3 LT PUSH2 0x1438 JUMPI PUSH1 0x40 MLOAD PUSH3 0x461BCD PUSH1 0xE5 SHL DUP2 MSTORE PUSH1 0x20 PUSH1 0x4 DUP3 ADD MSTORE PUSH1 0x17 PUSH1 0x24 DUP3 ADD MSTORE PUSH32 0x50726F706572747920646F6573206E6F74206578697374000000000000000000 PUSH1 0x44 DUP3 ADD MSTORE PUSH1 0x64 ADD PUSH2 0x7D5 JUMP JUMPDEST PUSH1 0x0 DUP3 DUP2 MSTORE PUSH1 0x8 PUSH1 0x20 DUP2 DUP2 MSTORE PUSH1 0x40 SWAP3 DUP4 SWAP1 KECCAK256 DUP4 MLOAD PUSH2 0x180 DUP2 ADD DUP6 MSTORE DUP2 SLOAD DUP2 MSTORE PUSH1 0x1 DUP3 ADD SLOAD PUSH1 0x1 PUSH1 0x1 PUSH1 0xA0 SHL SUB AND SWAP3 DUP2 ADD SWAP3 SWAP1 SWAP3 MSTORE PUSH1 0x2 DUP2 ADD SLOAD SWAP4 DUP3 ADD SWAP4 SWAP1 SWAP4 MSTORE PUSH1 0x3 DUP4 ADD SLOAD PUSH1 0x60 DUP3 ADD MSTORE PUSH1 0x4 DUP4 ADD SLOAD PUSH1 0x80 DUP3 ADD MSTORE PUSH1 0x5 DUP4 ADD SLOAD PUSH1 0xFF SWAP1 DUP2 AND ISZERO ISZERO PUSH1 0xA0 DUP4 ADD MSTORE PUSH1 0x6 DUP5 ADD SLOAD PUSH1 0xC0 DUP4 ADD MSTORE PUSH1 0x7 DUP5 ADD SLOAD AND ISZERO ISZERO PUSH1 0xE0 DUP3 ADD MSTORE SWAP1 DUP3 ADD SLOAD PUSH2 0x100 DUP3 ADD MSTORE PUSH1 0x9 DUP3 ADD SLOAD PUSH2 0x120 DUP3 ADD MSTORE PUSH1 0xA DUP3 ADD SLOAD PUSH2 0x140 DUP3 ADD MSTORE PUSH1 0xB DUP3 ADD DUP1 SLOAD SWAP2 SWAP3 SWAP2 PUSH2 0x160 DUP5 ADD SWAP2 SWAP1 PUSH2 0x14ED SWAP1 PUSH2 0x2F21 JUMP JUMPDEST DUP1 PUSH1 0x1F ADD PUSH1 0x20 DUP1 SWAP2 DIV MUL PUSH1 0x20 ADD PUSH1 0x40 MLOAD SWAP1 DUP2 ADD PUSH1 0x40 MSTORE DUP1 SWAP3 SWAP2 SWAP1 DUP2 DUP2 MSTORE PUSH1 0x20 ADD DUP3 DUP1 SLOAD PUSH2 0x1519 SWAP1 PUSH2 0x2F21 JUMP JUMPDEST DUP1 ISZERO PUSH2 0x1566 JUMPI DUP1 PUSH1 0x1F LT PUSH2 0x153B JUMPI PUSH2 0x100 DUP1 DUP4 SLOAD DIV MUL DUP4 MSTORE SWAP2 PUSH1 0x20 ADD SWAP2 PUSH2 0x1566 JUMP JUMPDEST DUP3 ADD SWAP2 SWAP1 PUSH1 0x0 MSTORE PUSH1 0x20 PUSH1 0x0 KECCAK256 SWAP1 JUMPDEST DUP2 SLOAD DUP2 MSTORE SWAP1 PUSH1 0x1 ADD SWAP1 PUSH1 0x20 ADD DUP1 DUP4 GT PUSH2 0x1549 JUMPI DUP3 SWAP1 SUB PUSH1 0x1F AND DUP3 ADD SWAP2 JUMPDEST POP POP POP POP POP DUP2 MSTORE POP POP SWAP1 POP SWAP2 SWAP1 POP JUMP JUMPDEST PUSH1 0x0 DUP3 DUP2 MSTORE PUSH1 0x8 PUSH1 0x20 MSTORE PUSH1 0x40 SWAP1 KECCAK256 PUSH1 0x1 DUP2 ADD SLOAD PUSH1 0x1 PUSH1 0x1 PUSH1 0xA0 SHL SUB AND CALLER EQ PUSH2 0x15D0 JUMPI PUSH1 0x40 MLOAD PUSH3 0x461BCD PUSH1 0xE5 SHL DUP2 MSTORE PUSH1 0x20 PUSH1 0x4 DUP3 ADD MSTORE PUSH1 0xD PUSH1 0x24 DUP3 ADD MSTORE PUSH13 0x2737BA103A34329037BBB732B9 PUSH1 0x99 SHL PUSH1 0x44 DUP3 ADD MSTORE PUSH1 0x64 ADD PUSH2 0x7D5 JUMP JUMPDEST PUSH1 0x7 DUP2 ADD DUP1 SLOAD PUSH1 0xFF NOT AND PUSH1 0x1 OR SWAP1 SSTORE PUSH1 0x8 ADD SSTORE POP JUMP JUMPDEST PUSH2 0x161B PUSH1 0x40 MLOAD DUP1 PUSH1 0x40 ADD PUSH1 0x40 MSTORE DUP1 PUSH1 0x13 DUP2 MSTORE PUSH1 0x20 ADD PUSH19 0x22AA24102130B630B731B2902132B337B9329 PUSH1 0x6D SHL DUP2 MSTORE POP SELFBALANCE PUSH2 0x27C4 JUMP JUMPDEST PUSH1 0x0 DUP5 DUP2 MSTORE PUSH1 0x8 PUSH1 0x20 MSTORE PUSH1 0x40 SWAP1 KECCAK256 PUSH1 0x1 PUSH1 0x1 PUSH1 0xA0 SHL SUB DUP4 AND PUSH2 0x1671 JUMPI PUSH1 0x40 MLOAD PUSH3 0x461BCD PUSH1 0xE5 SHL DUP2 MSTORE PUSH1 0x20 PUSH1 0x4 DUP3 ADD MSTORE PUSH1 0xF PUSH1 0x24 DUP3 ADD MSTORE PUSH15 0x496E76616C69642061646472657373 PUSH1 0x88 SHL PUSH1 0x44 DUP3 ADD MSTORE PUSH1 0x64 ADD PUSH2 0x7D5 JUMP JUMPDEST PUSH1 0x1 DUP2 ADD SLOAD PUSH1 0x1 PUSH1 0x1 PUSH1 0xA0 SHL SUB AND CALLER SUB PUSH2 0x16CD JUMPI PUSH1 0x40 MLOAD PUSH3 0x461BCD PUSH1 0xE5 SHL DUP2 MSTORE PUSH1 0x20 PUSH1 0x4 DUP3 ADD MSTORE PUSH1 0x1A PUSH1 0x24 DUP3 ADD MSTORE PUSH32 0x596F7520617265207468652050726F7065727479206F776E6572000000000000 PUSH1 0x44 DUP3 ADD MSTORE PUSH1 0x64 ADD PUSH2 0x7D5 JUMP JUMPDEST PUSH1 0x0 DUP6 DUP2 MSTORE PUSH1 0x9 PUSH1 0x20 SWAP1 DUP2 MSTORE PUSH1 0x40 DUP1 DUP4 KECCAK256 CALLER DUP5 MSTORE SWAP1 SWAP2 MSTORE SWAP1 KECCAK256 SLOAD DUP5 GT ISZERO PUSH2 0x172D JUMPI PUSH1 0x40 MLOAD PUSH3 0x461BCD PUSH1 0xE5 SHL DUP2 MSTORE PUSH1 0x20 PUSH1 0x4 DUP3 ADD MSTORE PUSH1 0x14 PUSH1 0x24 DUP3 ADD MSTORE PUSH20 0x4E6F7420656E6F756768206672616374696F6E73 PUSH1 0x60 SHL PUSH1 0x44 DUP3 ADD MSTORE PUSH1 0x64 ADD PUSH2 0x7D5 JUMP JUMPDEST PUSH1 0x0 PUSH2 0x1739 DUP6 DUP5 PUSH2 0x2FD6 JUMP JUMPDEST SWAP1 POP PUSH2 0x1769 PUSH1 0x40 MLOAD DUP1 PUSH1 0x40 ADD PUSH1 0x40 MSTORE DUP1 PUSH1 0xC DUP2 MSTORE PUSH1 0x20 ADD PUSH12 0x2A34329031B7B9BA1034B99 PUSH1 0xA5 SHL DUP2 MSTORE POP DUP3 PUSH2 0x27C4 JUMP JUMPDEST DUP1 CALLVALUE EQ PUSH2 0x1788 JUMPI PUSH1 0x40 MLOAD PUSH3 0x461BCD PUSH1 0xE5 SHL DUP2 MSTORE PUSH1 0x4 ADD PUSH2 0x7D5 SWAP1 PUSH2 0x2FED JUMP JUMPDEST PUSH1 0x0 PUSH2 0x3E8 PUSH2 0x1799 CALLVALUE PUSH2 0x3E3 PUSH2 0x2FD6 JUMP JUMPDEST PUSH2 0x17A3 SWAP2 SWAP1 PUSH2 0x3016 JUMP JUMPDEST SWAP1 POP PUSH1 0x0 PUSH2 0x17B1 DUP3 DUP5 PUSH2 0x3038 JUMP JUMPDEST SWAP1 POP PUSH2 0x17E0 PUSH1 0x40 MLOAD DUP1 PUSH1 0x40 ADD PUSH1 0x40 MSTORE DUP1 PUSH1 0xB DUP2 MSTORE PUSH1 0x20 ADD PUSH11 0x2A3432903332B29034B99 PUSH1 0xAD SHL DUP2 MSTORE POP DUP3 PUSH2 0x27C4 JUMP JUMPDEST PUSH1 0x40 MLOAD CALLER SWAP1 DUP4 ISZERO PUSH2 0x8FC MUL SWAP1 DUP5 SWAP1 PUSH1 0x0 DUP2 DUP2 DUP2 DUP6 DUP9 DUP9 CALL SWAP4 POP POP POP POP ISZERO DUP1 ISZERO PUSH2 0x180D JUMPI RETURNDATASIZE PUSH1 0x0 DUP1 RETURNDATACOPY RETURNDATASIZE PUSH1 0x0 REVERT JUMPDEST POP PUSH2 0x1818 CALLER DUP9 PUSH2 0x2809 JUMP JUMPDEST PUSH2 0x1822 DUP7 DUP9 PUSH2 0x2938 JUMP JUMPDEST PUSH1 0x0 DUP9 DUP2 MSTORE PUSH1 0x9 PUSH1 0x20 SWAP1 DUP2 MSTORE PUSH1 0x40 DUP1 DUP4 KECCAK256 CALLER DUP5 MSTORE SWAP1 SWAP2 MSTORE DUP2 KECCAK256 DUP1 SLOAD DUP10 SWAP3 SWAP1 PUSH2 0x184B SWAP1 DUP5 SWAP1 PUSH2 0x3038 JUMP JUMPDEST SWAP1 SWAP2 SSTORE POP POP PUSH1 0x0 DUP9 DUP2 MSTORE PUSH1 0x9 PUSH1 0x20 SWAP1 DUP2 MSTORE PUSH1 0x40 DUP1 DUP4 KECCAK256 PUSH1 0x1 PUSH1 0x1 PUSH1 0xA0 SHL SUB DUP11 AND DUP5 MSTORE SWAP1 SWAP2 MSTORE DUP2 KECCAK256 DUP1 SLOAD DUP10 SWAP3 SWAP1 PUSH2 0x1882 SWAP1 DUP5 SWAP1 PUSH2 0x2FC3 JUMP JUMPDEST SWAP1 SWAP2 SSTORE POP POP PUSH1 0x40 DUP1 MLOAD DUP10 DUP2 MSTORE CALLER PUSH1 0x20 DUP3 ADD MSTORE SWAP1 DUP2 ADD DUP9 SWAP1 MSTORE PUSH1 0x1 PUSH1 0x1 PUSH1 0xA0 SHL SUB DUP8 AND PUSH1 0x60 DUP3 ADD MSTORE PUSH32 0x30D8244E1D6B3F8FFAF165E67A9BA4D260733377FE3C64DC07FD78B7EA27B908 SWAP1 PUSH1 0x80 ADD PUSH1 0x40 MLOAD DUP1 SWAP2 SUB SWAP1 LOG1 PUSH2 0x1909 PUSH1 0x40 MLOAD DUP1 PUSH1 0x40 ADD PUSH1 0x40 MSTORE DUP1 PUSH1 0x11 DUP2 MSTORE PUSH1 0x20 ADD PUSH17 0x22AA24102130B630B731B2903630B9BA1 PUSH1 0x7D SHL DUP2 MSTORE POP SELFBALANCE PUSH2 0x27C4 JUMP JUMPDEST POP POP POP POP POP POP POP POP JUMP JUMPDEST PUSH1 0x7 SLOAD PUSH1 0x1 PUSH1 0x1 PUSH1 0xA0 SHL SUB AND CALLER EQ PUSH2 0x193D JUMPI PUSH1 0x40 MLOAD PUSH3 0x461BCD PUSH1 0xE5 SHL DUP2 MSTORE PUSH1 0x4 ADD PUSH2 0x7D5 SWAP1 PUSH2 0x2FA0 JUMP JUMPDEST PUSH1 0x6 SSTORE JUMP JUMPDEST PUSH1 0x60 PUSH1 0x4 DUP1 SLOAD PUSH2 0x6E2 SWAP1 PUSH2 0x2F21 JUMP JUMPDEST PUSH1 0x7 SLOAD PUSH1 0x0 SWAP1 PUSH1 0x1 PUSH1 0x1 PUSH1 0xA0 SHL SUB AND CALLER EQ PUSH2 0x197E JUMPI PUSH1 0x40 MLOAD PUSH3 0x461BCD PUSH1 0xE5 SHL DUP2 MSTORE PUSH1 0x4 ADD PUSH2 0x7D5 SWAP1 PUSH2 0x2FA0 JUMP JUMPDEST POP SELFBALANCE SWAP1 JUMP JUMPDEST PUSH1 0x0 CALLER DUP2 PUSH2 0x1991 DUP3 DUP7 PUSH2 0x235A JUMP JUMPDEST SWAP1 POP DUP4 DUP2 LT ISZERO PUSH2 0x19F1 JUMPI PUSH1 0x40 MLOAD PUSH3 0x461BCD PUSH1 0xE5 SHL DUP2 MSTORE PUSH1 0x20 PUSH1 0x4 DUP3 ADD MSTORE PUSH1 0x25 PUSH1 0x24 DUP3 ADD MSTORE PUSH32 0x45524332303A2064656372656173656420616C6C6F77616E63652062656C6F77 PUSH1 0x44 DUP3 ADD MSTORE PUSH5 0x207A65726F PUSH1 0xD8 SHL PUSH1 0x64 DUP3 ADD MSTORE PUSH1 0x84 ADD PUSH2 0x7D5 JUMP JUMPDEST PUSH2 0xA55 DUP3 DUP7 DUP7 DUP5 SUB PUSH2 0x2481 JUMP JUMPDEST PUSH1 0x0 CALLER PUSH2 0x773 DUP2 DUP6 DUP6 PUSH2 0x2620 JUMP JUMPDEST PUSH1 0x60 PUSH1 0x0 DUP1 JUMPDEST PUSH1 0x5 SLOAD DUP2 LT ISZERO PUSH2 0x1A5F JUMPI PUSH1 0x0 DUP2 DUP2 MSTORE PUSH1 0x8 PUSH1 0x20 MSTORE PUSH1 0x40 SWAP1 KECCAK256 PUSH1 0x1 ADD SLOAD CALLER PUSH1 0x1 PUSH1 0x1 PUSH1 0xA0 SHL SUB SWAP1 SWAP2 AND SUB PUSH2 0x1A4D JUMPI DUP2 PUSH2 0x1A49 DUP2 PUSH2 0x2F71 JUMP JUMPDEST SWAP3 POP POP JUMPDEST DUP1 PUSH2 0x1A57 DUP2 PUSH2 0x2F71 JUMP JUMPDEST SWAP2 POP POP PUSH2 0x1A12 JUMP JUMPDEST POP PUSH1 0x0 DUP2 PUSH8 0xFFFFFFFFFFFFFFFF DUP2 GT ISZERO PUSH2 0x1A7B JUMPI PUSH2 0x1A7B PUSH2 0x2DA4 JUMP JUMPDEST PUSH1 0x40 MLOAD SWAP1 DUP1 DUP3 MSTORE DUP1 PUSH1 0x20 MUL PUSH1 0x20 ADD DUP3 ADD PUSH1 0x40 MSTORE DUP1 ISZERO PUSH2 0x1AB4 JUMPI DUP2 PUSH1 0x20 ADD JUMPDEST PUSH2 0x1AA1 PUSH2 0x2A24 JUMP JUMPDEST DUP2 MSTORE PUSH1 0x20 ADD SWAP1 PUSH1 0x1 SWAP1 SUB SWAP1 DUP2 PUSH2 0x1A99 JUMPI SWAP1 POP JUMPDEST POP SWAP1 POP PUSH1 0x0 DUP1 JUMPDEST PUSH1 0x5 SLOAD DUP2 LT ISZERO PUSH2 0xA33 JUMPI PUSH1 0x0 DUP2 DUP2 MSTORE PUSH1 0x8 PUSH1 0x20 MSTORE PUSH1 0x40 SWAP1 KECCAK256 PUSH1 0x1 ADD SLOAD CALLER PUSH1 0x1 PUSH1 0x1 PUSH1 0xA0 SHL SUB SWAP1 SWAP2 AND SUB PUSH2 0x1C4B JUMPI PUSH1 0x0 DUP2 DUP2 MSTORE PUSH1 0x8 PUSH1 0x20 DUP2 DUP2 MSTORE PUSH1 0x40 SWAP3 DUP4 SWAP1 KECCAK256 DUP4 MLOAD PUSH2 0x180 DUP2 ADD DUP6 MSTORE DUP2 SLOAD DUP2 MSTORE PUSH1 0x1 DUP3 ADD SLOAD PUSH1 0x1 PUSH1 0x1 PUSH1 0xA0 SHL SUB AND SWAP3 DUP2 ADD SWAP3 SWAP1 SWAP3 MSTORE PUSH1 0x2 DUP2 ADD SLOAD SWAP4 DUP3 ADD SWAP4 SWAP1 SWAP4 MSTORE PUSH1 0x3 DUP4 ADD SLOAD PUSH1 0x60 DUP3 ADD MSTORE PUSH1 0x4 DUP4 ADD SLOAD PUSH1 0x80 DUP3 ADD MSTORE PUSH1 0x5 DUP4 ADD SLOAD PUSH1 0xFF SWAP1 DUP2 AND ISZERO ISZERO PUSH1 0xA0 DUP4 ADD MSTORE PUSH1 0x6 DUP5 ADD SLOAD PUSH1 0xC0 DUP4 ADD MSTORE PUSH1 0x7 DUP5 ADD SLOAD AND ISZERO ISZERO PUSH1 0xE0 DUP3 ADD MSTORE SWAP1 DUP3 ADD SLOAD PUSH2 0x100 DUP3 ADD MSTORE PUSH1 0x9 DUP3 ADD SLOAD PUSH2 0x120 DUP3 ADD MSTORE PUSH1 0xA DUP3 ADD SLOAD PUSH2 0x140 DUP3 ADD MSTORE PUSH1 0xB DUP3 ADD DUP1 SLOAD SWAP2 SWAP3 SWAP2 PUSH2 0x160 DUP5 ADD SWAP2 SWAP1 PUSH2 0x1B9D SWAP1 PUSH2 0x2F21 JUMP JUMPDEST DUP1 PUSH1 0x1F ADD PUSH1 0x20 DUP1 SWAP2 DIV MUL PUSH1 0x20 ADD PUSH1 0x40 MLOAD SWAP1 DUP2 ADD PUSH1 0x40 MSTORE DUP1 SWAP3 SWAP2 SWAP1 DUP2 DUP2 MSTORE PUSH1 0x20 ADD DUP3 DUP1 SLOAD PUSH2 0x1BC9 SWAP1 PUSH2 0x2F21 JUMP JUMPDEST DUP1 ISZERO PUSH2 0x1C16 JUMPI DUP1 PUSH1 0x1F LT PUSH2 0x1BEB JUMPI PUSH2 0x100 DUP1 DUP4 SLOAD DIV MUL DUP4 MSTORE SWAP2 PUSH1 0x20 ADD SWAP2 PUSH2 0x1C16 JUMP JUMPDEST DUP3 ADD SWAP2 SWAP1 PUSH1 0x0 MSTORE PUSH1 0x20 PUSH1 0x0 KECCAK256 SWAP1 JUMPDEST DUP2 SLOAD DUP2 MSTORE SWAP1 PUSH1 0x1 ADD SWAP1 PUSH1 0x20 ADD DUP1 DUP4 GT PUSH2 0x1BF9 JUMPI DUP3 SWAP1 SUB PUSH1 0x1F AND DUP3 ADD SWAP2 JUMPDEST POP POP POP POP POP DUP2 MSTORE POP POP DUP4 DUP4 DUP2 MLOAD DUP2 LT PUSH2 0x1C31 JUMPI PUSH2 0x1C31 PUSH2 0x2F8A JUMP JUMPDEST PUSH1 0x20 MUL PUSH1 0x20 ADD ADD DUP2 SWAP1 MSTORE POP DUP2 DUP1 PUSH2 0x1C47 SWAP1 PUSH2 0x2F71 JUMP JUMPDEST SWAP3 POP POP JUMPDEST DUP1 PUSH2 0x1C55 DUP2 PUSH2 0x2F71 JUMP JUMPDEST SWAP2 POP POP PUSH2 0x1ABB JUMP JUMPDEST PUSH1 0x0 DUP3 GT PUSH2 0x1CBF JUMPI PUSH1 0x40 MLOAD PUSH3 0x461BCD PUSH1 0xE5 SHL DUP2 MSTORE PUSH1 0x20 PUSH1 0x4 DUP3 ADD MSTORE PUSH1 0x29 PUSH1 0x24 DUP3 ADD MSTORE PUSH32 0x546F74616C206672616374696F6E73206D757374206265206772656174657220 PUSH1 0x44 DUP3 ADD MSTORE PUSH9 0x7468616E207A65726F PUSH1 0xB8 SHL PUSH1 0x64 DUP3 ADD MSTORE PUSH1 0x84 ADD PUSH2 0x7D5 JUMP JUMPDEST PUSH1 0x6 SLOAD CALLVALUE EQ PUSH2 0x1D10 JUMPI PUSH1 0x40 MLOAD PUSH3 0x461BCD PUSH1 0xE5 SHL DUP2 MSTORE PUSH1 0x20 PUSH1 0x4 DUP3 ADD MSTORE PUSH1 0x17 PUSH1 0x24 DUP3 ADD MSTORE PUSH32 0x496E636F7272656374206C697374696E67207072696365000000000000000000 PUSH1 0x44 DUP3 ADD MSTORE PUSH1 0x64 ADD PUSH2 0x7D5 JUMP JUMPDEST PUSH1 0x40 MLOAD DUP1 PUSH2 0x180 ADD PUSH1 0x40 MSTORE DUP1 PUSH1 0x5 SLOAD DUP2 MSTORE PUSH1 0x20 ADD CALLER PUSH1 0x1 PUSH1 0x1 PUSH1 0xA0 SHL SUB AND DUP2 MSTORE PUSH1 0x20 ADD DUP5 DUP2 MSTORE PUSH1 0x20 ADD DUP4 DUP2 MSTORE PUSH1 0x20 ADD PUSH1 0x0 DUP2 MSTORE PUSH1 0x20 ADD PUSH1 0x0 ISZERO ISZERO DUP2 MSTORE PUSH1 0x20 ADD PUSH1 0x0 DUP2 MSTORE PUSH1 0x20 ADD PUSH1 0x0 ISZERO ISZERO DUP2 MSTORE PUSH1 0x20 ADD PUSH1 0x0 DUP2 MSTORE PUSH1 0x20 ADD PUSH1 0x0 DUP2 MSTORE PUSH1 0x20 ADD PUSH1 0x0 DUP2 MSTORE PUSH1 0x20 ADD DUP3 DUP2 MSTORE POP PUSH1 0x8 PUSH1 0x0 PUSH1 0x5 SLOAD DUP2 MSTORE PUSH1 0x20 ADD SWAP1 DUP2 MSTORE PUSH1 0x20 ADD PUSH1 0x0 KECCAK256 PUSH1 0x0 DUP3 ADD MLOAD DUP2 PUSH1 0x0 ADD SSTORE PUSH1 0x20 DUP3 ADD MLOAD DUP2 PUSH1 0x1 ADD PUSH1 0x0 PUSH2 0x100 EXP DUP2 SLOAD DUP2 PUSH1 0x1 PUSH1 0x1 PUSH1 0xA0 SHL SUB MUL NOT AND SWAP1 DUP4 PUSH1 0x1 PUSH1 0x1 PUSH1 0xA0 SHL SUB AND MUL OR SWAP1 SSTORE POP PUSH1 0x40 DUP3 ADD MLOAD DUP2 PUSH1 0x2 ADD SSTORE PUSH1 0x60 DUP3 ADD MLOAD DUP2 PUSH1 0x3 ADD SSTORE PUSH1 0x80 DUP3 ADD MLOAD DUP2 PUSH1 0x4 ADD SSTORE PUSH1 0xA0 DUP3 ADD MLOAD DUP2 PUSH1 0x5 ADD PUSH1 0x0 PUSH2 0x100 EXP DUP2 SLOAD DUP2 PUSH1 0xFF MUL NOT AND SWAP1 DUP4 ISZERO ISZERO MUL OR SWAP1 SSTORE POP PUSH1 0xC0 DUP3 ADD MLOAD DUP2 PUSH1 0x6 ADD SSTORE PUSH1 0xE0 DUP3 ADD MLOAD DUP2 PUSH1 0x7 ADD PUSH1 0x0 PUSH2 0x100 EXP DUP2 SLOAD DUP2 PUSH1 0xFF MUL NOT AND SWAP1 DUP4 ISZERO ISZERO MUL OR SWAP1 SSTORE POP PUSH2 0x100 DUP3 ADD MLOAD DUP2 PUSH1 0x8 ADD SSTORE PUSH2 0x120 DUP3 ADD MLOAD DUP2 PUSH1 0x9 ADD SSTORE PUSH2 0x140 DUP3 ADD MLOAD DUP2 PUSH1 0xA ADD SSTORE PUSH2 0x160 DUP3 ADD MLOAD DUP2 PUSH1 0xB ADD SWAP1 DUP2 PUSH2 0x1E63 SWAP2 SWAP1 PUSH2 0x3099 JUMP JUMPDEST POP POP PUSH1 0x5 DUP1 SLOAD PUSH1 0x0 SWAP1 DUP2 MSTORE PUSH1 0x9 PUSH1 0x20 SWAP1 DUP2 MSTORE PUSH1 0x40 DUP1 DUP4 KECCAK256 CALLER DUP1 DUP6 MSTORE SWAP1 DUP4 MSTORE DUP2 DUP5 KECCAK256 DUP9 SWAP1 SSTORE DUP5 SLOAD DUP5 MSTORE PUSH1 0xA DUP4 MSTORE DUP2 DUP5 KECCAK256 DUP1 SLOAD PUSH1 0x1 DUP2 ADD DUP3 SSTORE SWAP1 DUP6 MSTORE SWAP3 SWAP1 SWAP4 KECCAK256 SWAP1 SWAP2 ADD DUP1 SLOAD PUSH1 0x1 PUSH1 0x1 PUSH1 0xA0 SHL SUB NOT AND DUP4 OR SWAP1 SSTORE SWAP2 SLOAD SWAP2 MLOAD PUSH32 0x4412373545E6DCCBFC2488DDCC8FF966A2E6F11DB627E5E6FACB083861792502 SWAP4 POP PUSH2 0x1EEC SWAP3 SWAP2 SWAP1 DUP8 SWAP1 DUP8 SWAP1 DUP8 SWAP1 PUSH2 0x3159 JUMP JUMPDEST PUSH1 0x40 MLOAD DUP1 SWAP2 SUB SWAP1 LOG1 PUSH1 0x5 DUP1 SLOAD SWAP1 PUSH1 0x0 PUSH2 0x1F04 DUP4 PUSH2 0x2F71 JUMP JUMPDEST SWAP2 SWAP1 POP SSTORE POP POP POP POP JUMP JUMPDEST PUSH1 0xA PUSH1 0x20 MSTORE DUP2 PUSH1 0x0 MSTORE PUSH1 0x40 PUSH1 0x0 KECCAK256 DUP2 DUP2 SLOAD DUP2 LT PUSH2 0x1F2A JUMPI PUSH1 0x0 DUP1 REVERT JUMPDEST PUSH1 0x0 SWAP2 DUP3 MSTORE PUSH1 0x20 SWAP1 SWAP2 KECCAK256 ADD SLOAD PUSH1 0x1 PUSH1 0x1 PUSH1 0xA0 SHL SUB AND SWAP2 POP DUP3 SWAP1 POP JUMP JUMPDEST PUSH1 0x7 SLOAD PUSH1 0x1 PUSH1 0x1 PUSH1 0xA0 SHL SUB AND CALLER EQ PUSH2 0x1F70 JUMPI PUSH1 0x40 MLOAD PUSH3 0x461BCD PUSH1 0xE5 SHL DUP2 MSTORE PUSH1 0x4 ADD PUSH2 0x7D5 SWAP1 PUSH2 0x2FA0 JUMP JUMPDEST JUMP JUMPDEST PUSH1 0x0 DUP3 DUP2 MSTORE PUSH1 0x8 PUSH1 0x20 MSTORE PUSH1 0x40 SWAP1 KECCAK256 PUSH1 0x5 DUP2 ADD SLOAD PUSH1 0xFF AND PUSH2 0x1FCC JUMPI PUSH1 0x40 MLOAD PUSH3 0x461BCD PUSH1 0xE5 SHL DUP2 MSTORE PUSH1 0x20 PUSH1 0x4 DUP3 ADD MSTORE PUSH1 0x15 PUSH1 0x24 DUP3 ADD MSTORE PUSH21 0x50726F7065727479206E6F7420666F722073616C65 PUSH1 0x58 SHL PUSH1 0x44 DUP3 ADD MSTORE PUSH1 0x64 ADD PUSH2 0x7D5 JUMP JUMPDEST PUSH1 0x0 DUP2 PUSH1 0x3 ADD SLOAD DUP4 DUP4 PUSH1 0x6 ADD SLOAD PUSH2 0x1FE3 SWAP2 SWAP1 PUSH2 0x2FD6 JUMP JUMPDEST PUSH2 0x1FED SWAP2 SWAP1 PUSH2 0x3016 JUMP JUMPDEST SWAP1 POP PUSH2 0x201D PUSH1 0x40 MLOAD DUP1 PUSH1 0x40 ADD PUSH1 0x40 MSTORE DUP1 PUSH1 0xC DUP2 MSTORE PUSH1 0x20 ADD PUSH12 0x2A34329031B7B9BA1034B99 PUSH1 0xA5 SHL DUP2 MSTORE POP DUP3 PUSH2 0x27C4 JUMP JUMPDEST PUSH1 0x1 DUP3 ADD SLOAD PUSH1 0x1 PUSH1 0x1 PUSH1 0xA0 SHL SUB AND CALLER SUB PUSH2 0x2079 JUMPI PUSH1 0x40 MLOAD PUSH3 0x461BCD PUSH1 0xE5 SHL DUP2 MSTORE PUSH1 0x20 PUSH1 0x4 DUP3 ADD MSTORE PUSH1 0x1A PUSH1 0x24 DUP3 ADD MSTORE PUSH32 0x596F7520617265207468652050726F7065727479206F776E6572000000000000 PUSH1 0x44 DUP3 ADD MSTORE PUSH1 0x64 ADD PUSH2 0x7D5 JUMP JUMPDEST DUP1 CALLVALUE EQ PUSH2 0x2098 JUMPI PUSH1 0x40 MLOAD PUSH3 0x461BCD PUSH1 0xE5 SHL DUP2 MSTORE PUSH1 0x4 ADD PUSH2 0x7D5 SWAP1 PUSH2 0x2FED JUMP JUMPDEST PUSH2 0x20A2 CALLER DUP5 PUSH2 0x2938 JUMP JUMPDEST PUSH1 0x0 PUSH2 0x3E8 PUSH2 0x20B3 DUP4 PUSH2 0x3E3 PUSH2 0x2FD6 JUMP JUMPDEST PUSH2 0x20BD SWAP2 SWAP1 PUSH2 0x3016 JUMP JUMPDEST SWAP1 POP PUSH1 0x0 PUSH2 0x20CB DUP3 DUP5 PUSH2 0x3038 JUMP JUMPDEST SWAP1 POP PUSH2 0x20FA PUSH1 0x40 MLOAD DUP1 PUSH1 0x40 ADD PUSH1 0x40 MSTORE DUP1 PUSH1 0xB DUP2 MSTORE PUSH1 0x20 ADD PUSH11 0x2A3432903332B29034B99 PUSH1 0xAD SHL DUP2 MSTORE POP DUP3 PUSH2 0x27C4 JUMP JUMPDEST PUSH1 0x1 DUP5 ADD SLOAD PUSH1 0x40 MLOAD PUSH1 0x1 PUSH1 0x1 PUSH1 0xA0 SHL SUB SWAP1 SWAP2 AND SWAP1 DUP4 ISZERO PUSH2 0x8FC MUL SWAP1 DUP5 SWAP1 PUSH1 0x0 DUP2 DUP2 DUP2 DUP6 DUP9 DUP9 CALL SWAP4 POP POP POP POP ISZERO DUP1 ISZERO PUSH2 0x2136 JUMPI RETURNDATASIZE PUSH1 0x0 DUP1 RETURNDATACOPY RETURNDATASIZE PUSH1 0x0 REVERT JUMPDEST POP PUSH1 0x0 DUP7 DUP2 MSTORE PUSH1 0x9 PUSH1 0x20 SWAP1 DUP2 MSTORE PUSH1 0x40 DUP1 DUP4 KECCAK256 CALLER DUP5 MSTORE SWAP1 SWAP2 MSTORE DUP2 KECCAK256 SLOAD SWAP1 SUB PUSH2 0x21C4 JUMPI PUSH1 0x0 DUP7 DUP2 MSTORE PUSH1 0xA PUSH1 0x20 DUP2 DUP2 MSTORE PUSH1 0x40 DUP1 DUP5 KECCAK256 DUP1 SLOAD PUSH1 0x1 DUP2 ADD DUP3 SSTORE SWAP1 DUP6 MSTORE DUP3 DUP6 KECCAK256 ADD DUP1 SLOAD PUSH1 0x1 PUSH1 0x1 PUSH1 0xA0 SHL SUB NOT AND CALLER SWAP1 DUP2 OR SWAP1 SWAP2 SSTORE DUP2 MLOAD DUP1 DUP4 ADD DUP4 MSTORE SWAP4 DUP5 MSTORE PUSH10 0x24B739B4B2329034B31 PUSH1 0xB5 SHL DUP5 DUP5 ADD MSTORE DUP11 DUP6 MSTORE PUSH1 0x9 DUP4 MSTORE DUP2 DUP6 KECCAK256 SWAP1 DUP6 MSTORE SWAP1 SWAP2 MSTORE SWAP1 SWAP2 KECCAK256 SLOAD PUSH2 0x21C4 SWAP2 SWAP1 PUSH2 0x27C4 JUMP JUMPDEST PUSH1 0x0 DUP7 DUP2 MSTORE PUSH1 0x9 PUSH1 0x20 SWAP1 DUP2 MSTORE PUSH1 0x40 DUP1 DUP4 KECCAK256 CALLER DUP5 MSTORE SWAP1 SWAP2 MSTORE DUP2 KECCAK256 DUP1 SLOAD DUP8 SWAP3 SWAP1 PUSH2 0x21ED SWAP1 DUP5 SWAP1 PUSH2 0x2FC3 JUMP JUMPDEST SWAP3 POP POP DUP2 SWAP1 SSTORE POP PUSH2 0x222F PUSH1 0x40 MLOAD DUP1 PUSH1 0x60 ADD PUSH1 0x40 MSTORE DUP1 PUSH1 0x2A DUP2 MSTORE PUSH1 0x20 ADD PUSH2 0x31BA PUSH1 0x2A SWAP2 CODECOPY PUSH1 0x0 DUP9 DUP2 MSTORE PUSH1 0x9 PUSH1 0x20 SWAP1 DUP2 MSTORE PUSH1 0x40 DUP1 DUP4 KECCAK256 CALLER DUP5 MSTORE SWAP1 SWAP2 MSTORE SWAP1 KECCAK256 SLOAD PUSH2 0x27C4 JUMP JUMPDEST PUSH1 0x0 DUP7 DUP2 MSTORE PUSH1 0x9 PUSH1 0x20 SWAP1 DUP2 MSTORE PUSH1 0x40 DUP1 DUP4 KECCAK256 PUSH1 0x1 DUP9 ADD SLOAD PUSH1 0x1 PUSH1 0x1 PUSH1 0xA0 SHL SUB AND DUP5 MSTORE SWAP1 SWAP2 MSTORE DUP2 KECCAK256 DUP1 SLOAD DUP8 SWAP3 SWAP1 PUSH2 0x2265 SWAP1 DUP5 SWAP1 PUSH2 0x3038 JUMP JUMPDEST SWAP3 POP POP DUP2 SWAP1 SSTORE POP PUSH2 0x22B4 PUSH1 0x40 MLOAD DUP1 PUSH1 0x60 ADD PUSH1 0x40 MSTORE DUP1 PUSH1 0x2E DUP2 MSTORE PUSH1 0x20 ADD PUSH2 0x31E4 PUSH1 0x2E SWAP2 CODECOPY PUSH1 0x0 DUP9 DUP2 MSTORE PUSH1 0x9 PUSH1 0x20 SWAP1 DUP2 MSTORE PUSH1 0x40 DUP1 DUP4 KECCAK256 PUSH1 0x1 DUP11 ADD SLOAD PUSH1 0x1 PUSH1 0x1 PUSH1 0xA0 SHL SUB AND DUP5 MSTORE SWAP1 SWAP2 MSTORE SWAP1 KECCAK256 SLOAD PUSH2 0x27C4 JUMP JUMPDEST DUP5 DUP5 PUSH1 0x4 ADD PUSH1 0x0 DUP3 DUP3 SLOAD PUSH2 0x22C8 SWAP2 SWAP1 PUSH2 0x2FC3 JUMP JUMPDEST SWAP3 POP POP DUP2 SWAP1 SSTORE POP PUSH2 0x2312 PUSH1 0x40 MLOAD DUP1 PUSH1 0x40 ADD PUSH1 0x40 MSTORE DUP1 PUSH1 0x17 DUP2 MSTORE PUSH1 0x20 ADD PUSH32 0x70726F70657274792E6672616374696F6E73536F6C6420000000000000000000 DUP2 MSTORE POP DUP6 PUSH1 0x4 ADD SLOAD PUSH2 0x27C4 JUMP JUMPDEST PUSH1 0x40 DUP1 MLOAD DUP8 DUP2 MSTORE CALLER PUSH1 0x20 DUP3 ADD MSTORE SWAP1 DUP2 ADD DUP7 SWAP1 MSTORE PUSH32 0xA09EE622B528975B330F6A8B76649135B6CD75BE9B28A394A116B8DADBDA8780 SWAP1 PUSH1 0x60 ADD PUSH1 0x40 MLOAD DUP1 SWAP2 SUB SWAP1 LOG1 POP POP POP POP POP POP JUMP JUMPDEST PUSH1 0x1 PUSH1 0x1 PUSH1 0xA0 SHL SUB SWAP2 DUP3 AND PUSH1 0x0 SWAP1 DUP2 MSTORE PUSH1 0x1 PUSH1 0x20 SWAP1 DUP2 MSTORE PUSH1 0x40 DUP1 DUP4 KECCAK256 SWAP4 SWAP1 SWAP5 AND DUP3 MSTORE SWAP2 SWAP1 SWAP2 MSTORE KECCAK256 SLOAD SWAP1 JUMP JUMPDEST PUSH1 0x8 PUSH1 0x20 DUP2 SWAP1 MSTORE PUSH1 0x0 SWAP2 DUP3 MSTORE PUSH1 0x40 SWAP1 SWAP2 KECCAK256 DUP1 SLOAD PUSH1 0x1 DUP3 ADD SLOAD PUSH1 0x2 DUP4 ADD SLOAD PUSH1 0x3 DUP5 ADD SLOAD PUSH1 0x4 DUP6 ADD SLOAD PUSH1 0x5 DUP7 ADD SLOAD PUSH1 0x6 DUP8 ADD SLOAD PUSH1 0x7 DUP9 ADD SLOAD SWAP9 DUP9 ADD SLOAD PUSH1 0x9 DUP10 ADD SLOAD PUSH1 0xA DUP11 ADD SLOAD PUSH1 0xB DUP12 ADD DUP1 SLOAD SWAP11 SWAP13 PUSH1 0x1 PUSH1 0x1 PUSH1 0xA0 SHL SUB SWAP1 SWAP11 AND SWAP12 SWAP9 SWAP11 SWAP8 SWAP10 SWAP7 SWAP9 PUSH1 0xFF SWAP7 DUP8 AND SWAP9 SWAP6 SWAP8 SWAP1 SWAP7 AND SWAP6 SWAP4 SWAP5 SWAP3 SWAP4 SWAP2 SWAP3 PUSH2 0x23FE SWAP1 PUSH2 0x2F21 JUMP JUMPDEST DUP1 PUSH1 0x1F ADD PUSH1 0x20 DUP1 SWAP2 DIV MUL PUSH1 0x20 ADD PUSH1 0x40 MLOAD SWAP1 DUP2 ADD PUSH1 0x40 MSTORE DUP1 SWAP3 SWAP2 SWAP1 DUP2 DUP2 MSTORE PUSH1 0x20 ADD DUP3 DUP1 SLOAD PUSH2 0x242A SWAP1 PUSH2 0x2F21 JUMP JUMPDEST DUP1 ISZERO PUSH2 0x2477 JUMPI DUP1 PUSH1 0x1F LT PUSH2 0x244C JUMPI PUSH2 0x100 DUP1 DUP4 SLOAD DIV MUL DUP4 MSTORE SWAP2 PUSH1 0x20 ADD SWAP2 PUSH2 0x2477 JUMP JUMPDEST DUP3 ADD SWAP2 SWAP1 PUSH1 0x0 MSTORE PUSH1 0x20 PUSH1 0x0 KECCAK256 SWAP1 JUMPDEST DUP2 SLOAD DUP2 MSTORE SWAP1 PUSH1 0x1 ADD SWAP1 PUSH1 0x20 ADD DUP1 DUP4 GT PUSH2 0x245A JUMPI DUP3 SWAP1 SUB PUSH1 0x1F AND DUP3 ADD SWAP2 JUMPDEST POP POP POP POP POP SWAP1 POP DUP13 JUMP JUMPDEST PUSH1 0x1 PUSH1 0x1 PUSH1 0xA0 SHL SUB DUP4 AND PUSH2 0x24E3 JUMPI PUSH1 0x40 MLOAD PUSH3 0x461BCD PUSH1 0xE5 SHL DUP2 MSTORE PUSH1 0x20 PUSH1 0x4 DUP3 ADD MSTORE PUSH1 0x24 DUP1 DUP3 ADD MSTORE PUSH32 0x45524332303A20617070726F76652066726F6D20746865207A65726F20616464 PUSH1 0x44 DUP3 ADD MSTORE PUSH4 0x72657373 PUSH1 0xE0 SHL PUSH1 0x64 DUP3 ADD MSTORE PUSH1 0x84 ADD PUSH2 0x7D5 JUMP JUMPDEST PUSH1 0x1 PUSH1 0x1 PUSH1 0xA0 SHL SUB DUP3 AND PUSH2 0x2544 JUMPI PUSH1 0x40 MLOAD PUSH3 0x461BCD PUSH1 0xE5 SHL DUP2 MSTORE PUSH1 0x20 PUSH1 0x4 DUP3 ADD MSTORE PUSH1 0x22 PUSH1 0x24 DUP3 ADD MSTORE PUSH32 0x45524332303A20617070726F766520746F20746865207A65726F206164647265 PUSH1 0x44 DUP3 ADD MSTORE PUSH2 0x7373 PUSH1 0xF0 SHL PUSH1 0x64 DUP3 ADD MSTORE PUSH1 0x84 ADD PUSH2 0x7D5 JUMP JUMPDEST PUSH1 0x1 PUSH1 0x1 PUSH1 0xA0 SHL SUB DUP4 DUP2 AND PUSH1 0x0 DUP2 DUP2 MSTORE PUSH1 0x1 PUSH1 0x20 SWAP1 DUP2 MSTORE PUSH1 0x40 DUP1 DUP4 KECCAK256 SWAP5 DUP8 AND DUP1 DUP5 MSTORE SWAP5 DUP3 MSTORE SWAP2 DUP3 SWAP1 KECCAK256 DUP6 SWAP1 SSTORE SWAP1 MLOAD DUP5 DUP2 MSTORE PUSH32 0x8C5BE1E5EBEC7D5BD14F71427D1E84F3DD0314C0F7B2291E5B200AC8C7C3B925 SWAP2 ADD JUMPDEST PUSH1 0x40 MLOAD DUP1 SWAP2 SUB SWAP1 LOG3 POP POP POP JUMP JUMPDEST PUSH1 0x0 PUSH2 0x25B2 DUP5 DUP5 PUSH2 0x235A JUMP JUMPDEST SWAP1 POP PUSH1 0x0 NOT DUP2 EQ PUSH2 0x261A JUMPI DUP2 DUP2 LT ISZERO PUSH2 0x260D JUMPI PUSH1 0x40 MLOAD PUSH3 0x461BCD PUSH1 0xE5 SHL DUP2 MSTORE PUSH1 0x20 PUSH1 0x4 DUP3 ADD MSTORE PUSH1 0x1D PUSH1 0x24 DUP3 ADD MSTORE PUSH32 0x45524332303A20696E73756666696369656E7420616C6C6F77616E6365000000 PUSH1 0x44 DUP3 ADD MSTORE PUSH1 0x64 ADD PUSH2 0x7D5 JUMP JUMPDEST PUSH2 0x261A DUP5 DUP5 DUP5 DUP5 SUB PUSH2 0x2481 JUMP JUMPDEST POP POP POP POP JUMP JUMPDEST PUSH1 0x1 PUSH1 0x1 PUSH1 0xA0 SHL SUB DUP4 AND PUSH2 0x2684 JUMPI PUSH1 0x40 MLOAD PUSH3 0x461BCD PUSH1 0xE5 SHL DUP2 MSTORE PUSH1 0x20 PUSH1 0x4 DUP3 ADD MSTORE PUSH1 0x25 PUSH1 0x24 DUP3 ADD MSTORE PUSH32 0x45524332303A207472616E736665722066726F6D20746865207A65726F206164 PUSH1 0x44 DUP3 ADD MSTORE PUSH5 0x6472657373 PUSH1 0xD8 SHL PUSH1 0x64 DUP3 ADD MSTORE PUSH1 0x84 ADD PUSH2 0x7D5 JUMP JUMPDEST PUSH1 0x1 PUSH1 0x1 PUSH1 0xA0 SHL SUB DUP3 AND PUSH2 0x26E6 JUMPI PUSH1 0x40 MLOAD PUSH3 0x461BCD PUSH1 0xE5 SHL DUP2 MSTORE PUSH1 0x20 PUSH1 0x4 DUP3 ADD MSTORE PUSH1 0x23 PUSH1 0x24 DUP3 ADD MSTORE PUSH32 0x45524332303A207472616E7366657220746F20746865207A65726F2061646472 PUSH1 0x44 DUP3 ADD MSTORE PUSH3 0x657373 PUSH1 0xE8 SHL PUSH1 0x64 DUP3 ADD MSTORE PUSH1 0x84 ADD PUSH2 0x7D5 JUMP JUMPDEST PUSH1 0x1 PUSH1 0x1 PUSH1 0xA0 SHL SUB DUP4 AND PUSH1 0x0 SWAP1 DUP2 MSTORE PUSH1 0x20 DUP2 SWAP1 MSTORE PUSH1 0x40 SWAP1 KECCAK256 SLOAD DUP2 DUP2 LT ISZERO PUSH2 0x275E JUMPI PUSH1 0x40 MLOAD PUSH3 0x461BCD PUSH1 0xE5 SHL DUP2 MSTORE PUSH1 0x20 PUSH1 0x4 DUP3 ADD MSTORE PUSH1 0x26 PUSH1 0x24 DUP3 ADD MSTORE PUSH32 0x45524332303A207472616E7366657220616D6F756E7420657863656564732062 PUSH1 0x44 DUP3 ADD MSTORE PUSH6 0x616C616E6365 PUSH1 0xD0 SHL PUSH1 0x64 DUP3 ADD MSTORE PUSH1 0x84 ADD PUSH2 0x7D5 JUMP JUMPDEST PUSH1 0x1 PUSH1 0x1 PUSH1 0xA0 SHL SUB DUP5 DUP2 AND PUSH1 0x0 DUP2 DUP2 MSTORE PUSH1 0x20 DUP2 DUP2 MSTORE PUSH1 0x40 DUP1 DUP4 KECCAK256 DUP8 DUP8 SUB SWAP1 SSTORE SWAP4 DUP8 AND DUP1 DUP4 MSTORE SWAP2 DUP5 SWAP1 KECCAK256 DUP1 SLOAD DUP8 ADD SWAP1 SSTORE SWAP3 MLOAD DUP6 DUP2 MSTORE SWAP1 SWAP3 PUSH32 0xDDF252AD1BE2C89B69C2B068FC378DAA952BA7F163C4A11628F55A4DF523B3EF SWAP2 ADD PUSH1 0x40 MLOAD DUP1 SWAP2 SUB SWAP1 LOG3 PUSH2 0x261A JUMP JUMPDEST PUSH2 0xAC4 DUP3 DUP3 PUSH1 0x40 MLOAD PUSH1 0x24 ADD PUSH2 0x27DA SWAP3 SWAP2 SWAP1 PUSH2 0x3197 JUMP JUMPDEST PUSH1 0x40 DUP1 MLOAD PUSH1 0x1F NOT DUP2 DUP5 SUB ADD DUP2 MSTORE SWAP2 SWAP1 MSTORE PUSH1 0x20 DUP2 ADD DUP1 MLOAD PUSH1 0x1 PUSH1 0x1 PUSH1 0xE0 SHL SUB AND PUSH4 0x2D839CB3 PUSH1 0xE2 SHL OR SWAP1 MSTORE PUSH2 0x29F7 JUMP JUMPDEST PUSH1 0x1 PUSH1 0x1 PUSH1 0xA0 SHL SUB DUP3 AND PUSH2 0x2869 JUMPI PUSH1 0x40 MLOAD PUSH3 0x461BCD PUSH1 0xE5 SHL DUP2 MSTORE PUSH1 0x20 PUSH1 0x4 DUP3 ADD MSTORE PUSH1 0x21 PUSH1 0x24 DUP3 ADD MSTORE PUSH32 0x45524332303A206275726E2066726F6D20746865207A65726F20616464726573 PUSH1 0x44 DUP3 ADD MSTORE PUSH1 0x73 PUSH1 0xF8 SHL PUSH1 0x64 DUP3 ADD MSTORE PUSH1 0x84 ADD PUSH2 0x7D5 JUMP JUMPDEST PUSH1 0x1 PUSH1 0x1 PUSH1 0xA0 SHL SUB DUP3 AND PUSH1 0x0 SWAP1 DUP2 MSTORE PUSH1 0x20 DUP2 SWAP1 MSTORE PUSH1 0x40 SWAP1 KECCAK256 SLOAD DUP2 DUP2 LT ISZERO PUSH2 0x28DD JUMPI PUSH1 0x40 MLOAD PUSH3 0x461BCD PUSH1 0xE5 SHL DUP2 MSTORE PUSH1 0x20 PUSH1 0x4 DUP3 ADD MSTORE PUSH1 0x22 PUSH1 0x24 DUP3 ADD MSTORE PUSH32 0x45524332303A206275726E20616D6F756E7420657863656564732062616C616E PUSH1 0x44 DUP3 ADD MSTORE PUSH2 0x6365 PUSH1 0xF0 SHL PUSH1 0x64 DUP3 ADD MSTORE PUSH1 0x84 ADD PUSH2 0x7D5 JUMP JUMPDEST PUSH1 0x1 PUSH1 0x1 PUSH1 0xA0 SHL SUB DUP4 AND PUSH1 0x0 DUP2 DUP2 MSTORE PUSH1 0x20 DUP2 DUP2 MSTORE PUSH1 0x40 DUP1 DUP4 KECCAK256 DUP7 DUP7 SUB SWAP1 SSTORE PUSH1 0x2 DUP1 SLOAD DUP8 SWAP1 SUB SWAP1 SSTORE MLOAD DUP6 DUP2 MSTORE SWAP2 SWAP3 SWAP2 PUSH32 0xDDF252AD1BE2C89B69C2B068FC378DAA952BA7F163C4A11628F55A4DF523B3EF SWAP2 ADD PUSH2 0x2599 JUMP JUMPDEST POP POP POP JUMP JUMPDEST PUSH1 0x1 PUSH1 0x1 PUSH1 0xA0 SHL SUB DUP3 AND PUSH2 0x298E JUMPI PUSH1 0x40 MLOAD PUSH3 0x461BCD PUSH1 0xE5 SHL DUP2 MSTORE PUSH1 0x20 PUSH1 0x4 DUP3 ADD MSTORE PUSH1 0x1F PUSH1 0x24 DUP3 ADD MSTORE PUSH32 0x45524332303A206D696E7420746F20746865207A65726F206164647265737300 PUSH1 0x44 DUP3 ADD MSTORE PUSH1 0x64 ADD PUSH2 0x7D5 JUMP JUMPDEST DUP1 PUSH1 0x2 PUSH1 0x0 DUP3 DUP3 SLOAD PUSH2 0x29A0 SWAP2 SWAP1 PUSH2 0x2FC3 JUMP JUMPDEST SWAP1 SWAP2 SSTORE POP POP PUSH1 0x1 PUSH1 0x1 PUSH1 0xA0 SHL SUB DUP3 AND PUSH1 0x0 DUP2 DUP2 MSTORE PUSH1 0x20 DUP2 DUP2 MSTORE PUSH1 0x40 DUP1 DUP4 KECCAK256 DUP1 SLOAD DUP7 ADD SWAP1 SSTORE MLOAD DUP5 DUP2 MSTORE PUSH32 0xDDF252AD1BE2C89B69C2B068FC378DAA952BA7F163C4A11628F55A4DF523B3EF SWAP2 ADD PUSH1 0x40 MLOAD DUP1 SWAP2 SUB SWAP1 LOG3 POP POP JUMP JUMPDEST PUSH2 0x2A00 DUP2 PUSH2 0x2A03 JUMP JUMPDEST POP JUMP JUMPDEST PUSH1 0x0 PUSH11 0x636F6E736F6C652E6C6F67 SWAP1 POP PUSH1 0x0 DUP1 DUP4 MLOAD PUSH1 0x20 DUP6 ADD DUP5 GAS STATICCALL POP POP POP JUMP JUMPDEST PUSH1 0x40 MLOAD DUP1 PUSH2 0x180 ADD PUSH1 0x40 MSTORE DUP1 PUSH1 0x0 DUP2 MSTORE PUSH1 0x20 ADD PUSH1 0x0 PUSH1 0x1 PUSH1 0x1 PUSH1 0xA0 SHL SUB AND DUP2 MSTORE PUSH1 0x20 ADD PUSH1 0x0 DUP2 MSTORE PUSH1 0x20 ADD PUSH1 0x0 DUP2 MSTORE PUSH1 0x20 ADD PUSH1 0x0 DUP2 MSTORE PUSH1 0x20 ADD PUSH1 0x0 ISZERO ISZERO DUP2 MSTORE PUSH1 0x20 ADD PUSH1 0x0 DUP2 MSTORE PUSH1 0x20 ADD PUSH1 0x0 ISZERO ISZERO DUP2 MSTORE PUSH1 0x20 ADD PUSH1 0x0 DUP2 MSTORE PUSH1 0x20 ADD PUSH1 0x0 DUP2 MSTORE PUSH1 0x20 ADD PUSH1 0x0 DUP2 MSTORE PUSH1 0x20 ADD PUSH1 0x60 DUP2 MSTORE POP SWAP1 JUMP JUMPDEST PUSH1 0x0 DUP2 MLOAD DUP1 DUP5 MSTORE PUSH1 0x0 JUMPDEST DUP2 DUP2 LT ISZERO PUSH2 0x2AB8 JUMPI PUSH1 0x20 DUP2 DUP6 ADD DUP2 ADD MLOAD DUP7 DUP4 ADD DUP3 ADD MSTORE ADD PUSH2 0x2A9C JUMP JUMPDEST POP PUSH1 0x0 PUSH1 0x20 DUP3 DUP7 ADD ADD MSTORE PUSH1 0x20 PUSH1 0x1F NOT PUSH1 0x1F DUP4 ADD AND DUP6 ADD ADD SWAP2 POP POP SWAP3 SWAP2 POP POP JUMP JUMPDEST PUSH1 0x20 DUP2 MSTORE PUSH1 0x0 PUSH2 0x2AEB PUSH1 0x20 DUP4 ADD DUP5 PUSH2 0x2A92 JUMP JUMPDEST SWAP4 SWAP3 POP POP POP JUMP JUMPDEST DUP1 CALLDATALOAD PUSH1 0x1 PUSH1 0x1 PUSH1 0xA0 SHL SUB DUP2 AND DUP2 EQ PUSH2 0x2B09 JUMPI PUSH1 0x0 DUP1 REVERT JUMPDEST SWAP2 SWAP1 POP JUMP JUMPDEST PUSH1 0x0 DUP1 PUSH1 0x40 DUP4 DUP6 SUB SLT ISZERO PUSH2 0x2B21 JUMPI PUSH1 0x0 DUP1 REVERT JUMPDEST PUSH2 0x2B2A DUP4 PUSH2 0x2AF2 JUMP JUMPDEST SWAP5 PUSH1 0x20 SWAP4 SWAP1 SWAP4 ADD CALLDATALOAD SWAP4 POP POP POP JUMP JUMPDEST PUSH1 0x0 DUP1 PUSH1 0x40 DUP4 DUP6 SUB SLT ISZERO PUSH2 0x2B4B JUMPI PUSH1 0x0 DUP1 REVERT JUMPDEST POP POP DUP1 CALLDATALOAD SWAP3 PUSH1 0x20 SWAP1 SWAP2 ADD CALLDATALOAD SWAP2 POP JUMP JUMPDEST PUSH1 0x0 DUP1 PUSH1 0x40 DUP4 DUP6 SUB SLT ISZERO PUSH2 0x2B6D JUMPI PUSH1 0x0 DUP1 REVERT JUMPDEST DUP3 CALLDATALOAD SWAP2 POP PUSH2 0x2B7D PUSH1 0x20 DUP5 ADD PUSH2 0x2AF2 JUMP JUMPDEST SWAP1 POP SWAP3 POP SWAP3 SWAP1 POP JUMP JUMPDEST PUSH1 0x0 PUSH2 0x180 DUP3 MLOAD DUP5 MSTORE PUSH1 0x20 DUP4 ADD MLOAD PUSH2 0x2BA9 PUSH1 0x20 DUP7 ADD DUP3 PUSH1 0x1 PUSH1 0x1 PUSH1 0xA0 SHL SUB AND SWAP1 MSTORE JUMP JUMPDEST POP PUSH1 0x40 DUP4 ADD MLOAD PUSH1 0x40 DUP6 ADD MSTORE PUSH1 0x60 DUP4 ADD MLOAD PUSH1 0x60 DUP6 ADD MSTORE PUSH1 0x80 DUP4 ADD MLOAD PUSH1 0x80 DUP6 ADD MSTORE PUSH1 0xA0 DUP4 ADD MLOAD PUSH2 0x2BDB PUSH1 0xA0 DUP7 ADD DUP3 ISZERO ISZERO SWAP1 MSTORE JUMP JUMPDEST POP PUSH1 0xC0 DUP4 ADD MLOAD PUSH1 0xC0 DUP6 ADD MSTORE PUSH1 0xE0 DUP4 ADD MLOAD PUSH2 0x2BF9 PUSH1 0xE0 DUP7 ADD DUP3 ISZERO ISZERO SWAP1 MSTORE JUMP JUMPDEST POP PUSH2 0x100 DUP4 DUP2 ADD MLOAD SWAP1 DUP6 ADD MSTORE PUSH2 0x120 DUP1 DUP5 ADD MLOAD SWAP1 DUP6 ADD MSTORE PUSH2 0x140 DUP1 DUP5 ADD MLOAD SWAP1 DUP6 ADD MSTORE PUSH2 0x160 DUP1 DUP5 ADD MLOAD DUP2 DUP7 ADD DUP4 SWAP1 MSTORE PUSH2 0x2C34 DUP4 DUP8 ADD DUP3 PUSH2 0x2A92 JUMP JUMPDEST SWAP7 SWAP6 POP POP POP POP POP POP JUMP JUMPDEST PUSH1 0x0 PUSH1 0x20 DUP1 DUP4 ADD DUP2 DUP5 MSTORE DUP1 DUP6 MLOAD DUP1 DUP4 MSTORE PUSH1 0x40 DUP7 ADD SWAP2 POP PUSH1 0x40 DUP2 PUSH1 0x5 SHL DUP8 ADD ADD SWAP3 POP DUP4 DUP8 ADD PUSH1 0x0 JUMPDEST DUP3 DUP2 LT ISZERO PUSH2 0x2C93 JUMPI PUSH1 0x3F NOT DUP9 DUP7 SUB ADD DUP5 MSTORE PUSH2 0x2C81 DUP6 DUP4 MLOAD PUSH2 0x2B86 JUMP JUMPDEST SWAP5 POP SWAP3 DUP6 ADD SWAP3 SWAP1 DUP6 ADD SWAP1 PUSH1 0x1 ADD PUSH2 0x2C65 JUMP JUMPDEST POP SWAP3 SWAP8 SWAP7 POP POP POP POP POP POP POP JUMP JUMPDEST PUSH1 0x0 DUP1 PUSH1 0x0 PUSH1 0x60 DUP5 DUP7 SUB SLT ISZERO PUSH2 0x2CB5 JUMPI PUSH1 0x0 DUP1 REVERT JUMPDEST PUSH2 0x2CBE DUP5 PUSH2 0x2AF2 JUMP JUMPDEST SWAP3 POP PUSH2 0x2CCC PUSH1 0x20 DUP6 ADD PUSH2 0x2AF2 JUMP JUMPDEST SWAP2 POP PUSH1 0x40 DUP5 ADD CALLDATALOAD SWAP1 POP SWAP3 POP SWAP3 POP SWAP3 JUMP JUMPDEST PUSH1 0x0 PUSH1 0x20 DUP3 DUP5 SUB SLT ISZERO PUSH2 0x2CEE JUMPI PUSH1 0x0 DUP1 REVERT JUMPDEST POP CALLDATALOAD SWAP2 SWAP1 POP JUMP JUMPDEST PUSH1 0x20 DUP1 DUP3 MSTORE DUP3 MLOAD DUP3 DUP3 ADD DUP2 SWAP1 MSTORE PUSH1 0x0 SWAP2 SWAP1 DUP5 DUP3 ADD SWAP1 PUSH1 0x40 DUP6 ADD SWAP1 DUP5 JUMPDEST DUP2 DUP2 LT ISZERO PUSH2 0x2D2D JUMPI DUP4 MLOAD DUP4 MSTORE SWAP3 DUP5 ADD SWAP3 SWAP2 DUP5 ADD SWAP2 PUSH1 0x1 ADD PUSH2 0x2D11 JUMP JUMPDEST POP SWAP1 SWAP7 SWAP6 POP POP POP POP POP POP JUMP JUMPDEST PUSH1 0x20 DUP2 MSTORE PUSH1 0x0 PUSH2 0x2AEB PUSH1 0x20 DUP4 ADD DUP5 PUSH2 0x2B86 JUMP JUMPDEST PUSH1 0x0 PUSH1 0x20 DUP3 DUP5 SUB SLT ISZERO PUSH2 0x2D5E JUMPI PUSH1 0x0 DUP1 REVERT JUMPDEST PUSH2 0x2AEB DUP3 PUSH2 0x2AF2 JUMP JUMPDEST PUSH1 0x0 DUP1 PUSH1 0x0 DUP1 PUSH1 0x80 DUP6 DUP8 SUB SLT ISZERO PUSH2 0x2D7D JUMPI PUSH1 0x0 DUP1 REVERT JUMPDEST DUP5 CALLDATALOAD SWAP4 POP PUSH1 0x20 DUP6 ADD CALLDATALOAD SWAP3 POP PUSH2 0x2D94 PUSH1 0x40 DUP7 ADD PUSH2 0x2AF2 JUMP JUMPDEST SWAP4 SWAP7 SWAP3 SWAP6 POP SWAP3 SWAP4 PUSH1 0x60 ADD CALLDATALOAD SWAP3 POP POP JUMP JUMPDEST PUSH4 0x4E487B71 PUSH1 0xE0 SHL PUSH1 0x0 MSTORE PUSH1 0x41 PUSH1 0x4 MSTORE PUSH1 0x24 PUSH1 0x0 REVERT JUMPDEST PUSH1 0x0 DUP1 PUSH1 0x0 PUSH1 0x60 DUP5 DUP7 SUB SLT ISZERO PUSH2 0x2DCF JUMPI PUSH1 0x0 DUP1 REVERT JUMPDEST DUP4 CALLDATALOAD SWAP3 POP PUSH1 0x20 DUP5 ADD CALLDATALOAD SWAP2 POP PUSH1 0x40 DUP5 ADD CALLDATALOAD PUSH8 0xFFFFFFFFFFFFFFFF DUP1 DUP3 GT ISZERO PUSH2 0x2DF5 JUMPI PUSH1 0x0 DUP1 REVERT JUMPDEST DUP2 DUP7 ADD SWAP2 POP DUP7 PUSH1 0x1F DUP4 ADD SLT PUSH2 0x2E09 JUMPI PUSH1 0x0 DUP1 REVERT JUMPDEST DUP2 CALLDATALOAD DUP2 DUP2 GT ISZERO PUSH2 0x2E1B JUMPI PUSH2 0x2E1B PUSH2 0x2DA4 JUMP JUMPDEST PUSH1 0x40 MLOAD PUSH1 0x1F DUP3 ADD PUSH1 0x1F NOT SWAP1 DUP2 AND PUSH1 0x3F ADD AND DUP2 ADD SWAP1 DUP4 DUP3 GT DUP2 DUP4 LT OR ISZERO PUSH2 0x2E43 JUMPI PUSH2 0x2E43 PUSH2 0x2DA4 JUMP JUMPDEST DUP2 PUSH1 0x40 MSTORE DUP3 DUP2 MSTORE DUP10 PUSH1 0x20 DUP5 DUP8 ADD ADD GT ISZERO PUSH2 0x2E5C JUMPI PUSH1 0x0 DUP1 REVERT JUMPDEST DUP3 PUSH1 0x20 DUP7 ADD PUSH1 0x20 DUP4 ADD CALLDATACOPY PUSH1 0x0 PUSH1 0x20 DUP5 DUP4 ADD ADD MSTORE DUP1 SWAP6 POP POP POP POP POP POP SWAP3 POP SWAP3 POP SWAP3 JUMP JUMPDEST PUSH1 0x0 DUP1 PUSH1 0x40 DUP4 DUP6 SUB SLT ISZERO PUSH2 0x2E91 JUMPI PUSH1 0x0 DUP1 REVERT JUMPDEST PUSH2 0x2E9A DUP4 PUSH2 0x2AF2 JUMP JUMPDEST SWAP2 POP PUSH2 0x2B7D PUSH1 0x20 DUP5 ADD PUSH2 0x2AF2 JUMP JUMPDEST PUSH1 0x0 PUSH2 0x180 DUP15 DUP4 MSTORE PUSH1 0x1 DUP1 PUSH1 0xA0 SHL SUB DUP15 AND PUSH1 0x20 DUP5 ADD MSTORE DUP13 PUSH1 0x40 DUP5 ADD MSTORE DUP12 PUSH1 0x60 DUP5 ADD MSTORE DUP11 PUSH1 0x80 DUP5 ADD MSTORE DUP10 ISZERO ISZERO PUSH1 0xA0 DUP5 ADD MSTORE DUP9 PUSH1 0xC0 DUP5 ADD MSTORE DUP8 ISZERO ISZERO PUSH1 0xE0 DUP5 ADD MSTORE DUP7 PUSH2 0x100 DUP5 ADD MSTORE DUP6 PUSH2 0x120 DUP5 ADD MSTORE DUP5 PUSH2 0x140 DUP5 ADD MSTORE DUP1 PUSH2 0x160 DUP5 ADD MSTORE PUSH2 0x2F0E DUP2 DUP5 ADD DUP6 PUSH2 0x2A92 JUMP JUMPDEST SWAP16 SWAP15 POP POP POP POP POP POP POP POP POP POP POP POP POP POP POP JUMP JUMPDEST PUSH1 0x1 DUP2 DUP2 SHR SWAP1 DUP3 AND DUP1 PUSH2 0x2F35 JUMPI PUSH1 0x7F DUP3 AND SWAP2 POP JUMPDEST PUSH1 0x20 DUP3 LT DUP2 SUB PUSH2 0x2F55 JUMPI PUSH4 0x4E487B71 PUSH1 0xE0 SHL PUSH1 0x0 MSTORE PUSH1 0x22 PUSH1 0x4 MSTORE PUSH1 0x24 PUSH1 0x0 REVERT JUMPDEST POP SWAP2 SWAP1 POP JUMP JUMPDEST PUSH4 0x4E487B71 PUSH1 0xE0 SHL PUSH1 0x0 MSTORE PUSH1 0x11 PUSH1 0x4 MSTORE PUSH1 0x24 PUSH1 0x0 REVERT JUMPDEST PUSH1 0x0 PUSH1 0x1 DUP3 ADD PUSH2 0x2F83 JUMPI PUSH2 0x2F83 PUSH2 0x2F5B JUMP JUMPDEST POP PUSH1 0x1 ADD SWAP1 JUMP JUMPDEST PUSH4 0x4E487B71 PUSH1 0xE0 SHL PUSH1 0x0 MSTORE PUSH1 0x32 PUSH1 0x4 MSTORE PUSH1 0x24 PUSH1 0x0 REVERT JUMPDEST PUSH1 0x20 DUP1 DUP3 MSTORE PUSH1 0x9 SWAP1 DUP3 ADD MSTORE PUSH9 0x2737BA1037BBB732B9 PUSH1 0xB9 SHL PUSH1 0x40 DUP3 ADD MSTORE PUSH1 0x60 ADD SWAP1 JUMP JUMPDEST DUP1 DUP3 ADD DUP1 DUP3 GT ISZERO PUSH2 0x779 JUMPI PUSH2 0x779 PUSH2 0x2F5B JUMP JUMPDEST DUP1 DUP3 MUL DUP2 ISZERO DUP3 DUP3 DIV DUP5 EQ OR PUSH2 0x779 JUMPI PUSH2 0x779 PUSH2 0x2F5B JUMP JUMPDEST PUSH1 0x20 DUP1 DUP3 MSTORE PUSH1 0xF SWAP1 DUP3 ADD MSTORE PUSH15 0x496E636F72726563742076616C7565 PUSH1 0x88 SHL PUSH1 0x40 DUP3 ADD MSTORE PUSH1 0x60 ADD SWAP1 JUMP JUMPDEST PUSH1 0x0 DUP3 PUSH2 0x3033 JUMPI PUSH4 0x4E487B71 PUSH1 0xE0 SHL PUSH1 0x0 MSTORE PUSH1 0x12 PUSH1 0x4 MSTORE PUSH1 0x24 PUSH1 0x0 REVERT JUMPDEST POP DIV SWAP1 JUMP JUMPDEST DUP2 DUP2 SUB DUP2 DUP2 GT ISZERO PUSH2 0x779 JUMPI PUSH2 0x779 PUSH2 0x2F5B JUMP JUMPDEST PUSH1 0x1F DUP3 GT ISZERO PUSH2 0x2933 JUMPI PUSH1 0x0 DUP2 DUP2 MSTORE PUSH1 0x20 DUP2 KECCAK256 PUSH1 0x1F DUP6 ADD PUSH1 0x5 SHR DUP2 ADD PUSH1 0x20 DUP7 LT ISZERO PUSH2 0x3072 JUMPI POP DUP1 JUMPDEST PUSH1 0x1F DUP6 ADD PUSH1 0x5 SHR DUP3 ADD SWAP2 POP JUMPDEST DUP2 DUP2 LT ISZERO PUSH2 0x3091 JUMPI DUP3 DUP2 SSTORE PUSH1 0x1 ADD PUSH2 0x307E JUMP JUMPDEST POP POP POP POP POP POP JUMP JUMPDEST DUP2 MLOAD PUSH8 0xFFFFFFFFFFFFFFFF DUP2 GT ISZERO PUSH2 0x30B3 JUMPI PUSH2 0x30B3 PUSH2 0x2DA4 JUMP JUMPDEST PUSH2 0x30C7 DUP2 PUSH2 0x30C1 DUP5 SLOAD PUSH2 0x2F21 JUMP JUMPDEST DUP5 PUSH2 0x304B JUMP JUMPDEST PUSH1 0x20 DUP1 PUSH1 0x1F DUP4 GT PUSH1 0x1 DUP2 EQ PUSH2 0x30FC JUMPI PUSH1 0x0 DUP5 ISZERO PUSH2 0x30E4 JUMPI POP DUP6 DUP4 ADD MLOAD JUMPDEST PUSH1 0x0 NOT PUSH1 0x3 DUP7 SWAP1 SHL SHR NOT AND PUSH1 0x1 DUP6 SWAP1 SHL OR DUP6 SSTORE PUSH2 0x3091 JUMP JUMPDEST PUSH1 0x0 DUP6 DUP2 MSTORE PUSH1 0x20 DUP2 KECCAK256 PUSH1 0x1F NOT DUP7 AND SWAP2 JUMPDEST DUP3 DUP2 LT ISZERO PUSH2 0x312B JUMPI DUP9 DUP7 ADD MLOAD DUP3 SSTORE SWAP5 DUP5 ADD SWAP5 PUSH1 0x1 SWAP1 SWAP2 ADD SWAP1 DUP5 ADD PUSH2 0x310C JUMP JUMPDEST POP DUP6 DUP3 LT ISZERO PUSH2 0x3149 JUMPI DUP8 DUP6 ADD MLOAD PUSH1 0x0 NOT PUSH1 0x3 DUP9 SWAP1 SHL PUSH1 0xF8 AND SHR NOT AND DUP2 SSTORE JUMPDEST POP POP POP POP POP PUSH1 0x1 SWAP1 DUP2 SHL ADD SWAP1 SSTORE POP JUMP JUMPDEST DUP6 DUP2 MSTORE PUSH1 0x1 DUP1 PUSH1 0xA0 SHL SUB DUP6 AND PUSH1 0x20 DUP3 ADD MSTORE DUP4 PUSH1 0x40 DUP3 ADD MSTORE DUP3 PUSH1 0x60 DUP3 ADD MSTORE PUSH1 0xA0 PUSH1 0x80 DUP3 ADD MSTORE PUSH1 0x0 PUSH2 0x318C PUSH1 0xA0 DUP4 ADD DUP5 PUSH2 0x2A92 JUMP JUMPDEST SWAP8 SWAP7 POP POP POP POP POP POP POP JUMP JUMPDEST PUSH1 0x40 DUP2 MSTORE PUSH1 0x0 PUSH2 0x31AA PUSH1 0x40 DUP4 ADD DUP6 PUSH2 0x2A92 JUMP JUMPDEST SWAP1 POP DUP3 PUSH1 0x20 DUP4 ADD MSTORE SWAP4 SWAP3 POP POP POP JUMP INVALID PUSH17 0x726F70657274794672616374696F6E735B PUSH17 0x726F706572747949645D5B6D73672E7365 PUSH15 0x6465725D2070726F70657274794672 PUSH2 0x6374 PUSH10 0x6F6E735B70726F706572 PUSH21 0x7949645D5B70726F70657274792E6F776E65725D20 LOG2 PUSH5 0x6970667358 0x22 SLT KECCAK256 EQ 0xBF 0xCD AND 0xDE CALLDATASIZE SAR PUSH4 0xB5E68F3E SWAP14 0xE2 KECCAK256 SWAP5 0xD9 0xC1 0xAF NUMBER 0xAE DUP11 DUP15 PUSH10 0x1512BFBAC93ADDAB6473 PUSH16 0x6C634300081100330000000000000000 "},"gasEstimates":{"creation":{"codeDepositCost":"2574200","executionCost":"infinite","totalCost":"infinite"},"external":{"allowance(address,address)":"infinite","approve(address,uint256)":"24675","balanceOf(address)":"2608","buyFraction(uint256,uint256)":"infinite","decimals()":"245","decreaseAllowance(address,uint256)":"27040","deposit()":"2438","downer()":"2382","fetchETHBalance()":"2491","fetchForRent()":"infinite","fetchForSale()":"infinite","fetchFractionsOwned(uint256,address)":"2707","fetchFractionsSold(uint256)":"2533","fetchMyFractions()":"infinite","fetchMyPropertyRegistered()":"infinite","fractionOwners(uint256,uint256)":"4816","getListingPrice()":"2360","getPropertyById(uint256)":"infinite","increaseAllowance(address,uint256)":"infinite","listPropertyForRent(uint256,uint256)":"48843","listPropertyForSale(uint256,uint256)":"48888","listingPrice()":"2362","name()":"infinite","nextPropertyId()":"2407","properties(uint256)":"infinite","propertyFractions(uint256,address)":"2730","registerProperty(uint256,uint256,string)":"infinite","rentProperty(uint256,uint256)":"infinite","sellFraction(uint256,uint256,address,uint256)":"infinite","setListingPrice(uint256)":"24576","symbol()":"infinite","totalSupply()":"2382","transfer(address,uint256)":"51161","transferFrom(address,address,uint256)":"infinite","withdraw(uint256)":"infinite"}},"methodIdentifiers":{"allowance(address,address)":"dd62ed3e","approve(address,uint256)":"095ea7b3","balanceOf(address)":"70a08231","buyFraction(uint256,uint256)":"d40b0214","decimals()":"313ce567","decreaseAllowance(address,uint256)":"a457c2d7","deposit()":"d0e30db0","downer()":"c45eca47","fetchETHBalance()":"9797406e","fetchForRent()":"11a2aa13","fetchForSale()":"5875e899","fetchFractionsOwned(uint256,address)":"d2fce6dd","fetchFractionsSold(uint256)":"50a8bc99","fetchMyFractions()":"36fbab3b","fetchMyPropertyRegistered()":"bd82a1a3","fractionOwners(uint256,uint256)":"cf7dea36","getListingPrice()":"12e85585","getPropertyById(uint256)":"59fe18eb","increaseAllowance(address,uint256)":"39509351","listPropertyForRent(uint256,uint256)":"6503b36c","listPropertyForSale(uint256,uint256)":"0f55415b","listingPrice()":"c78f19f9","name()":"06fdde03","nextPropertyId()":"39500f34","properties(uint256)":"f7b10808","propertyFractions(uint256,address)":"1092974f","registerProperty(uint256,uint256,string)":"ccfc7f72","rentProperty(uint256,uint256)":"3ec4ebb7","sellFraction(uint256,uint256,address,uint256)":"78f81dde","setListingPrice(uint256)":"7c726b69","symbol()":"95d89b41","totalSupply()":"18160ddd","transfer(address,uint256)":"a9059cbb","transferFrom(address,address,uint256)":"23b872dd","withdraw(uint256)":"2e1a7d4d"}},"storageLayout":{"storage":[{"astId":15,"contract":"contracts/RealEstateFractionalize.sol:RealEstateFractionalize","label":"_balances","offset":0,"slot":"0","type":"t_mapping(t_address,t_uint256)"},{"astId":21,"contract":"contracts/RealEstateFractionalize.sol:RealEstateFractionalize","label":"_allowances","offset":0,"slot":"1","type":"t_mapping(t_address,t_mapping(t_address,t_uint256))"},{"astId":23,"contract":"contracts/RealEstateFractionalize.sol:RealEstateFractionalize","label":"_totalSupply","offset":0,"slot":"2","type":"t_uint256"},{"astId":25,"contract":"contracts/RealEstateFractionalize.sol:RealEstateFractionalize","label":"_name","offset":0,"slot":"3","type":"t_string_storage"},{"astId":27,"contract":"contracts/RealEstateFractionalize.sol:RealEstateFractionalize","label":"_symbol","offset":0,"slot":"4","type":"t_string_storage"},{"astId":744,"contract":"contracts/RealEstateFractionalize.sol:RealEstateFractionalize","label":"nextPropertyId","offset":0,"slot":"5","type":"t_uint256"},{"astId":747,"contract":"contracts/RealEstateFractionalize.sol:RealEstateFractionalize","label":"listingPrice","offset":0,"slot":"6","type":"t_uint256"},{"astId":749,"contract":"contracts/RealEstateFractionalize.sol:RealEstateFractionalize","label":"downer","offset":0,"slot":"7","type":"t_address"},{"astId":754,"contract":"contracts/RealEstateFractionalize.sol:RealEstateFractionalize","label":"properties","offset":0,"slot":"8","type":"t_mapping(t_uint256,t_struct(Property)742_storage)"},{"astId":760,"contract":"contracts/RealEstateFractionalize.sol:RealEstateFractionalize","label":"propertyFractions","offset":0,"slot":"9","type":"t_mapping(t_uint256,t_mapping(t_address,t_uint256))"},{"astId":765,"contract":"contracts/RealEstateFractionalize.sol:RealEstateFractionalize","label":"fractionOwners","offset":0,"slot":"10","type":"t_mapping(t_uint256,t_array(t_address)dyn_storage)"}],"types":{"t_address":{"encoding":"inplace","label":"address","numberOfBytes":"20"},"t_address_payable":{"encoding":"inplace","label":"address payable","numberOfBytes":"20"},"t_array(t_address)dyn_storage":{"base":"t_address","encoding":"dynamic_array","label":"address[]","numberOfBytes":"32"},"t_bool":{"encoding":"inplace","label":"bool","numberOfBytes":"1"},"t_mapping(t_address,t_mapping(t_address,t_uint256))":{"encoding":"mapping","key":"t_address","label":"mapping(address => mapping(address => uint256))","numberOfBytes":"32","value":"t_mapping(t_address,t_uint256)"},"t_mapping(t_address,t_uint256)":{"encoding":"mapping","key":"t_address","label":"mapping(address => uint256)","numberOfBytes":"32","value":"t_uint256"},"t_mapping(t_uint256,t_array(t_address)dyn_storage)":{"encoding":"mapping","key":"t_uint256","label":"mapping(uint256 => address[])","numberOfBytes":"32","value":"t_array(t_address)dyn_storage"},"t_mapping(t_uint256,t_mapping(t_address,t_uint256))":{"encoding":"mapping","key":"t_uint256","label":"mapping(uint256 => mapping(address => uint256))","numberOfBytes":"32","value":"t_mapping(t_address,t_uint256)"},"t_mapping(t_uint256,t_struct(Property)742_storage)":{"encoding":"mapping","key":"t_uint256","label":"mapping(uint256 => struct RealEstateFractionalize.Property)","numberOfBytes":"32","value":"t_struct(Property)742_storage"},"t_string_storage":{"encoding":"bytes","label":"string","numberOfBytes":"32"},"t_struct(Property)742_storage":{"encoding":"inplace","label":"struct RealEstateFractionalize.Property","members":[{"astId":719,"contract":"contracts/RealEstateFractionalize.sol:RealEstateFractionalize","label":"id","offset":0,"slot":"0","type":"t_uint256"},{"astId":721,"contract":"contracts/RealEstateFractionalize.sol:RealEstateFractionalize","label":"owner","offset":0,"slot":"1","type":"t_address_payable"},{"astId":723,"contract":"contracts/RealEstateFractionalize.sol:RealEstateFractionalize","label":"value","offset":0,"slot":"2","type":"t_uint256"},{"astId":725,"contract":"contracts/RealEstateFractionalize.sol:RealEstateFractionalize","label":"totalFractions","offset":0,"slot":"3","type":"t_uint256"},{"astId":727,"contract":"contracts/RealEstateFractionalize.sol:RealEstateFractionalize","label":"fractionsSold","offset":0,"slot":"4","type":"t_uint256"},{"astId":729,"contract":"contracts/RealEstateFractionalize.sol:RealEstateFractionalize","label":"forSale","offset":0,"slot":"5","type":"t_bool"},{"astId":731,"contract":"contracts/RealEstateFractionalize.sol:RealEstateFractionalize","label":"salePrice","offset":0,"slot":"6","type":"t_uint256"},{"astId":733,"contract":"contracts/RealEstateFractionalize.sol:RealEstateFractionalize","label":"forRent","offset":0,"slot":"7","type":"t_bool"},{"astId":735,"contract":"contracts/RealEstateFractionalize.sol:RealEstateFractionalize","label":"rentPrice","offset":0,"slot":"8","type":"t_uint256"},{"astId":737,"contract":"contracts/RealEstateFractionalize.sol:RealEstateFractionalize","label":"rentedUntil","offset":0,"slot":"9","type":"t_uint256"},{"astId":739,"contract":"contracts/RealEstateFractionalize.sol:RealEstateFractionalize","label":"rentedDays","offset":0,"slot":"10","type":"t_uint256"},{"astId":741,"contract":"contracts/RealEstateFractionalize.sol:RealEstateFractionalize","label":"propertyURI","offset":0,"slot":"11","type":"t_string_storage"}],"numberOfBytes":"384"},"t_uint256":{"encoding":"inplace","label":"uint256","numberOfBytes":"32"}}},"userdoc":{"kind":"user","methods":{},"version":1}}}}