{
  "address": "0x09c67f656805d3B4CB544ce11683928e62a9c4d7",
  "abi": [
    {
      "inputs": [],
      "stateMutability": "nonpayable",
      "type": "constructor"
    },
    {
      "anonymous": false,
      "inputs": [
        {
          "indexed": true,
          "internalType": "address",
          "name": "owner",
          "type": "address"
        },
        {
          "indexed": true,
          "internalType": "address",
          "name": "spender",
          "type": "address"
        },
        {
          "indexed": false,
          "internalType": "uint256",
          "name": "value",
          "type": "uint256"
        }
      ],
      "name": "Approval",
      "type": "event"
    },
    {
      "anonymous": false,
      "inputs": [
        {
          "indexed": false,
          "internalType": "uint256",
          "name": "propertyId",
          "type": "uint256"
        },
        {
          "indexed": false,
          "internalType": "address",
          "name": "buyer",
          "type": "address"
        },
        {
          "indexed": false,
          "internalType": "uint256",
          "name": "fractionAmount",
          "type": "uint256"
        }
      ],
      "name": "FractionBought",
      "type": "event"
    },
    {
      "anonymous": false,
      "inputs": [
        {
          "indexed": false,
          "internalType": "uint256",
          "name": "propertyId",
          "type": "uint256"
        },
        {
          "indexed": false,
          "internalType": "address",
          "name": "seller",
          "type": "address"
        },
        {
          "indexed": false,
          "internalType": "uint256",
          "name": "fractionAmount",
          "type": "uint256"
        },
        {
          "indexed": false,
          "internalType": "address",
          "name": "buyer",
          "type": "address"
        }
      ],
      "name": "FractionSold",
      "type": "event"
    },
    {
      "anonymous": false,
      "inputs": [
        {
          "indexed": false,
          "internalType": "uint256",
          "name": "id",
          "type": "uint256"
        },
        {
          "indexed": false,
          "internalType": "address",
          "name": "owner",
          "type": "address"
        },
        {
          "indexed": false,
          "internalType": "uint256",
          "name": "value",
          "type": "uint256"
        },
        {
          "indexed": false,
          "internalType": "uint256",
          "name": "totalFractions",
          "type": "uint256"
        },
        {
          "indexed": false,
          "internalType": "string",
          "name": "propertyURI",
          "type": "string"
        }
      ],
      "name": "PropertyRegistered",
      "type": "event"
    },
    {
      "anonymous": false,
      "inputs": [
        {
          "indexed": false,
          "internalType": "uint256",
          "name": "id",
          "type": "uint256"
        },
        {
          "indexed": false,
          "internalType": "address",
          "name": "renter",
          "type": "address"
        },
        {
          "indexed": false,
          "internalType": "uint256",
          "name": "rentPrice",
          "type": "uint256"
        },
        {
          "indexed": false,
          "internalType": "uint256",
          "name": "rentedDays",
          "type": "uint256"
        }
      ],
      "name": "PropertyRented",
      "type": "event"
    },
    {
      "anonymous": false,
      "inputs": [
        {
          "indexed": false,
          "internalType": "address",
          "name": "",
          "type": "address"
        },
        {
          "indexed": false,
          "internalType": "uint256",
          "name": "",
          "type": "uint256"
        }
      ],
      "name": "Received",
      "type": "event"
    },
    {
      "anonymous": false,
      "inputs": [
        {
          "indexed": true,
          "internalType": "address",
          "name": "from",
          "type": "address"
        },
        {
          "indexed": true,
          "internalType": "address",
          "name": "to",
          "type": "address"
        },
        {
          "indexed": false,
          "internalType": "uint256",
          "name": "value",
          "type": "uint256"
        }
      ],
      "name": "Transfer",
      "type": "event"
    },
    {
      "inputs": [
        {
          "internalType": "address",
          "name": "owner",
          "type": "address"
        },
        {
          "internalType": "address",
          "name": "spender",
          "type": "address"
        }
      ],
      "name": "allowance",
      "outputs": [
        {
          "internalType": "uint256",
          "name": "",
          "type": "uint256"
        }
      ],
      "stateMutability": "view",
      "type": "function"
    },
    {
      "inputs": [
        {
          "internalType": "address",
          "name": "spender",
          "type": "address"
        },
        {
          "internalType": "uint256",
          "name": "amount",
          "type": "uint256"
        }
      ],
      "name": "approve",
      "outputs": [
        {
          "internalType": "bool",
          "name": "",
          "type": "bool"
        }
      ],
      "stateMutability": "nonpayable",
      "type": "function"
    },
    {
      "inputs": [
        {
          "internalType": "address",
          "name": "account",
          "type": "address"
        }
      ],
      "name": "balanceOf",
      "outputs": [
        {
          "internalType": "uint256",
          "name": "",
          "type": "uint256"
        }
      ],
      "stateMutability": "view",
      "type": "function"
    },
    {
      "inputs": [
        {
          "internalType": "uint256",
          "name": "propertyId",
          "type": "uint256"
        },
        {
          "internalType": "uint256",
          "name": "fractionAmount",
          "type": "uint256"
        }
      ],
      "name": "buyFraction",
      "outputs": [],
      "stateMutability": "payable",
      "type": "function"
    },
    {
      "inputs": [],
      "name": "decimals",
      "outputs": [
        {
          "internalType": "uint8",
          "name": "",
          "type": "uint8"
        }
      ],
      "stateMutability": "view",
      "type": "function"
    },
    {
      "inputs": [
        {
          "internalType": "address",
          "name": "spender",
          "type": "address"
        },
        {
          "internalType": "uint256",
          "name": "subtractedValue",
          "type": "uint256"
        }
      ],
      "name": "decreaseAllowance",
      "outputs": [
        {
          "internalType": "bool",
          "name": "",
          "type": "bool"
        }
      ],
      "stateMutability": "nonpayable",
      "type": "function"
    },
    {
      "inputs": [],
      "name": "deposit",
      "outputs": [],
      "stateMutability": "payable",
      "type": "function"
    },
    {
      "inputs": [],
      "name": "downer",
      "outputs": [
        {
          "internalType": "address",
          "name": "",
          "type": "address"
        }
      ],
      "stateMutability": "view",
      "type": "function"
    },
    {
      "inputs": [],
      "name": "fetchETHBalance",
      "outputs": [
        {
          "internalType": "uint256",
          "name": "",
          "type": "uint256"
        }
      ],
      "stateMutability": "view",
      "type": "function"
    },
    {
      "inputs": [],
      "name": "fetchForRent",
      "outputs": [
        {
          "components": [
            {
              "internalType": "uint256",
              "name": "id",
              "type": "uint256"
            },
            {
              "internalType": "address payable",
              "name": "owner",
              "type": "address"
            },
            {
              "internalType": "uint256",
              "name": "value",
              "type": "uint256"
            },
            {
              "internalType": "uint256",
              "name": "totalFractions",
              "type": "uint256"
            },
            {
              "internalType": "uint256",
              "name": "fractionsSold",
              "type": "uint256"
            },
            {
              "internalType": "bool",
              "name": "forSale",
              "type": "bool"
            },
            {
              "internalType": "uint256",
              "name": "salePrice",
              "type": "uint256"
            },
            {
              "internalType": "bool",
              "name": "forRent",
              "type": "bool"
            },
            {
              "internalType": "uint256",
              "name": "rentPrice",
              "type": "uint256"
            },
            {
              "internalType": "uint256",
              "name": "rentedUntil",
              "type": "uint256"
            },
            {
              "internalType": "uint256",
              "name": "rentedDays",
              "type": "uint256"
            },
            {
              "internalType": "string",
              "name": "propertyURI",
              "type": "string"
            }
          ],
          "internalType": "struct RealEstateFractionalize.Property[]",
          "name": "",
          "type": "tuple[]"
        }
      ],
      "stateMutability": "view",
      "type": "function"
    },
    {
      "inputs": [],
      "name": "fetchForSale",
      "outputs": [
        {
          "components": [
            {
              "internalType": "uint256",
              "name": "id",
              "type": "uint256"
            },
            {
              "internalType": "address payable",
              "name": "owner",
              "type": "address"
            },
            {
              "internalType": "uint256",
              "name": "value",
              "type": "uint256"
            },
            {
              "internalType": "uint256",
              "name": "totalFractions",
              "type": "uint256"
            },
            {
              "internalType": "uint256",
              "name": "fractionsSold",
              "type": "uint256"
            },
            {
              "internalType": "bool",
              "name": "forSale",
              "type": "bool"
            },
            {
              "internalType": "uint256",
              "name": "salePrice",
              "type": "uint256"
            },
            {
              "internalType": "bool",
              "name": "forRent",
              "type": "bool"
            },
            {
              "internalType": "uint256",
              "name": "rentPrice",
              "type": "uint256"
            },
            {
              "internalType": "uint256",
              "name": "rentedUntil",
              "type": "uint256"
            },
            {
              "internalType": "uint256",
              "name": "rentedDays",
              "type": "uint256"
            },
            {
              "internalType": "string",
              "name": "propertyURI",
              "type": "string"
            }
          ],
          "internalType": "struct RealEstateFractionalize.Property[]",
          "name": "",
          "type": "tuple[]"
        }
      ],
      "stateMutability": "view",
      "type": "function"
    },
    {
      "inputs": [
        {
          "internalType": "uint256",
          "name": "propertyId",
          "type": "uint256"
        },
        {
          "internalType": "address",
          "name": "owner",
          "type": "address"
        }
      ],
      "name": "fetchFractionsOwned",
      "outputs": [
        {
          "internalType": "uint256",
          "name": "",
          "type": "uint256"
        }
      ],
      "stateMutability": "view",
      "type": "function"
    },
    {
      "inputs": [
        {
          "internalType": "uint256",
          "name": "propertyId",
          "type": "uint256"
        }
      ],
      "name": "fetchFractionsSold",
      "outputs": [
        {
          "internalType": "uint256",
          "name": "",
          "type": "uint256"
        }
      ],
      "stateMutability": "view",
      "type": "function"
    },
    {
      "inputs": [],
      "name": "fetchMyFractions",
      "outputs": [
        {
          "internalType": "uint256[]",
          "name": "",
          "type": "uint256[]"
        }
      ],
      "stateMutability": "view",
      "type": "function"
    },
    {
      "inputs": [],
      "name": "fetchMyPropertyRegistered",
      "outputs": [
        {
          "components": [
            {
              "internalType": "uint256",
              "name": "id",
              "type": "uint256"
            },
            {
              "internalType": "address payable",
              "name": "owner",
              "type": "address"
            },
            {
              "internalType": "uint256",
              "name": "value",
              "type": "uint256"
            },
            {
              "internalType": "uint256",
              "name": "totalFractions",
              "type": "uint256"
            },
            {
              "internalType": "uint256",
              "name": "fractionsSold",
              "type": "uint256"
            },
            {
              "internalType": "bool",
              "name": "forSale",
              "type": "bool"
            },
            {
              "internalType": "uint256",
              "name": "salePrice",
              "type": "uint256"
            },
            {
              "internalType": "bool",
              "name": "forRent",
              "type": "bool"
            },
            {
              "internalType": "uint256",
              "name": "rentPrice",
              "type": "uint256"
            },
            {
              "internalType": "uint256",
              "name": "rentedUntil",
              "type": "uint256"
            },
            {
              "internalType": "uint256",
              "name": "rentedDays",
              "type": "uint256"
            },
            {
              "internalType": "string",
              "name": "propertyURI",
              "type": "string"
            }
          ],
          "internalType": "struct RealEstateFractionalize.Property[]",
          "name": "",
          "type": "tuple[]"
        }
      ],
      "stateMutability": "view",
      "type": "function"
    },
    {
      "inputs": [
        {
          "internalType": "uint256",
          "name": "",
          "type": "uint256"
        },
        {
          "internalType": "uint256",
          "name": "",
          "type": "uint256"
        }
      ],
      "name": "fractionOwners",
      "outputs": [
        {
          "internalType": "address",
          "name": "",
          "type": "address"
        }
      ],
      "stateMutability": "view",
      "type": "function"
    },
    {
      "inputs": [],
      "name": "getListingPrice",
      "outputs": [
        {
          "internalType": "uint256",
          "name": "",
          "type": "uint256"
        }
      ],
      "stateMutability": "view",
      "type": "function"
    },
    {
      "inputs": [
        {
          "internalType": "address",
          "name": "spender",
          "type": "address"
        },
        {
          "internalType": "uint256",
          "name": "addedValue",
          "type": "uint256"
        }
      ],
      "name": "increaseAllowance",
      "outputs": [
        {
          "internalType": "bool",
          "name": "",
          "type": "bool"
        }
      ],
      "stateMutability": "nonpayable",
      "type": "function"
    },
    {
      "inputs": [
        {
          "internalType": "uint256",
          "name": "propertyId",
          "type": "uint256"
        },
        {
          "internalType": "uint256",
          "name": "rentPrice",
          "type": "uint256"
        }
      ],
      "name": "listPropertyForRent",
      "outputs": [],
      "stateMutability": "nonpayable",
      "type": "function"
    },
    {
      "inputs": [
        {
          "internalType": "uint256",
          "name": "propertyId",
          "type": "uint256"
        },
        {
          "internalType": "uint256",
          "name": "salePrice",
          "type": "uint256"
        }
      ],
      "name": "listPropertyForSale",
      "outputs": [],
      "stateMutability": "nonpayable",
      "type": "function"
    },
    {
      "inputs": [],
      "name": "listingPrice",
      "outputs": [
        {
          "internalType": "uint256",
          "name": "",
          "type": "uint256"
        }
      ],
      "stateMutability": "view",
      "type": "function"
    },
    {
      "inputs": [],
      "name": "name",
      "outputs": [
        {
          "internalType": "string",
          "name": "",
          "type": "string"
        }
      ],
      "stateMutability": "view",
      "type": "function"
    },
    {
      "inputs": [],
      "name": "nextPropertyId",
      "outputs": [
        {
          "internalType": "uint256",
          "name": "",
          "type": "uint256"
        }
      ],
      "stateMutability": "view",
      "type": "function"
    },
    {
      "inputs": [
        {
          "internalType": "uint256",
          "name": "",
          "type": "uint256"
        }
      ],
      "name": "properties",
      "outputs": [
        {
          "internalType": "uint256",
          "name": "id",
          "type": "uint256"
        },
        {
          "internalType": "address payable",
          "name": "owner",
          "type": "address"
        },
        {
          "internalType": "uint256",
          "name": "value",
          "type": "uint256"
        },
        {
          "internalType": "uint256",
          "name": "totalFractions",
          "type": "uint256"
        },
        {
          "internalType": "uint256",
          "name": "fractionsSold",
          "type": "uint256"
        },
        {
          "internalType": "bool",
          "name": "forSale",
          "type": "bool"
        },
        {
          "internalType": "uint256",
          "name": "salePrice",
          "type": "uint256"
        },
        {
          "internalType": "bool",
          "name": "forRent",
          "type": "bool"
        },
        {
          "internalType": "uint256",
          "name": "rentPrice",
          "type": "uint256"
        },
        {
          "internalType": "uint256",
          "name": "rentedUntil",
          "type": "uint256"
        },
        {
          "internalType": "uint256",
          "name": "rentedDays",
          "type": "uint256"
        },
        {
          "internalType": "string",
          "name": "propertyURI",
          "type": "string"
        }
      ],
      "stateMutability": "view",
      "type": "function"
    },
    {
      "inputs": [
        {
          "internalType": "uint256",
          "name": "",
          "type": "uint256"
        },
        {
          "internalType": "address",
          "name": "",
          "type": "address"
        }
      ],
      "name": "propertyFractions",
      "outputs": [
        {
          "internalType": "uint256",
          "name": "",
          "type": "uint256"
        }
      ],
      "stateMutability": "view",
      "type": "function"
    },
    {
      "inputs": [
        {
          "internalType": "uint256",
          "name": "value",
          "type": "uint256"
        },
        {
          "internalType": "uint256",
          "name": "totalFractions",
          "type": "uint256"
        },
        {
          "internalType": "string",
          "name": "propertyURI",
          "type": "string"
        }
      ],
      "name": "registerProperty",
      "outputs": [],
      "stateMutability": "payable",
      "type": "function"
    },
    {
      "inputs": [
        {
          "internalType": "uint256",
          "name": "propertyId",
          "type": "uint256"
        },
        {
          "internalType": "uint256",
          "name": "rentDays",
          "type": "uint256"
        }
      ],
      "name": "rentProperty",
      "outputs": [],
      "stateMutability": "payable",
      "type": "function"
    },
    {
      "inputs": [
        {
          "internalType": "uint256",
          "name": "propertyId",
          "type": "uint256"
        },
        {
          "internalType": "uint256",
          "name": "fractionAmount",
          "type": "uint256"
        },
        {
          "internalType": "address",
          "name": "to",
          "type": "address"
        },
        {
          "internalType": "uint256",
          "name": "fractionPrice",
          "type": "uint256"
        }
      ],
      "name": "sellFraction",
      "outputs": [],
      "stateMutability": "payable",
      "type": "function"
    },
    {
      "inputs": [
        {
          "internalType": "uint256",
          "name": "price",
          "type": "uint256"
        }
      ],
      "name": "setListingPrice",
      "outputs": [],
      "stateMutability": "nonpayable",
      "type": "function"
    },
    {
      "inputs": [],
      "name": "symbol",
      "outputs": [
        {
          "internalType": "string",
          "name": "",
          "type": "string"
        }
      ],
      "stateMutability": "view",
      "type": "function"
    },
    {
      "inputs": [],
      "name": "totalSupply",
      "outputs": [
        {
          "internalType": "uint256",
          "name": "",
          "type": "uint256"
        }
      ],
      "stateMutability": "view",
      "type": "function"
    },
    {
      "inputs": [
        {
          "internalType": "address",
          "name": "to",
          "type": "address"
        },
        {
          "internalType": "uint256",
          "name": "amount",
          "type": "uint256"
        }
      ],
      "name": "transfer",
      "outputs": [
        {
          "internalType": "bool",
          "name": "",
          "type": "bool"
        }
      ],
      "stateMutability": "nonpayable",
      "type": "function"
    },
    {
      "inputs": [
        {
          "internalType": "address",
          "name": "from",
          "type": "address"
        },
        {
          "internalType": "address",
          "name": "to",
          "type": "address"
        },
        {
          "internalType": "uint256",
          "name": "amount",
          "type": "uint256"
        }
      ],
      "name": "transferFrom",
      "outputs": [
        {
          "internalType": "bool",
          "name": "",
          "type": "bool"
        }
      ],
      "stateMutability": "nonpayable",
      "type": "function"
    },
    {
      "inputs": [
        {
          "internalType": "uint256",
          "name": "amount",
          "type": "uint256"
        }
      ],
      "name": "withdraw",
      "outputs": [],
      "stateMutability": "nonpayable",
      "type": "function"
    },
    {
      "stateMutability": "payable",
      "type": "receive"
    }
  ],
  "transactionHash": "0x20fbbc09387e91801fa3cd35461bb020065f2217fec46f0e31e184f27b688f85",
  "args": [],
  "numDeployments": 1,
  "solcInputHash": "f25959f387026d371dc24ec78a7aaba4",
  "bytecode": "0x60806040526512309ce540006006553480156200001b57600080fd5b506040518060400160405280601481526020017f50726f706572747920426c6f636b20546f6b656e0000000000000000000000008152506040518060400160405280600381526020016214109560ea1b81525081600390816200007f919062000241565b5060046200008e828262000241565b5050600780546001600160a01b0319163317905550620000cc735b38da6a701c568545dcfcb03fcb875f56beddc468056bc75e2d63100000620000d2565b62000335565b6001600160a01b0382166200012d5760405162461bcd60e51b815260206004820152601f60248201527f45524332303a206d696e7420746f20746865207a65726f206164647265737300604482015260640160405180910390fd5b80600260008282546200014191906200030d565b90915550506001600160a01b038216600081815260208181526040808320805486019055518481527fddf252ad1be2c89b69c2b068fc378daa952ba7f163c4a11628f55a4df523b3ef910160405180910390a35050565b505050565b634e487b7160e01b600052604160045260246000fd5b600181811c90821680620001c857607f821691505b602082108103620001e957634e487b7160e01b600052602260045260246000fd5b50919050565b601f8211156200019857600081815260208120601f850160051c81016020861015620002185750805b601f850160051c820191505b81811015620002395782815560010162000224565b505050505050565b81516001600160401b038111156200025d576200025d6200019d565b62000275816200026e8454620001b3565b84620001ef565b602080601f831160018114620002ad5760008415620002945750858301515b600019600386901b1c1916600185901b17855562000239565b600085815260208120601f198616915b82811015620002de57888601518255948401946001909101908401620002bd565b5085821015620002fd5787850151600019600388901b60f8161c191681555b5050505050600190811b01905550565b808201808211156200032f57634e487b7160e01b600052601160045260246000fd5b92915050565b61303880620003456000396000f3fe6080604052600436106101fd5760003560e01c806370a082311161010d578063c45eca47116100a0578063d0e30db01161006f578063d0e30db0146105e5578063d2fce6dd146105ed578063d40b021414610630578063dd62ed3e14610643578063f7b108081461066357600080fd5b8063c45eca4714610564578063c78f19f91461059c578063ccfc7f72146105b2578063cf7dea36146105c557600080fd5b80639797406e116100dc5780639797406e146104fa578063a457c2d71461050f578063a9059cbb1461052f578063bd82a1a31461054f57600080fd5b806370a082311461047c57806378f81dde146104b25780637c726b69146104c557806395d89b41146104e557600080fd5b80632e1a7d4d11610190578063395093511161015f57806339509351146103e45780633ec4ebb71461040457806350a8bc99146104175780635875e899146104475780636503b36c1461045c57600080fd5b80632e1a7d4d14610370578063313ce5671461039057806336fbab3b146103ac57806339500f34146103ce57600080fd5b806311a2aa13116101cc57806311a2aa131461030457806312e855851461032657806318160ddd1461033b57806323b872dd1461035057600080fd5b806306fdde0314610241578063095ea7b31461026c5780630f55415b1461029c5780631092974f146102be57600080fd5b3661023c57604080513381523460208201527f88a5966d370b9919b20f3e2c13ff65706f196a4e32cc2c12bf57088f88525874910160405180910390a1005b600080fd5b34801561024d57600080fd5b5061025661069b565b6040516102639190612909565b60405180910390f35b34801561027857600080fd5b5061028c61028736600461293f565b61072d565b6040519015158152602001610263565b3480156102a857600080fd5b506102bc6102b7366004612969565b610747565b005b3480156102ca57600080fd5b506102f66102d936600461298b565b600960209081526000928352604080842090915290825290205481565b604051908152602001610263565b34801561031057600080fd5b506103196107bc565b60405161026391906129b7565b34801561033257600080fd5b506006546102f6565b34801561034757600080fd5b506002546102f6565b34801561035c57600080fd5b5061028c61036b366004612aa4565b610a04565b34801561037c57600080fd5b506102bc61038b366004612ae0565b610a28565b34801561039c57600080fd5b5060405160128152602001610263565b3480156103b857600080fd5b506103c1610a90565b6040516102639190612af9565b3480156103da57600080fd5b506102f660055481565b3480156103f057600080fd5b5061028c6103ff36600461293f565b610d62565b6102bc610412366004612969565b610d84565b34801561042357600080fd5b506102f6610432366004612ae0565b60009081526008602052604090206004015490565b34801561045357600080fd5b50610319611168565b34801561046857600080fd5b506102bc610477366004612969565b6113a7565b34801561048857600080fd5b506102f6610497366004612b3d565b6001600160a01b031660009081526020819052604090205490565b6102bc6104c0366004612b58565b611417565b3480156104d157600080fd5b506102bc6104e0366004612ae0565b611744565b3480156104f157600080fd5b50610256611773565b34801561050657600080fd5b506102f6611782565b34801561051b57600080fd5b5061028c61052a36600461293f565b6117b4565b34801561053b57600080fd5b5061028c61054a36600461293f565b61182f565b34801561055b57600080fd5b5061031961183d565b34801561057057600080fd5b50600754610584906001600160a01b031681565b6040516001600160a01b039091168152602001610263565b3480156105a857600080fd5b506102f660065481565b6102bc6105c0366004612bab565b611a8e565b3480156105d157600080fd5b506105846105e0366004612969565b611d3f565b6102bc611d77565b3480156105f957600080fd5b506102f661060836600461298b565b60009182526009602090815260408084206001600160a01b0393909316845291905290205490565b6102bc61063e366004612969565b611da3565b34801561064f57600080fd5b506102f661065e366004612c6f565b61218b565b34801561066f57600080fd5b5061068361067e366004612ae0565b6121b6565b6040516102639c9b9a99989796959493929190612c99565b6060600380546106aa90612d12565b80601f01602080910402602001604051908101604052809291908181526020018280546106d690612d12565b80156107235780601f106106f857610100808354040283529160200191610723565b820191906000526020600020905b81548152906001019060200180831161070657829003601f168201915b5050505050905090565b60003361073b8185856122b2565b60019150505b92915050565b600082815260086020526040902060018101546001600160a01b031633146107a65760405162461bcd60e51b815260206004820152600d60248201526c2737ba103a34329037bbb732b960991b60448201526064015b60405180910390fd5b60058101805460ff191660011790556006015550565b60606000805b6005548110156108065760008181526008602052604090206007015460ff16156107f457816107f081612d62565b9250505b806107fe81612d62565b9150506107c2565b5060008167ffffffffffffffff81111561082257610822612b95565b60405190808252806020026020018201604052801561085b57816020015b610848612855565b8152602001906001900390816108405790505b5090506000805b6005548110156109fb5760008181526008602052604090206007015460ff16156109e9576000818152600860208181526040928390208351610180810185528154815260018201546001600160a01b0316928101929092526002810154938201939093526003830154606082015260048301546080820152600583015460ff908116151560a0830152600684015460c0830152600784015416151560e0820152908201546101008201526009820154610120820152600a820154610140820152600b820180549192916101608401919061093b90612d12565b80601f016020809104026020016040519081016040528092919081815260200182805461096790612d12565b80156109b45780601f10610989576101008083540402835291602001916109b4565b820191906000526020600020905b81548152906001019060200180831161099757829003601f168201915b5050505050815250508383815181106109cf576109cf612d7b565b602002602001018190525081806109e590612d62565b9250505b806109f381612d62565b915050610862565b50909392505050565b600033610a128582856123d7565b610a1d858585612451565b506001949350505050565b6007546001600160a01b03163314610a525760405162461bcd60e51b815260040161079d90612d91565b6007546040516001600160a01b039091169082156108fc029083906000818181858888f19350505050158015610a8c573d6000803e3d6000fd5b5050565b60606000805b600554811015610adf57600081815260096020908152604080832033845290915290205415610acd5781610ac981612d62565b9250505b80610ad781612d62565b915050610a96565b5060008167ffffffffffffffff811115610afb57610afb612b95565b604051908082528060200260200182016040528015610b3457816020015b610b21612855565b815260200190600190039081610b195790505b50905060008267ffffffffffffffff811115610b5257610b52612b95565b604051908082528060200260200182016040528015610b7b578160200160208202803683370190505b5090506000805b600554811015610d5857600081815260096020908152604080832033845290915290205415610d46576000818152600860208181526040928390208351610180810185528154815260018201546001600160a01b0316928101929092526002810154938201939093526003830154606082015260048301546080820152600583015460ff908116151560a0830152600684015460c0830152600784015416151560e0820152908201546101008201526009820154610120820152600a820154610140820152600b8201805491929161016084019190610c6090612d12565b80601f0160208091040260200160405190810160405280929190818152602001828054610c8c90612d12565b8015610cd95780601f10610cae57610100808354040283529160200191610cd9565b820191906000526020600020905b815481529060010190602001808311610cbc57829003601f168201915b505050505081525050848381518110610cf457610cf4612d7b565b602090810291909101810191909152600082815260098252604080822033835290925220548351849084908110610d2d57610d2d612d7b565b602090810291909101015281610d4281612d62565b9250505b80610d5081612d62565b915050610b82565b5090949350505050565b60003361073b818585610d75838361218b565b610d7f9190612db4565b6122b2565b610db960405180604001604052806013815260200172022aa24102130b630b731b2902132b337b9329606d1b815250476125f5565b6000828152600860205260409020600781015460ff16610e135760405162461bcd60e51b8152602060048201526015602482015274141c9bdc195c9d1e481b9bdd08199bdc881c995b9d605a1b604482015260640161079d565b610e566040518060400160405280601781526020017f70726f70657274792e72656e746564556e74696c20697300000000000000000081525082600901546125f5565b610e8b604051806040016040528060138152602001720313637b1b5973a34b6b2b9ba30b6b81034b99606d1b815250426125f5565b4281600901541115610edf5760405162461bcd60e51b815260206004820152601760248201527f50726f706572747920616c72656164792072656e746564000000000000000000604482015260640161079d565b6000828260080154610ef19190612dc7565b9050803414610f125760405162461bcd60e51b815260040161079d90612dde565b60006103e8610f23346103e3612dc7565b610f2d9190612e07565b90506000610f3b8234612e29565b9050610f726040518060400160405280601381526020017202a3432903732ba2932b73a21b7b9ba1034b99606d1b815250836125f5565b610f9f6040518060400160405280600b81526020016a02a3432903332b29034b9960ad1b815250826125f5565b610fac8562015180612dc7565b610fb69042612db4565b84600901819055508484600a016000828254610fd29190612db4565b90915550506003840154600090610fe99084612e07565b905061102a6040518060400160405280601781526020017f5468652072656e745065724672616374696f6e20697320000000000000000000815250826125f5565b60005b6000888152600a60205260409020548110156110e1576000888152600a6020526040812080548390811061106357611063612d7b565b60009182526020808320909101548b83526009825260408084206001600160a01b0390921680855291909252912054909150816108fc6110a38387612dc7565b6040518115909202916000818181858888f193505050501580156110cb573d6000803e3d6000fd5b50505080806110d990612d62565b91505061102d565b506008850154604080518981523360208201528082019290925260608201889052517f83f582c38246e10118fca894a9512cb07f6c10aec67f1808c8ddd5db8810e5a99181900360800190a161115f6040518060400160405280601081526020016f022aa24102130b630b731b29022a722160851b815250476125f5565b50505050505050565b60606000805b6005548110156111b25760008181526008602052604090206005015460ff16156111a0578161119c81612d62565b9250505b806111aa81612d62565b91505061116e565b5060008167ffffffffffffffff8111156111ce576111ce612b95565b60405190808252806020026020018201604052801561120757816020015b6111f4612855565b8152602001906001900390816111ec5790505b5090506000805b6005548110156109fb5760008181526008602052604090206005015460ff1615611395576000818152600860208181526040928390208351610180810185528154815260018201546001600160a01b0316928101929092526002810154938201939093526003830154606082015260048301546080820152600583015460ff908116151560a0830152600684015460c0830152600784015416151560e0820152908201546101008201526009820154610120820152600a820154610140820152600b82018054919291610160840191906112e790612d12565b80601f016020809104026020016040519081016040528092919081815260200182805461131390612d12565b80156113605780601f1061133557610100808354040283529160200191611360565b820191906000526020600020905b81548152906001019060200180831161134357829003601f168201915b50505050508152505083838151811061137b5761137b612d7b565b6020026020010181905250818061139190612d62565b9250505b8061139f81612d62565b91505061120e565b600082815260086020526040902060018101546001600160a01b031633146114015760405162461bcd60e51b815260206004820152600d60248201526c2737ba103a34329037bbb732b960991b604482015260640161079d565b60078101805460ff191660011790556008015550565b61144c60405180604001604052806013815260200172022aa24102130b630b731b2902132b337b9329606d1b815250476125f5565b60008481526008602052604090206001600160a01b0383166114a25760405162461bcd60e51b815260206004820152600f60248201526e496e76616c6964206164647265737360881b604482015260640161079d565b60018101546001600160a01b031633036114fe5760405162461bcd60e51b815260206004820152601a60248201527f596f7520617265207468652050726f7065727479206f776e6572000000000000604482015260640161079d565b600085815260096020908152604080832033845290915290205484111561155e5760405162461bcd60e51b81526020600482015260146024820152734e6f7420656e6f756768206672616374696f6e7360601b604482015260640161079d565b600061156a8584612dc7565b905061159a6040518060400160405280600c81526020016b02a34329031b7b9ba1034b9960a51b815250826125f5565b8034146115b95760405162461bcd60e51b815260040161079d90612dde565b60006103e86115ca346103e3612dc7565b6115d49190612e07565b905060006115e28284612e29565b90506116116040518060400160405280600b81526020016a02a3432903332b29034b9960ad1b815250826125f5565b604051339083156108fc029084906000818181858888f1935050505015801561163e573d6000803e3d6000fd5b50611649338861263a565b6116538688612769565b60008881526009602090815260408083203384529091528120805489929061167c908490612e29565b909155505060008881526009602090815260408083206001600160a01b038a168452909152812080548992906116b3908490612db4565b9091555050604080518981523360208201529081018890526001600160a01b03871660608201527f30d8244e1d6b3f8ffaf165e67a9ba4d260733377fe3c64dc07fd78b7ea27b9089060800160405180910390a161173a60405180604001604052806011815260200170022aa24102130b630b731b2903630b9ba1607d1b815250476125f5565b5050505050505050565b6007546001600160a01b0316331461176e5760405162461bcd60e51b815260040161079d90612d91565b600655565b6060600480546106aa90612d12565b6007546000906001600160a01b031633146117af5760405162461bcd60e51b815260040161079d90612d91565b504790565b600033816117c2828661218b565b9050838110156118225760405162461bcd60e51b815260206004820152602560248201527f45524332303a2064656372656173656420616c6c6f77616e63652062656c6f77604482015264207a65726f60d81b606482015260840161079d565b610a1d82868684036122b2565b60003361073b818585612451565b60606000805b60055481101561189057600081815260086020526040902060010154336001600160a01b039091160361187e578161187a81612d62565b9250505b8061188881612d62565b915050611843565b5060008167ffffffffffffffff8111156118ac576118ac612b95565b6040519080825280602002602001820160405280156118e557816020015b6118d2612855565b8152602001906001900390816118ca5790505b5090506000805b6005548110156109fb57600081815260086020526040902060010154336001600160a01b0390911603611a7c576000818152600860208181526040928390208351610180810185528154815260018201546001600160a01b0316928101929092526002810154938201939093526003830154606082015260048301546080820152600583015460ff908116151560a0830152600684015460c0830152600784015416151560e0820152908201546101008201526009820154610120820152600a820154610140820152600b82018054919291610160840191906119ce90612d12565b80601f01602080910402602001604051908101604052809291908181526020018280546119fa90612d12565b8015611a475780601f10611a1c57610100808354040283529160200191611a47565b820191906000526020600020905b815481529060010190602001808311611a2a57829003601f168201915b505050505081525050838381518110611a6257611a62612d7b565b60200260200101819052508180611a7890612d62565b9250505b80611a8681612d62565b9150506118ec565b60008211611af05760405162461bcd60e51b815260206004820152602960248201527f546f74616c206672616374696f6e73206d7573742062652067726561746572206044820152687468616e207a65726f60b81b606482015260840161079d565b6006543414611b415760405162461bcd60e51b815260206004820152601760248201527f496e636f7272656374206c697374696e67207072696365000000000000000000604482015260640161079d565b6040518061018001604052806005548152602001336001600160a01b031681526020018481526020018381526020016000815260200160001515815260200160008152602001600015158152602001600081526020016000815260200160008152602001828152506008600060055481526020019081526020016000206000820151816000015560208201518160010160006101000a8154816001600160a01b0302191690836001600160a01b0316021790555060408201518160020155606082015181600301556080820151816004015560a08201518160050160006101000a81548160ff02191690831515021790555060c0820151816006015560e08201518160070160006101000a81548160ff0219169083151502179055506101008201518160080155610120820151816009015561014082015181600a015561016082015181600b019081611c949190612e8a565b50506005805460009081526009602090815260408083203380855290835281842088905584548452600a835281842080546001810182559085529290932090910180546001600160a01b03191683179055915491517f4412373545e6dccbfc2488ddcc8ff966a2e6f11db627e5e6facb0838617925029350611d1d929190879087908790612f4a565b60405180910390a160058054906000611d3583612d62565b9190505550505050565b600a6020528160005260406000208181548110611d5b57600080fd5b6000918252602090912001546001600160a01b03169150829050565b6007546001600160a01b03163314611da15760405162461bcd60e51b815260040161079d90612d91565b565b6000828152600860205260409020600581015460ff16611dfd5760405162461bcd60e51b815260206004820152601560248201527450726f7065727479206e6f7420666f722073616c6560581b604482015260640161079d565b60008160030154838360060154611e149190612dc7565b611e1e9190612e07565b9050611e4e6040518060400160405280600c81526020016b02a34329031b7b9ba1034b9960a51b815250826125f5565b60018201546001600160a01b03163303611eaa5760405162461bcd60e51b815260206004820152601a60248201527f596f7520617265207468652050726f7065727479206f776e6572000000000000604482015260640161079d565b803414611ec95760405162461bcd60e51b815260040161079d90612dde565b611ed33384612769565b60006103e8611ee4836103e3612dc7565b611eee9190612e07565b90506000611efc8284612e29565b9050611f2b6040518060400160405280600b81526020016a02a3432903332b29034b9960ad1b815250826125f5565b60018401546040516001600160a01b039091169083156108fc029084906000818181858888f19350505050158015611f67573d6000803e3d6000fd5b5060008681526009602090815260408083203384529091528120549003611ff5576000868152600a6020818152604080842080546001810182559085528285200180546001600160a01b031916339081179091558151808301835293845269024b739b4b2329034b3160b51b848401528a85526009835281852090855290915290912054611ff591906125f5565b60008681526009602090815260408083203384529091528120805487929061201e908490612db4565b925050819055506120606040518060600160405280602a8152602001612fab602a913960008881526009602090815260408083203384529091529020546125f5565b600086815260096020908152604080832060018801546001600160a01b0316845290915281208054879290612096908490612e29565b925050819055506120e56040518060600160405280602e8152602001612fd5602e9139600088815260096020908152604080832060018a01546001600160a01b031684529091529020546125f5565b848460040160008282546120f99190612db4565b925050819055506121436040518060400160405280601781526020017f70726f70657274792e6672616374696f6e73536f6c642000000000000000000081525085600401546125f5565b604080518781523360208201529081018690527fa09ee622b528975b330f6a8b76649135b6cd75be9b28a394a116b8dadbda87809060600160405180910390a1505050505050565b6001600160a01b03918216600090815260016020908152604080832093909416825291909152205490565b600860208190526000918252604090912080546001820154600283015460038401546004850154600586015460068701546007880154988801546009890154600a8a0154600b8b0180549a9c6001600160a01b03909a169b989a9799969860ff9687169895979096169593949293919261222f90612d12565b80601f016020809104026020016040519081016040528092919081815260200182805461225b90612d12565b80156122a85780601f1061227d576101008083540402835291602001916122a8565b820191906000526020600020905b81548152906001019060200180831161228b57829003601f168201915b505050505090508c565b6001600160a01b0383166123145760405162461bcd60e51b8152602060048201526024808201527f45524332303a20617070726f76652066726f6d20746865207a65726f206164646044820152637265737360e01b606482015260840161079d565b6001600160a01b0382166123755760405162461bcd60e51b815260206004820152602260248201527f45524332303a20617070726f766520746f20746865207a65726f206164647265604482015261737360f01b606482015260840161079d565b6001600160a01b0383811660008181526001602090815260408083209487168084529482529182902085905590518481527f8c5be1e5ebec7d5bd14f71427d1e84f3dd0314c0f7b2291e5b200ac8c7c3b92591015b60405180910390a3505050565b60006123e3848461218b565b9050600019811461244b578181101561243e5760405162461bcd60e51b815260206004820152601d60248201527f45524332303a20696e73756666696369656e7420616c6c6f77616e6365000000604482015260640161079d565b61244b84848484036122b2565b50505050565b6001600160a01b0383166124b55760405162461bcd60e51b815260206004820152602560248201527f45524332303a207472616e736665722066726f6d20746865207a65726f206164604482015264647265737360d81b606482015260840161079d565b6001600160a01b0382166125175760405162461bcd60e51b815260206004820152602360248201527f45524332303a207472616e7366657220746f20746865207a65726f206164647260448201526265737360e81b606482015260840161079d565b6001600160a01b0383166000908152602081905260409020548181101561258f5760405162461bcd60e51b815260206004820152602660248201527f45524332303a207472616e7366657220616d6f756e7420657863656564732062604482015265616c616e636560d01b606482015260840161079d565b6001600160a01b03848116600081815260208181526040808320878703905593871680835291849020805487019055925185815290927fddf252ad1be2c89b69c2b068fc378daa952ba7f163c4a11628f55a4df523b3ef910160405180910390a361244b565b610a8c828260405160240161260b929190612f88565b60408051601f198184030181529190526020810180516001600160e01b0316632d839cb360e21b179052612828565b6001600160a01b03821661269a5760405162461bcd60e51b815260206004820152602160248201527f45524332303a206275726e2066726f6d20746865207a65726f206164647265736044820152607360f81b606482015260840161079d565b6001600160a01b0382166000908152602081905260409020548181101561270e5760405162461bcd60e51b815260206004820152602260248201527f45524332303a206275726e20616d6f756e7420657863656564732062616c616e604482015261636560f01b606482015260840161079d565b6001600160a01b0383166000818152602081815260408083208686039055600280548790039055518581529192917fddf252ad1be2c89b69c2b068fc378daa952ba7f163c4a11628f55a4df523b3ef91016123ca565b505050565b6001600160a01b0382166127bf5760405162461bcd60e51b815260206004820152601f60248201527f45524332303a206d696e7420746f20746865207a65726f206164647265737300604482015260640161079d565b80600260008282546127d19190612db4565b90915550506001600160a01b038216600081815260208181526040808320805486019055518481527fddf252ad1be2c89b69c2b068fc378daa952ba7f163c4a11628f55a4df523b3ef910160405180910390a35050565b61283181612834565b50565b60006a636f6e736f6c652e6c6f679050600080835160208501845afa505050565b6040518061018001604052806000815260200160006001600160a01b0316815260200160008152602001600081526020016000815260200160001515815260200160008152602001600015158152602001600081526020016000815260200160008152602001606081525090565b6000815180845260005b818110156128e9576020818501810151868301820152016128cd565b506000602082860101526020601f19601f83011685010191505092915050565b60208152600061291c60208301846128c3565b9392505050565b80356001600160a01b038116811461293a57600080fd5b919050565b6000806040838503121561295257600080fd5b61295b83612923565b946020939093013593505050565b6000806040838503121561297c57600080fd5b50508035926020909101359150565b6000806040838503121561299e57600080fd5b823591506129ae60208401612923565b90509250929050565b60006020808301818452808551808352604092508286019150828160051b87010184880160005b83811015612a9657603f19898403018552815180518452878101516001600160a01b0316888501528681015187850152606080820151908501526080808201519085015260a08082015115159085015260c0808201519085015260e0808201511515908501526101008082015190850152610120808201519085015261014080820151908501526101609081015161018091850182905290612a82818601836128c3565b9689019694505050908601906001016129de565b509098975050505050505050565b600080600060608486031215612ab957600080fd5b612ac284612923565b9250612ad060208501612923565b9150604084013590509250925092565b600060208284031215612af257600080fd5b5035919050565b6020808252825182820181905260009190848201906040850190845b81811015612b3157835183529284019291840191600101612b15565b50909695505050505050565b600060208284031215612b4f57600080fd5b61291c82612923565b60008060008060808587031215612b6e57600080fd5b8435935060208501359250612b8560408601612923565b9396929550929360600135925050565b634e487b7160e01b600052604160045260246000fd5b600080600060608486031215612bc057600080fd5b8335925060208401359150604084013567ffffffffffffffff80821115612be657600080fd5b818601915086601f830112612bfa57600080fd5b813581811115612c0c57612c0c612b95565b604051601f8201601f19908116603f01168101908382118183101715612c3457612c34612b95565b81604052828152896020848701011115612c4d57600080fd5b8260208601602083013760006020848301015280955050505050509250925092565b60008060408385031215612c8257600080fd5b612c8b83612923565b91506129ae60208401612923565b60006101808e835260018060a01b038e1660208401528c60408401528b60608401528a608084015289151560a08401528860c084015287151560e084015286610100840152856101208401528461014084015280610160840152612cff818401856128c3565b9f9e505050505050505050505050505050565b600181811c90821680612d2657607f821691505b602082108103612d4657634e487b7160e01b600052602260045260246000fd5b50919050565b634e487b7160e01b600052601160045260246000fd5b600060018201612d7457612d74612d4c565b5060010190565b634e487b7160e01b600052603260045260246000fd5b6020808252600990820152682737ba1037bbb732b960b91b604082015260600190565b8082018082111561074157610741612d4c565b808202811582820484141761074157610741612d4c565b6020808252600f908201526e496e636f72726563742076616c756560881b604082015260600190565b600082612e2457634e487b7160e01b600052601260045260246000fd5b500490565b8181038181111561074157610741612d4c565b601f82111561276457600081815260208120601f850160051c81016020861015612e635750805b601f850160051c820191505b81811015612e8257828155600101612e6f565b505050505050565b815167ffffffffffffffff811115612ea457612ea4612b95565b612eb881612eb28454612d12565b84612e3c565b602080601f831160018114612eed5760008415612ed55750858301515b600019600386901b1c1916600185901b178555612e82565b600085815260208120601f198616915b82811015612f1c57888601518255948401946001909101908401612efd565b5085821015612f3a5787850151600019600388901b60f8161c191681555b5050505050600190811b01905550565b85815260018060a01b038516602082015283604082015282606082015260a060808201526000612f7d60a08301846128c3565b979650505050505050565b604081526000612f9b60408301856128c3565b9050826020830152939250505056fe70726f70657274794672616374696f6e735b70726f706572747949645d5b6d73672e73656e6465725d2070726f70657274794672616374696f6e735b70726f706572747949645d5b70726f70657274792e6f776e65725d20a2646970667358221220486e6f5d706d2375f27c065eca11db43d133e1acbd906ea6bdd79f199ecd6b2664736f6c63430008110033",
  "devdoc": {
    "kind": "dev",
    "methods": {
      "allowance(address,address)": {
        "details": "See {IERC20-allowance}."
      },
      "approve(address,uint256)": {
        "details": "See {IERC20-approve}. NOTE: If `amount` is the maximum `uint256`, the allowance is not updated on `transferFrom`. This is semantically equivalent to an infinite approval. Requirements: - `spender` cannot be the zero address."
      },
      "balanceOf(address)": {
        "details": "See {IERC20-balanceOf}."
      },
      "buyFraction(uint256,uint256)": {
        "details": "Allows a user to buy fractions of a property. Transfers 0.5% of the cost to the contract and the rest to the property owner.",
        "params": {
          "fractionAmount": "The number of fractions to buy.",
          "propertyId": "The ID of the property to buy fractions from."
        }
      },
      "decimals()": {
        "details": "Returns the number of decimals used to get its user representation. For example, if `decimals` equals `2`, a balance of `505` tokens should be displayed to a user as `5.05` (`505 / 10 ** 2`). Tokens usually opt for a value of 18, imitating the relationship between Ether and Wei. This is the value {ERC20} uses, unless this function is overridden; NOTE: This information is only used for _display_ purposes: it in no way affects any of the arithmetic of the contract, including {IERC20-balanceOf} and {IERC20-transfer}."
      },
      "decreaseAllowance(address,uint256)": {
        "details": "Atomically decreases the allowance granted to `spender` by the caller. This is an alternative to {approve} that can be used as a mitigation for problems described in {IERC20-approve}. Emits an {Approval} event indicating the updated allowance. Requirements: - `spender` cannot be the zero address. - `spender` must have allowance for the caller of at least `subtractedValue`."
      },
      "fetchForRent()": {
        "details": "Fetches all properties that are currently for rent.",
        "returns": {
          "_0": "An array of properties that are for rent."
        }
      },
      "fetchForSale()": {
        "details": "Fetches all properties that are currently for sale.",
        "returns": {
          "_0": "An array of properties that are for sale."
        }
      },
      "fetchMyFractions()": {
        "details": "Fetches all fractions owned by the caller.",
        "returns": {
          "_0": "Two arrays, one with the properties and another with the fractions owned by the caller."
        }
      },
      "fetchMyPropertyRegistered()": {
        "details": "Fetches all properties registered by the caller.",
        "returns": {
          "_0": "An array of properties registered by the caller."
        }
      },
      "getListingPrice()": {
        "details": "Returns the current listing price.",
        "returns": {
          "_0": "The current listing price."
        }
      },
      "increaseAllowance(address,uint256)": {
        "details": "Atomically increases the allowance granted to `spender` by the caller. This is an alternative to {approve} that can be used as a mitigation for problems described in {IERC20-approve}. Emits an {Approval} event indicating the updated allowance. Requirements: - `spender` cannot be the zero address."
      },
      "listPropertyForRent(uint256,uint256)": {
        "details": "Lists a property for rent with a given rent price.",
        "params": {
          "propertyId": "The ID of the property to be listed for sale.",
          "rentPrice": "The sale price of the property."
        }
      },
      "listPropertyForSale(uint256,uint256)": {
        "details": "Lists a property for sale with a given sale price.",
        "params": {
          "propertyId": "The ID of the property to be listed for sale.",
          "salePrice": "The sale price of the property."
        }
      },
      "name()": {
        "details": "Returns the name of the token."
      },
      "registerProperty(uint256,uint256,string)": {
        "details": "Registers a new property with given value, total fractions, and property URI. Transfers the listing price to the contract.",
        "params": {
          "propertyURI": "The URI of the property metadata.",
          "totalFractions": "The total number of fractions for the property.",
          "value": "The value of the property."
        }
      },
      "rentProperty(uint256,uint256)": {
        "details": "Allows a user to rent a property. Transfers 0.5% of the msg.value to the contract before computing rent per fraction to be split among addresses.",
        "params": {
          "propertyId": "The ID of the property to rent.",
          "rentDays": "The number of days to rent the property."
        }
      },
      "sellFraction(uint256,uint256,address,uint256)": {
        "details": "Allows a user to sell fractions of a property. Transfers 0.5% of the cost to the contract and the rest to the msg.sender.",
        "params": {
          "fractionAmount": "The number of fractions to sell.",
          "fractionPrice": "The price per fraction.",
          "propertyId": "The ID of the property to sell fractions from.",
          "to": "The address to transfer the fractions to."
        }
      },
      "setListingPrice(uint256)": {
        "details": "Sets the listing price for registering a property.",
        "params": {
          "price": "The new listing price."
        }
      },
      "symbol()": {
        "details": "Returns the symbol of the token, usually a shorter version of the name."
      },
      "totalSupply()": {
        "details": "See {IERC20-totalSupply}."
      },
      "transfer(address,uint256)": {
        "details": "See {IERC20-transfer}. Requirements: - `to` cannot be the zero address. - the caller must have a balance of at least `amount`."
      },
      "transferFrom(address,address,uint256)": {
        "details": "See {IERC20-transferFrom}. Emits an {Approval} event indicating the updated allowance. This is not required by the EIP. See the note at the beginning of {ERC20}. NOTE: Does not update the allowance if the current allowance is the maximum `uint256`. Requirements: - `from` and `to` cannot be the zero address. - `from` must have a balance of at least `amount`. - the caller must have allowance for ``from``'s tokens of at least `amount`."
      }
    },
    "version": 1
  },
  "userdoc": {
    "kind": "user",
    "methods": {},
    "version": 1
  },
  "storageLayout": {
    "storage": [
      {
        "astId": 15,
        "contract": "contracts/RealEstateFractionalize.sol:RealEstateFractionalize",
        "label": "_balances",
        "offset": 0,
        "slot": "0",
        "type": "t_mapping(t_address,t_uint256)"
      },
      {
        "astId": 21,
        "contract": "contracts/RealEstateFractionalize.sol:RealEstateFractionalize",
        "label": "_allowances",
        "offset": 0,
        "slot": "1",
        "type": "t_mapping(t_address,t_mapping(t_address,t_uint256))"
      },
      {
        "astId": 23,
        "contract": "contracts/RealEstateFractionalize.sol:RealEstateFractionalize",
        "label": "_totalSupply",
        "offset": 0,
        "slot": "2",
        "type": "t_uint256"
      },
      {
        "astId": 25,
        "contract": "contracts/RealEstateFractionalize.sol:RealEstateFractionalize",
        "label": "_name",
        "offset": 0,
        "slot": "3",
        "type": "t_string_storage"
      },
      {
        "astId": 27,
        "contract": "contracts/RealEstateFractionalize.sol:RealEstateFractionalize",
        "label": "_symbol",
        "offset": 0,
        "slot": "4",
        "type": "t_string_storage"
      },
      {
        "astId": 744,
        "contract": "contracts/RealEstateFractionalize.sol:RealEstateFractionalize",
        "label": "nextPropertyId",
        "offset": 0,
        "slot": "5",
        "type": "t_uint256"
      },
      {
        "astId": 747,
        "contract": "contracts/RealEstateFractionalize.sol:RealEstateFractionalize",
        "label": "listingPrice",
        "offset": 0,
        "slot": "6",
        "type": "t_uint256"
      },
      {
        "astId": 749,
        "contract": "contracts/RealEstateFractionalize.sol:RealEstateFractionalize",
        "label": "downer",
        "offset": 0,
        "slot": "7",
        "type": "t_address"
      },
      {
        "astId": 754,
        "contract": "contracts/RealEstateFractionalize.sol:RealEstateFractionalize",
        "label": "properties",
        "offset": 0,
        "slot": "8",
        "type": "t_mapping(t_uint256,t_struct(Property)742_storage)"
      },
      {
        "astId": 760,
        "contract": "contracts/RealEstateFractionalize.sol:RealEstateFractionalize",
        "label": "propertyFractions",
        "offset": 0,
        "slot": "9",
        "type": "t_mapping(t_uint256,t_mapping(t_address,t_uint256))"
      },
      {
        "astId": 765,
        "contract": "contracts/RealEstateFractionalize.sol:RealEstateFractionalize",
        "label": "fractionOwners",
        "offset": 0,
        "slot": "10",
        "type": "t_mapping(t_uint256,t_array(t_address)dyn_storage)"
      }
    ],
    "types": {
      "t_address": {
        "encoding": "inplace",
        "label": "address",
        "numberOfBytes": "20"
      },
      "t_address_payable": {
        "encoding": "inplace",
        "label": "address payable",
        "numberOfBytes": "20"
      },
      "t_array(t_address)dyn_storage": {
        "base": "t_address",
        "encoding": "dynamic_array",
        "label": "address[]",
        "numberOfBytes": "32"
      },
      "t_bool": {
        "encoding": "inplace",
        "label": "bool",
        "numberOfBytes": "1"
      },
      "t_mapping(t_address,t_mapping(t_address,t_uint256))": {
        "encoding": "mapping",
        "key": "t_address",
        "label": "mapping(address => mapping(address => uint256))",
        "numberOfBytes": "32",
        "value": "t_mapping(t_address,t_uint256)"
      },
      "t_mapping(t_address,t_uint256)": {
        "encoding": "mapping",
        "key": "t_address",
        "label": "mapping(address => uint256)",
        "numberOfBytes": "32",
        "value": "t_uint256"
      },
      "t_mapping(t_uint256,t_array(t_address)dyn_storage)": {
        "encoding": "mapping",
        "key": "t_uint256",
        "label": "mapping(uint256 => address[])",
        "numberOfBytes": "32",
        "value": "t_array(t_address)dyn_storage"
      },
      "t_mapping(t_uint256,t_mapping(t_address,t_uint256))": {
        "encoding": "mapping",
        "key": "t_uint256",
        "label": "mapping(uint256 => mapping(address => uint256))",
        "numberOfBytes": "32",
        "value": "t_mapping(t_address,t_uint256)"
      },
      "t_mapping(t_uint256,t_struct(Property)742_storage)": {
        "encoding": "mapping",
        "key": "t_uint256",
        "label": "mapping(uint256 => struct RealEstateFractionalize.Property)",
        "numberOfBytes": "32",
        "value": "t_struct(Property)742_storage"
      },
      "t_string_storage": {
        "encoding": "bytes",
        "label": "string",
        "numberOfBytes": "32"
      },
      "t_struct(Property)742_storage": {
        "encoding": "inplace",
        "label": "struct RealEstateFractionalize.Property",
        "members": [
          {
            "astId": 719,
            "contract": "contracts/RealEstateFractionalize.sol:RealEstateFractionalize",
            "label": "id",
            "offset": 0,
            "slot": "0",
            "type": "t_uint256"
          },
          {
            "astId": 721,
            "contract": "contracts/RealEstateFractionalize.sol:RealEstateFractionalize",
            "label": "owner",
            "offset": 0,
            "slot": "1",
            "type": "t_address_payable"
          },
          {
            "astId": 723,
            "contract": "contracts/RealEstateFractionalize.sol:RealEstateFractionalize",
            "label": "value",
            "offset": 0,
            "slot": "2",
            "type": "t_uint256"
          },
          {
            "astId": 725,
            "contract": "contracts/RealEstateFractionalize.sol:RealEstateFractionalize",
            "label": "totalFractions",
            "offset": 0,
            "slot": "3",
            "type": "t_uint256"
          },
          {
            "astId": 727,
            "contract": "contracts/RealEstateFractionalize.sol:RealEstateFractionalize",
            "label": "fractionsSold",
            "offset": 0,
            "slot": "4",
            "type": "t_uint256"
          },
          {
            "astId": 729,
            "contract": "contracts/RealEstateFractionalize.sol:RealEstateFractionalize",
            "label": "forSale",
            "offset": 0,
            "slot": "5",
            "type": "t_bool"
          },
          {
            "astId": 731,
            "contract": "contracts/RealEstateFractionalize.sol:RealEstateFractionalize",
            "label": "salePrice",
            "offset": 0,
            "slot": "6",
            "type": "t_uint256"
          },
          {
            "astId": 733,
            "contract": "contracts/RealEstateFractionalize.sol:RealEstateFractionalize",
            "label": "forRent",
            "offset": 0,
            "slot": "7",
            "type": "t_bool"
          },
          {
            "astId": 735,
            "contract": "contracts/RealEstateFractionalize.sol:RealEstateFractionalize",
            "label": "rentPrice",
            "offset": 0,
            "slot": "8",
            "type": "t_uint256"
          },
          {
            "astId": 737,
            "contract": "contracts/RealEstateFractionalize.sol:RealEstateFractionalize",
            "label": "rentedUntil",
            "offset": 0,
            "slot": "9",
            "type": "t_uint256"
          },
          {
            "astId": 739,
            "contract": "contracts/RealEstateFractionalize.sol:RealEstateFractionalize",
            "label": "rentedDays",
            "offset": 0,
            "slot": "10",
            "type": "t_uint256"
          },
          {
            "astId": 741,
            "contract": "contracts/RealEstateFractionalize.sol:RealEstateFractionalize",
            "label": "propertyURI",
            "offset": 0,
            "slot": "11",
            "type": "t_string_storage"
          }
        ],
        "numberOfBytes": "384"
      },
      "t_uint256": {
        "encoding": "inplace",
        "label": "uint256",
        "numberOfBytes": "32"
      }
    }
  }
}