{
  "_format": "hh-sol-artifact-1",
  "contractName": "RealEstateFractionalize",
  "sourceName": "contracts/RealEstateFractionalize.sol",
  "abi": [
    {
      "inputs": [],
      "stateMutability": "nonpayable",
      "type": "constructor"
    },
    {
      "inputs": [
        {
          "internalType": "address",
          "name": "spender",
          "type": "address"
        },
        {
          "internalType": "uint256",
          "name": "allowance",
          "type": "uint256"
        },
        {
          "internalType": "uint256",
          "name": "needed",
          "type": "uint256"
        }
      ],
      "name": "ERC20InsufficientAllowance",
      "type": "error"
    },
    {
      "inputs": [
        {
          "internalType": "address",
          "name": "sender",
          "type": "address"
        },
        {
          "internalType": "uint256",
          "name": "balance",
          "type": "uint256"
        },
        {
          "internalType": "uint256",
          "name": "needed",
          "type": "uint256"
        }
      ],
      "name": "ERC20InsufficientBalance",
      "type": "error"
    },
    {
      "inputs": [
        {
          "internalType": "address",
          "name": "approver",
          "type": "address"
        }
      ],
      "name": "ERC20InvalidApprover",
      "type": "error"
    },
    {
      "inputs": [
        {
          "internalType": "address",
          "name": "receiver",
          "type": "address"
        }
      ],
      "name": "ERC20InvalidReceiver",
      "type": "error"
    },
    {
      "inputs": [
        {
          "internalType": "address",
          "name": "sender",
          "type": "address"
        }
      ],
      "name": "ERC20InvalidSender",
      "type": "error"
    },
    {
      "inputs": [
        {
          "internalType": "address",
          "name": "spender",
          "type": "address"
        }
      ],
      "name": "ERC20InvalidSpender",
      "type": "error"
    },
    {
      "anonymous": false,
      "inputs": [
        {
          "indexed": true,
          "internalType": "address",
          "name": "owner",
          "type": "address"
        },
        {
          "indexed": true,
          "internalType": "address",
          "name": "spender",
          "type": "address"
        },
        {
          "indexed": false,
          "internalType": "uint256",
          "name": "value",
          "type": "uint256"
        }
      ],
      "name": "Approval",
      "type": "event"
    },
    {
      "inputs": [
        {
          "internalType": "address",
          "name": "spender",
          "type": "address"
        },
        {
          "internalType": "uint256",
          "name": "value",
          "type": "uint256"
        }
      ],
      "name": "approve",
      "outputs": [
        {
          "internalType": "bool",
          "name": "",
          "type": "bool"
        }
      ],
      "stateMutability": "nonpayable",
      "type": "function"
    },
    {
      "inputs": [
        {
          "internalType": "uint256",
          "name": "propertyId",
          "type": "uint256"
        },
        {
          "internalType": "uint256",
          "name": "fractionAmount",
          "type": "uint256"
        }
      ],
      "name": "buyFraction",
      "outputs": [],
      "stateMutability": "payable",
      "type": "function"
    },
    {
      "inputs": [],
      "name": "deposit",
      "outputs": [],
      "stateMutability": "payable",
      "type": "function"
    },
    {
      "anonymous": false,
      "inputs": [
        {
          "indexed": false,
          "internalType": "uint256",
          "name": "propertyId",
          "type": "uint256"
        },
        {
          "indexed": false,
          "internalType": "address",
          "name": "buyer",
          "type": "address"
        },
        {
          "indexed": false,
          "internalType": "uint256",
          "name": "fractionAmount",
          "type": "uint256"
        }
      ],
      "name": "FractionBought",
      "type": "event"
    },
    {
      "anonymous": false,
      "inputs": [
        {
          "indexed": false,
          "internalType": "uint256",
          "name": "propertyId",
          "type": "uint256"
        },
        {
          "indexed": false,
          "internalType": "address",
          "name": "seller",
          "type": "address"
        },
        {
          "indexed": false,
          "internalType": "uint256",
          "name": "fractionAmount",
          "type": "uint256"
        },
        {
          "indexed": false,
          "internalType": "address",
          "name": "buyer",
          "type": "address"
        }
      ],
      "name": "FractionSold",
      "type": "event"
    },
    {
      "inputs": [
        {
          "internalType": "uint256",
          "name": "propertyId",
          "type": "uint256"
        },
        {
          "internalType": "uint256",
          "name": "rentPrice",
          "type": "uint256"
        }
      ],
      "name": "listPropertyForRent",
      "outputs": [],
      "stateMutability": "nonpayable",
      "type": "function"
    },
    {
      "inputs": [
        {
          "internalType": "uint256",
          "name": "propertyId",
          "type": "uint256"
        },
        {
          "internalType": "uint256",
          "name": "salePrice",
          "type": "uint256"
        }
      ],
      "name": "listPropertyForSale",
      "outputs": [],
      "stateMutability": "nonpayable",
      "type": "function"
    },
    {
      "anonymous": false,
      "inputs": [
        {
          "indexed": false,
          "internalType": "uint256",
          "name": "id",
          "type": "uint256"
        },
        {
          "indexed": false,
          "internalType": "address",
          "name": "owner",
          "type": "address"
        },
        {
          "indexed": false,
          "internalType": "uint256",
          "name": "value",
          "type": "uint256"
        },
        {
          "indexed": false,
          "internalType": "uint256",
          "name": "totalFractions",
          "type": "uint256"
        },
        {
          "indexed": false,
          "internalType": "string",
          "name": "propertyURI",
          "type": "string"
        }
      ],
      "name": "PropertyRegistered",
      "type": "event"
    },
    {
      "anonymous": false,
      "inputs": [
        {
          "indexed": false,
          "internalType": "uint256",
          "name": "id",
          "type": "uint256"
        },
        {
          "indexed": false,
          "internalType": "address",
          "name": "renter",
          "type": "address"
        },
        {
          "indexed": false,
          "internalType": "uint256",
          "name": "rentPrice",
          "type": "uint256"
        },
        {
          "indexed": false,
          "internalType": "uint256",
          "name": "rentedDays",
          "type": "uint256"
        }
      ],
      "name": "PropertyRented",
      "type": "event"
    },
    {
      "anonymous": false,
      "inputs": [
        {
          "indexed": false,
          "internalType": "address",
          "name": "",
          "type": "address"
        },
        {
          "indexed": false,
          "internalType": "uint256",
          "name": "",
          "type": "uint256"
        }
      ],
      "name": "Received",
      "type": "event"
    },
    {
      "inputs": [
        {
          "internalType": "uint256",
          "name": "value",
          "type": "uint256"
        },
        {
          "internalType": "uint256",
          "name": "totalFractions",
          "type": "uint256"
        },
        {
          "internalType": "string",
          "name": "propertyURI",
          "type": "string"
        }
      ],
      "name": "registerProperty",
      "outputs": [],
      "stateMutability": "payable",
      "type": "function"
    },
    {
      "inputs": [
        {
          "internalType": "uint256",
          "name": "propertyId",
          "type": "uint256"
        },
        {
          "internalType": "uint256",
          "name": "rentDays",
          "type": "uint256"
        }
      ],
      "name": "rentProperty",
      "outputs": [],
      "stateMutability": "payable",
      "type": "function"
    },
    {
      "inputs": [
        {
          "internalType": "uint256",
          "name": "propertyId",
          "type": "uint256"
        },
        {
          "internalType": "uint256",
          "name": "fractionAmount",
          "type": "uint256"
        },
        {
          "internalType": "address",
          "name": "to",
          "type": "address"
        },
        {
          "internalType": "uint256",
          "name": "fractionPrice",
          "type": "uint256"
        }
      ],
      "name": "sellFraction",
      "outputs": [],
      "stateMutability": "payable",
      "type": "function"
    },
    {
      "inputs": [
        {
          "internalType": "uint256",
          "name": "price",
          "type": "uint256"
        }
      ],
      "name": "setListingPrice",
      "outputs": [],
      "stateMutability": "nonpayable",
      "type": "function"
    },
    {
      "inputs": [
        {
          "internalType": "address",
          "name": "to",
          "type": "address"
        },
        {
          "internalType": "uint256",
          "name": "value",
          "type": "uint256"
        }
      ],
      "name": "transfer",
      "outputs": [
        {
          "internalType": "bool",
          "name": "",
          "type": "bool"
        }
      ],
      "stateMutability": "nonpayable",
      "type": "function"
    },
    {
      "anonymous": false,
      "inputs": [
        {
          "indexed": true,
          "internalType": "address",
          "name": "from",
          "type": "address"
        },
        {
          "indexed": true,
          "internalType": "address",
          "name": "to",
          "type": "address"
        },
        {
          "indexed": false,
          "internalType": "uint256",
          "name": "value",
          "type": "uint256"
        }
      ],
      "name": "Transfer",
      "type": "event"
    },
    {
      "inputs": [
        {
          "internalType": "address",
          "name": "from",
          "type": "address"
        },
        {
          "internalType": "address",
          "name": "to",
          "type": "address"
        },
        {
          "internalType": "uint256",
          "name": "value",
          "type": "uint256"
        }
      ],
      "name": "transferFrom",
      "outputs": [
        {
          "internalType": "bool",
          "name": "",
          "type": "bool"
        }
      ],
      "stateMutability": "nonpayable",
      "type": "function"
    },
    {
      "inputs": [
        {
          "internalType": "uint256",
          "name": "amount",
          "type": "uint256"
        }
      ],
      "name": "withdraw",
      "outputs": [],
      "stateMutability": "nonpayable",
      "type": "function"
    },
    {
      "stateMutability": "payable",
      "type": "receive"
    },
    {
      "inputs": [
        {
          "internalType": "address",
          "name": "owner",
          "type": "address"
        },
        {
          "internalType": "address",
          "name": "spender",
          "type": "address"
        }
      ],
      "name": "allowance",
      "outputs": [
        {
          "internalType": "uint256",
          "name": "",
          "type": "uint256"
        }
      ],
      "stateMutability": "view",
      "type": "function"
    },
    {
      "inputs": [
        {
          "internalType": "address",
          "name": "account",
          "type": "address"
        }
      ],
      "name": "balanceOf",
      "outputs": [
        {
          "internalType": "uint256",
          "name": "",
          "type": "uint256"
        }
      ],
      "stateMutability": "view",
      "type": "function"
    },
    {
      "inputs": [],
      "name": "decimals",
      "outputs": [
        {
          "internalType": "uint8",
          "name": "",
          "type": "uint8"
        }
      ],
      "stateMutability": "view",
      "type": "function"
    },
    {
      "inputs": [],
      "name": "downer",
      "outputs": [
        {
          "internalType": "address",
          "name": "",
          "type": "address"
        }
      ],
      "stateMutability": "view",
      "type": "function"
    },
    {
      "inputs": [],
      "name": "fetchETHBalance",
      "outputs": [
        {
          "internalType": "uint256",
          "name": "",
          "type": "uint256"
        }
      ],
      "stateMutability": "view",
      "type": "function"
    },
    {
      "inputs": [],
      "name": "fetchForRent",
      "outputs": [
        {
          "components": [
            {
              "internalType": "uint256",
              "name": "id",
              "type": "uint256"
            },
            {
              "internalType": "address payable",
              "name": "owner",
              "type": "address"
            },
            {
              "internalType": "uint256",
              "name": "value",
              "type": "uint256"
            },
            {
              "internalType": "uint256",
              "name": "totalFractions",
              "type": "uint256"
            },
            {
              "internalType": "uint256",
              "name": "fractionsSold",
              "type": "uint256"
            },
            {
              "internalType": "bool",
              "name": "forSale",
              "type": "bool"
            },
            {
              "internalType": "uint256",
              "name": "salePrice",
              "type": "uint256"
            },
            {
              "internalType": "bool",
              "name": "forRent",
              "type": "bool"
            },
            {
              "internalType": "uint256",
              "name": "rentPrice",
              "type": "uint256"
            },
            {
              "internalType": "uint256",
              "name": "rentedUntil",
              "type": "uint256"
            },
            {
              "internalType": "uint256",
              "name": "rentedDays",
              "type": "uint256"
            },
            {
              "internalType": "string",
              "name": "propertyURI",
              "type": "string"
            }
          ],
          "internalType": "struct RealEstateFractionalize.Property[]",
          "name": "",
          "type": "tuple[]"
        }
      ],
      "stateMutability": "view",
      "type": "function"
    },
    {
      "inputs": [],
      "name": "fetchForSale",
      "outputs": [
        {
          "components": [
            {
              "internalType": "uint256",
              "name": "id",
              "type": "uint256"
            },
            {
              "internalType": "address payable",
              "name": "owner",
              "type": "address"
            },
            {
              "internalType": "uint256",
              "name": "value",
              "type": "uint256"
            },
            {
              "internalType": "uint256",
              "name": "totalFractions",
              "type": "uint256"
            },
            {
              "internalType": "uint256",
              "name": "fractionsSold",
              "type": "uint256"
            },
            {
              "internalType": "bool",
              "name": "forSale",
              "type": "bool"
            },
            {
              "internalType": "uint256",
              "name": "salePrice",
              "type": "uint256"
            },
            {
              "internalType": "bool",
              "name": "forRent",
              "type": "bool"
            },
            {
              "internalType": "uint256",
              "name": "rentPrice",
              "type": "uint256"
            },
            {
              "internalType": "uint256",
              "name": "rentedUntil",
              "type": "uint256"
            },
            {
              "internalType": "uint256",
              "name": "rentedDays",
              "type": "uint256"
            },
            {
              "internalType": "string",
              "name": "propertyURI",
              "type": "string"
            }
          ],
          "internalType": "struct RealEstateFractionalize.Property[]",
          "name": "",
          "type": "tuple[]"
        }
      ],
      "stateMutability": "view",
      "type": "function"
    },
    {
      "inputs": [
        {
          "internalType": "uint256",
          "name": "propertyId",
          "type": "uint256"
        },
        {
          "internalType": "address",
          "name": "owner",
          "type": "address"
        }
      ],
      "name": "fetchFractionsOwned",
      "outputs": [
        {
          "internalType": "uint256",
          "name": "",
          "type": "uint256"
        }
      ],
      "stateMutability": "view",
      "type": "function"
    },
    {
      "inputs": [
        {
          "internalType": "uint256",
          "name": "propertyId",
          "type": "uint256"
        }
      ],
      "name": "fetchFractionsSold",
      "outputs": [
        {
          "internalType": "uint256",
          "name": "",
          "type": "uint256"
        }
      ],
      "stateMutability": "view",
      "type": "function"
    },
    {
      "inputs": [],
      "name": "fetchMyFractions",
      "outputs": [
        {
          "internalType": "uint256[]",
          "name": "",
          "type": "uint256[]"
        }
      ],
      "stateMutability": "view",
      "type": "function"
    },
    {
      "inputs": [],
      "name": "fetchMyPropertyRegistered",
      "outputs": [
        {
          "components": [
            {
              "internalType": "uint256",
              "name": "id",
              "type": "uint256"
            },
            {
              "internalType": "address payable",
              "name": "owner",
              "type": "address"
            },
            {
              "internalType": "uint256",
              "name": "value",
              "type": "uint256"
            },
            {
              "internalType": "uint256",
              "name": "totalFractions",
              "type": "uint256"
            },
            {
              "internalType": "uint256",
              "name": "fractionsSold",
              "type": "uint256"
            },
            {
              "internalType": "bool",
              "name": "forSale",
              "type": "bool"
            },
            {
              "internalType": "uint256",
              "name": "salePrice",
              "type": "uint256"
            },
            {
              "internalType": "bool",
              "name": "forRent",
              "type": "bool"
            },
            {
              "internalType": "uint256",
              "name": "rentPrice",
              "type": "uint256"
            },
            {
              "internalType": "uint256",
              "name": "rentedUntil",
              "type": "uint256"
            },
            {
              "internalType": "uint256",
              "name": "rentedDays",
              "type": "uint256"
            },
            {
              "internalType": "string",
              "name": "propertyURI",
              "type": "string"
            }
          ],
          "internalType": "struct RealEstateFractionalize.Property[]",
          "name": "",
          "type": "tuple[]"
        }
      ],
      "stateMutability": "view",
      "type": "function"
    },
    {
      "inputs": [
        {
          "internalType": "uint256",
          "name": "propertyId",
          "type": "uint256"
        }
      ],
      "name": "fetchOneProperty",
      "outputs": [
        {
          "components": [
            {
              "internalType": "uint256",
              "name": "id",
              "type": "uint256"
            },
            {
              "internalType": "address payable",
              "name": "owner",
              "type": "address"
            },
            {
              "internalType": "uint256",
              "name": "value",
              "type": "uint256"
            },
            {
              "internalType": "uint256",
              "name": "totalFractions",
              "type": "uint256"
            },
            {
              "internalType": "uint256",
              "name": "fractionsSold",
              "type": "uint256"
            },
            {
              "internalType": "bool",
              "name": "forSale",
              "type": "bool"
            },
            {
              "internalType": "uint256",
              "name": "salePrice",
              "type": "uint256"
            },
            {
              "internalType": "bool",
              "name": "forRent",
              "type": "bool"
            },
            {
              "internalType": "uint256",
              "name": "rentPrice",
              "type": "uint256"
            },
            {
              "internalType": "uint256",
              "name": "rentedUntil",
              "type": "uint256"
            },
            {
              "internalType": "uint256",
              "name": "rentedDays",
              "type": "uint256"
            },
            {
              "internalType": "string",
              "name": "propertyURI",
              "type": "string"
            }
          ],
          "internalType": "struct RealEstateFractionalize.Property[]",
          "name": "",
          "type": "tuple[]"
        }
      ],
      "stateMutability": "view",
      "type": "function"
    },
    {
      "inputs": [
        {
          "internalType": "uint256",
          "name": "propertyId",
          "type": "uint256"
        }
      ],
      "name": "fetchURI",
      "outputs": [
        {
          "internalType": "string",
          "name": "",
          "type": "string"
        }
      ],
      "stateMutability": "view",
      "type": "function"
    },
    {
      "inputs": [
        {
          "internalType": "uint256",
          "name": "",
          "type": "uint256"
        },
        {
          "internalType": "uint256",
          "name": "",
          "type": "uint256"
        }
      ],
      "name": "fractionOwners",
      "outputs": [
        {
          "internalType": "address",
          "name": "",
          "type": "address"
        }
      ],
      "stateMutability": "view",
      "type": "function"
    },
    {
      "inputs": [],
      "name": "getListingPrice",
      "outputs": [
        {
          "internalType": "uint256",
          "name": "",
          "type": "uint256"
        }
      ],
      "stateMutability": "view",
      "type": "function"
    },
    {
      "inputs": [
        {
          "internalType": "uint256",
          "name": "propertyId",
          "type": "uint256"
        }
      ],
      "name": "getPropertyById",
      "outputs": [
        {
          "components": [
            {
              "internalType": "uint256",
              "name": "id",
              "type": "uint256"
            },
            {
              "internalType": "address payable",
              "name": "owner",
              "type": "address"
            },
            {
              "internalType": "uint256",
              "name": "value",
              "type": "uint256"
            },
            {
              "internalType": "uint256",
              "name": "totalFractions",
              "type": "uint256"
            },
            {
              "internalType": "uint256",
              "name": "fractionsSold",
              "type": "uint256"
            },
            {
              "internalType": "bool",
              "name": "forSale",
              "type": "bool"
            },
            {
              "internalType": "uint256",
              "name": "salePrice",
              "type": "uint256"
            },
            {
              "internalType": "bool",
              "name": "forRent",
              "type": "bool"
            },
            {
              "internalType": "uint256",
              "name": "rentPrice",
              "type": "uint256"
            },
            {
              "internalType": "uint256",
              "name": "rentedUntil",
              "type": "uint256"
            },
            {
              "internalType": "uint256",
              "name": "rentedDays",
              "type": "uint256"
            },
            {
              "internalType": "string",
              "name": "propertyURI",
              "type": "string"
            }
          ],
          "internalType": "struct RealEstateFractionalize.Property",
          "name": "",
          "type": "tuple"
        }
      ],
      "stateMutability": "view",
      "type": "function"
    },
    {
      "inputs": [],
      "name": "listingPrice",
      "outputs": [
        {
          "internalType": "uint256",
          "name": "",
          "type": "uint256"
        }
      ],
      "stateMutability": "view",
      "type": "function"
    },
    {
      "inputs": [],
      "name": "name",
      "outputs": [
        {
          "internalType": "string",
          "name": "",
          "type": "string"
        }
      ],
      "stateMutability": "view",
      "type": "function"
    },
    {
      "inputs": [],
      "name": "nextPropertyId",
      "outputs": [
        {
          "internalType": "uint256",
          "name": "",
          "type": "uint256"
        }
      ],
      "stateMutability": "view",
      "type": "function"
    },
    {
      "inputs": [
        {
          "internalType": "uint256",
          "name": "",
          "type": "uint256"
        }
      ],
      "name": "properties",
      "outputs": [
        {
          "internalType": "uint256",
          "name": "id",
          "type": "uint256"
        },
        {
          "internalType": "address payable",
          "name": "owner",
          "type": "address"
        },
        {
          "internalType": "uint256",
          "name": "value",
          "type": "uint256"
        },
        {
          "internalType": "uint256",
          "name": "totalFractions",
          "type": "uint256"
        },
        {
          "internalType": "uint256",
          "name": "fractionsSold",
          "type": "uint256"
        },
        {
          "internalType": "bool",
          "name": "forSale",
          "type": "bool"
        },
        {
          "internalType": "uint256",
          "name": "salePrice",
          "type": "uint256"
        },
        {
          "internalType": "bool",
          "name": "forRent",
          "type": "bool"
        },
        {
          "internalType": "uint256",
          "name": "rentPrice",
          "type": "uint256"
        },
        {
          "internalType": "uint256",
          "name": "rentedUntil",
          "type": "uint256"
        },
        {
          "internalType": "uint256",
          "name": "rentedDays",
          "type": "uint256"
        },
        {
          "internalType": "string",
          "name": "propertyURI",
          "type": "string"
        }
      ],
      "stateMutability": "view",
      "type": "function"
    },
    {
      "inputs": [
        {
          "internalType": "uint256",
          "name": "",
          "type": "uint256"
        },
        {
          "internalType": "address",
          "name": "",
          "type": "address"
        }
      ],
      "name": "propertyFractions",
      "outputs": [
        {
          "internalType": "uint256",
          "name": "",
          "type": "uint256"
        }
      ],
      "stateMutability": "view",
      "type": "function"
    },
    {
      "inputs": [],
      "name": "symbol",
      "outputs": [
        {
          "internalType": "string",
          "name": "",
          "type": "string"
        }
      ],
      "stateMutability": "view",
      "type": "function"
    },
    {
      "inputs": [],
      "name": "totalSupply",
      "outputs": [
        {
          "internalType": "uint256",
          "name": "",
          "type": "uint256"
        }
      ],
      "stateMutability": "view",
      "type": "function"
    }
  ],
  "bytecode": "0x60806040526512309ce540006006553480156200001b57600080fd5b506040518060400160405280601481526020017f50726f706572747920426c6f636b20546f6b656e0000000000000000000000008152506040518060400160405280600381526020016214109560ea1b81525081600390816200007f919062000241565b5060046200008e828262000241565b5050600780546001600160a01b0319163317905550620000cc735b38da6a701c568545dcfcb03fcb875f56beddc468056bc75e2d63100000620000d2565b62000335565b6001600160a01b0382166200012d5760405162461bcd60e51b815260206004820152601f60248201527f45524332303a206d696e7420746f20746865207a65726f206164647265737300604482015260640160405180910390fd5b80600260008282546200014191906200030d565b90915550506001600160a01b038216600081815260208181526040808320805486019055518481527fddf252ad1be2c89b69c2b068fc378daa952ba7f163c4a11628f55a4df523b3ef910160405180910390a35050565b505050565b634e487b7160e01b600052604160045260246000fd5b600181811c90821680620001c857607f821691505b602082108103620001e957634e487b7160e01b600052602260045260246000fd5b50919050565b601f8211156200019857600081815260208120601f850160051c81016020861015620002185750805b601f850160051c820191505b81811015620002395782815560010162000224565b505050505050565b81516001600160401b038111156200025d576200025d6200019d565b62000275816200026e8454620001b3565b84620001ef565b602080601f831160018114620002ad5760008415620002945750858301515b600019600386901b1c1916600185901b17855562000239565b600085815260208120601f198616915b82811015620002de57888601518255948401946001909101908401620002bd565b5085821015620002fd5787850151600019600388901b60f8161c191681555b5050505050600190811b01905550565b808201808211156200032f57634e487b7160e01b600052601160045260246000fd5b92915050565b61324780620003456000396000f3fe6080604052600436106102085760003560e01c80636503b36c11610118578063c45eca47116100a0578063d0e30db01161006f578063d0e30db01461061d578063d2fce6dd14610625578063d40b021414610668578063dd62ed3e1461067b578063f7b108081461069b57600080fd5b8063c45eca471461059c578063c78f19f9146105d4578063ccfc7f72146105ea578063cf7dea36146105fd57600080fd5b806395d89b41116100e757806395d89b411461051d5780639797406e14610532578063a457c2d714610547578063a9059cbb14610567578063bd82a1a31461058757600080fd5b80636503b36c1461049457806370a08231146104b457806378f81dde146104ea5780637c726b69146104fd57600080fd5b80632e1a7d4d1161019b578063395093511161016a57806339509351146103ef5780633ec4ebb71461040f57806350a8bc99146104225780635875e8991461045257806359fe18eb1461046757600080fd5b80632e1a7d4d1461037b578063313ce5671461039b57806336fbab3b146103b757806339500f34146103d957600080fd5b806311a2aa13116101d757806311a2aa131461030f57806312e855851461033157806318160ddd1461034657806323b872dd1461035b57600080fd5b806306fdde031461024c578063095ea7b3146102775780630f55415b146102a75780631092974f146102c957600080fd5b3661024757604080513381523460208201527f88a5966d370b9919b20f3e2c13ff65706f196a4e32cc2c12bf57088f88525874910160405180910390a1005b600080fd5b34801561025857600080fd5b506102616106d3565b60405161026e9190612ad8565b60405180910390f35b34801561028357600080fd5b50610297610292366004612b0e565b610765565b604051901515815260200161026e565b3480156102b357600080fd5b506102c76102c2366004612b38565b61077f565b005b3480156102d557600080fd5b506103016102e4366004612b5a565b600960209081526000928352604080842090915290825290205481565b60405190815260200161026e565b34801561031b57600080fd5b506103246107f4565b60405161026e9190612c3e565b34801561033d57600080fd5b50600654610301565b34801561035257600080fd5b50600254610301565b34801561036757600080fd5b50610297610376366004612ca0565b610a3c565b34801561038757600080fd5b506102c7610396366004612cdc565b610a60565b3480156103a757600080fd5b506040516012815260200161026e565b3480156103c357600080fd5b506103cc610ac8565b60405161026e9190612cf5565b3480156103e557600080fd5b5061030160055481565b3480156103fb57600080fd5b5061029761040a366004612b0e565b610d9a565b6102c761041d366004612b38565b610dbc565b34801561042e57600080fd5b5061030161043d366004612cdc565b60009081526008602052604090206004015490565b34801561045e57600080fd5b506103246111a0565b34801561047357600080fd5b50610487610482366004612cdc565b6113df565b60405161026e9190612d39565b3480156104a057600080fd5b506102c76104af366004612b38565b611576565b3480156104c057600080fd5b506103016104cf366004612d4c565b6001600160a01b031660009081526020819052604090205490565b6102c76104f8366004612d67565b6115e6565b34801561050957600080fd5b506102c7610518366004612cdc565b611913565b34801561052957600080fd5b50610261611942565b34801561053e57600080fd5b50610301611951565b34801561055357600080fd5b50610297610562366004612b0e565b611983565b34801561057357600080fd5b50610297610582366004612b0e565b6119fe565b34801561059357600080fd5b50610324611a0c565b3480156105a857600080fd5b506007546105bc906001600160a01b031681565b6040516001600160a01b03909116815260200161026e565b3480156105e057600080fd5b5061030160065481565b6102c76105f8366004612dba565b611c5d565b34801561060957600080fd5b506105bc610618366004612b38565b611f0e565b6102c7611f46565b34801561063157600080fd5b50610301610640366004612b5a565b60009182526009602090815260408084206001600160a01b0393909316845291905290205490565b6102c7610676366004612b38565b611f72565b34801561068757600080fd5b50610301610696366004612e7e565b61235a565b3480156106a757600080fd5b506106bb6106b6366004612cdc565b612385565b60405161026e9c9b9a99989796959493929190612ea8565b6060600380546106e290612f21565b80601f016020809104026020016040519081016040528092919081815260200182805461070e90612f21565b801561075b5780601f106107305761010080835404028352916020019161075b565b820191906000526020600020905b81548152906001019060200180831161073e57829003601f168201915b5050505050905090565b600033610773818585612481565b60019150505b92915050565b600082815260086020526040902060018101546001600160a01b031633146107de5760405162461bcd60e51b815260206004820152600d60248201526c2737ba103a34329037bbb732b960991b60448201526064015b60405180910390fd5b60058101805460ff191660011790556006015550565b60606000805b60055481101561083e5760008181526008602052604090206007015460ff161561082c578161082881612f71565b9250505b8061083681612f71565b9150506107fa565b5060008167ffffffffffffffff81111561085a5761085a612da4565b60405190808252806020026020018201604052801561089357816020015b610880612a24565b8152602001906001900390816108785790505b5090506000805b600554811015610a335760008181526008602052604090206007015460ff1615610a21576000818152600860208181526040928390208351610180810185528154815260018201546001600160a01b0316928101929092526002810154938201939093526003830154606082015260048301546080820152600583015460ff908116151560a0830152600684015460c0830152600784015416151560e0820152908201546101008201526009820154610120820152600a820154610140820152600b820180549192916101608401919061097390612f21565b80601f016020809104026020016040519081016040528092919081815260200182805461099f90612f21565b80156109ec5780601f106109c1576101008083540402835291602001916109ec565b820191906000526020600020905b8154815290600101906020018083116109cf57829003601f168201915b505050505081525050838381518110610a0757610a07612f8a565b60200260200101819052508180610a1d90612f71565b9250505b80610a2b81612f71565b91505061089a565b50909392505050565b600033610a4a8582856125a6565b610a55858585612620565b506001949350505050565b6007546001600160a01b03163314610a8a5760405162461bcd60e51b81526004016107d590612fa0565b6007546040516001600160a01b039091169082156108fc029083906000818181858888f19350505050158015610ac4573d6000803e3d6000fd5b5050565b60606000805b600554811015610b1757600081815260096020908152604080832033845290915290205415610b055781610b0181612f71565b9250505b80610b0f81612f71565b915050610ace565b5060008167ffffffffffffffff811115610b3357610b33612da4565b604051908082528060200260200182016040528015610b6c57816020015b610b59612a24565b815260200190600190039081610b515790505b50905060008267ffffffffffffffff811115610b8a57610b8a612da4565b604051908082528060200260200182016040528015610bb3578160200160208202803683370190505b5090506000805b600554811015610d9057600081815260096020908152604080832033845290915290205415610d7e576000818152600860208181526040928390208351610180810185528154815260018201546001600160a01b0316928101929092526002810154938201939093526003830154606082015260048301546080820152600583015460ff908116151560a0830152600684015460c0830152600784015416151560e0820152908201546101008201526009820154610120820152600a820154610140820152600b8201805491929161016084019190610c9890612f21565b80601f0160208091040260200160405190810160405280929190818152602001828054610cc490612f21565b8015610d115780601f10610ce657610100808354040283529160200191610d11565b820191906000526020600020905b815481529060010190602001808311610cf457829003601f168201915b505050505081525050848381518110610d2c57610d2c612f8a565b602090810291909101810191909152600082815260098252604080822033835290925220548351849084908110610d6557610d65612f8a565b602090810291909101015281610d7a81612f71565b9250505b80610d8881612f71565b915050610bba565b5090949350505050565b600033610773818585610dad838361235a565b610db79190612fc3565b612481565b610df160405180604001604052806013815260200172022aa24102130b630b731b2902132b337b9329606d1b815250476127c4565b6000828152600860205260409020600781015460ff16610e4b5760405162461bcd60e51b8152602060048201526015602482015274141c9bdc195c9d1e481b9bdd08199bdc881c995b9d605a1b60448201526064016107d5565b610e8e6040518060400160405280601781526020017f70726f70657274792e72656e746564556e74696c20697300000000000000000081525082600901546127c4565b610ec3604051806040016040528060138152602001720313637b1b5973a34b6b2b9ba30b6b81034b99606d1b815250426127c4565b4281600901541115610f175760405162461bcd60e51b815260206004820152601760248201527f50726f706572747920616c72656164792072656e74656400000000000000000060448201526064016107d5565b6000828260080154610f299190612fd6565b9050803414610f4a5760405162461bcd60e51b81526004016107d590612fed565b60006103e8610f5b346103e3612fd6565b610f659190613016565b90506000610f738234613038565b9050610faa6040518060400160405280601381526020017202a3432903732ba2932b73a21b7b9ba1034b99606d1b815250836127c4565b610fd76040518060400160405280600b81526020016a02a3432903332b29034b9960ad1b815250826127c4565b610fe48562015180612fd6565b610fee9042612fc3565b84600901819055508484600a01600082825461100a9190612fc3565b909155505060038401546000906110219084613016565b90506110626040518060400160405280601781526020017f5468652072656e745065724672616374696f6e20697320000000000000000000815250826127c4565b60005b6000888152600a6020526040902054811015611119576000888152600a6020526040812080548390811061109b5761109b612f8a565b60009182526020808320909101548b83526009825260408084206001600160a01b0390921680855291909252912054909150816108fc6110db8387612fd6565b6040518115909202916000818181858888f19350505050158015611103573d6000803e3d6000fd5b505050808061111190612f71565b915050611065565b506008850154604080518981523360208201528082019290925260608201889052517f83f582c38246e10118fca894a9512cb07f6c10aec67f1808c8ddd5db8810e5a99181900360800190a16111976040518060400160405280601081526020016f022aa24102130b630b731b29022a722160851b815250476127c4565b50505050505050565b60606000805b6005548110156111ea5760008181526008602052604090206005015460ff16156111d857816111d481612f71565b9250505b806111e281612f71565b9150506111a6565b5060008167ffffffffffffffff81111561120657611206612da4565b60405190808252806020026020018201604052801561123f57816020015b61122c612a24565b8152602001906001900390816112245790505b5090506000805b600554811015610a335760008181526008602052604090206005015460ff16156113cd576000818152600860208181526040928390208351610180810185528154815260018201546001600160a01b0316928101929092526002810154938201939093526003830154606082015260048301546080820152600583015460ff908116151560a0830152600684015460c0830152600784015416151560e0820152908201546101008201526009820154610120820152600a820154610140820152600b820180549192916101608401919061131f90612f21565b80601f016020809104026020016040519081016040528092919081815260200182805461134b90612f21565b80156113985780601f1061136d57610100808354040283529160200191611398565b820191906000526020600020905b81548152906001019060200180831161137b57829003601f168201915b5050505050815250508383815181106113b3576113b3612f8a565b602002602001018190525081806113c990612f71565b9250505b806113d781612f71565b915050611246565b6113e7612a24565b60055482106114385760405162461bcd60e51b815260206004820152601760248201527f50726f706572747920646f6573206e6f7420657869737400000000000000000060448201526064016107d5565b6000828152600860208181526040928390208351610180810185528154815260018201546001600160a01b0316928101929092526002810154938201939093526003830154606082015260048301546080820152600583015460ff908116151560a0830152600684015460c0830152600784015416151560e0820152908201546101008201526009820154610120820152600a820154610140820152600b82018054919291610160840191906114ed90612f21565b80601f016020809104026020016040519081016040528092919081815260200182805461151990612f21565b80156115665780601f1061153b57610100808354040283529160200191611566565b820191906000526020600020905b81548152906001019060200180831161154957829003601f168201915b5050505050815250509050919050565b600082815260086020526040902060018101546001600160a01b031633146115d05760405162461bcd60e51b815260206004820152600d60248201526c2737ba103a34329037bbb732b960991b60448201526064016107d5565b60078101805460ff191660011790556008015550565b61161b60405180604001604052806013815260200172022aa24102130b630b731b2902132b337b9329606d1b815250476127c4565b60008481526008602052604090206001600160a01b0383166116715760405162461bcd60e51b815260206004820152600f60248201526e496e76616c6964206164647265737360881b60448201526064016107d5565b60018101546001600160a01b031633036116cd5760405162461bcd60e51b815260206004820152601a60248201527f596f7520617265207468652050726f7065727479206f776e657200000000000060448201526064016107d5565b600085815260096020908152604080832033845290915290205484111561172d5760405162461bcd60e51b81526020600482015260146024820152734e6f7420656e6f756768206672616374696f6e7360601b60448201526064016107d5565b60006117398584612fd6565b90506117696040518060400160405280600c81526020016b02a34329031b7b9ba1034b9960a51b815250826127c4565b8034146117885760405162461bcd60e51b81526004016107d590612fed565b60006103e8611799346103e3612fd6565b6117a39190613016565b905060006117b18284613038565b90506117e06040518060400160405280600b81526020016a02a3432903332b29034b9960ad1b815250826127c4565b604051339083156108fc029084906000818181858888f1935050505015801561180d573d6000803e3d6000fd5b506118183388612809565b6118228688612938565b60008881526009602090815260408083203384529091528120805489929061184b908490613038565b909155505060008881526009602090815260408083206001600160a01b038a16845290915281208054899290611882908490612fc3565b9091555050604080518981523360208201529081018890526001600160a01b03871660608201527f30d8244e1d6b3f8ffaf165e67a9ba4d260733377fe3c64dc07fd78b7ea27b9089060800160405180910390a161190960405180604001604052806011815260200170022aa24102130b630b731b2903630b9ba1607d1b815250476127c4565b5050505050505050565b6007546001600160a01b0316331461193d5760405162461bcd60e51b81526004016107d590612fa0565b600655565b6060600480546106e290612f21565b6007546000906001600160a01b0316331461197e5760405162461bcd60e51b81526004016107d590612fa0565b504790565b60003381611991828661235a565b9050838110156119f15760405162461bcd60e51b815260206004820152602560248201527f45524332303a2064656372656173656420616c6c6f77616e63652062656c6f77604482015264207a65726f60d81b60648201526084016107d5565b610a558286868403612481565b600033610773818585612620565b60606000805b600554811015611a5f57600081815260086020526040902060010154336001600160a01b0390911603611a4d5781611a4981612f71565b9250505b80611a5781612f71565b915050611a12565b5060008167ffffffffffffffff811115611a7b57611a7b612da4565b604051908082528060200260200182016040528015611ab457816020015b611aa1612a24565b815260200190600190039081611a995790505b5090506000805b600554811015610a3357600081815260086020526040902060010154336001600160a01b0390911603611c4b576000818152600860208181526040928390208351610180810185528154815260018201546001600160a01b0316928101929092526002810154938201939093526003830154606082015260048301546080820152600583015460ff908116151560a0830152600684015460c0830152600784015416151560e0820152908201546101008201526009820154610120820152600a820154610140820152600b8201805491929161016084019190611b9d90612f21565b80601f0160208091040260200160405190810160405280929190818152602001828054611bc990612f21565b8015611c165780601f10611beb57610100808354040283529160200191611c16565b820191906000526020600020905b815481529060010190602001808311611bf957829003601f168201915b505050505081525050838381518110611c3157611c31612f8a565b60200260200101819052508180611c4790612f71565b9250505b80611c5581612f71565b915050611abb565b60008211611cbf5760405162461bcd60e51b815260206004820152602960248201527f546f74616c206672616374696f6e73206d7573742062652067726561746572206044820152687468616e207a65726f60b81b60648201526084016107d5565b6006543414611d105760405162461bcd60e51b815260206004820152601760248201527f496e636f7272656374206c697374696e6720707269636500000000000000000060448201526064016107d5565b6040518061018001604052806005548152602001336001600160a01b031681526020018481526020018381526020016000815260200160001515815260200160008152602001600015158152602001600081526020016000815260200160008152602001828152506008600060055481526020019081526020016000206000820151816000015560208201518160010160006101000a8154816001600160a01b0302191690836001600160a01b0316021790555060408201518160020155606082015181600301556080820151816004015560a08201518160050160006101000a81548160ff02191690831515021790555060c0820151816006015560e08201518160070160006101000a81548160ff0219169083151502179055506101008201518160080155610120820151816009015561014082015181600a015561016082015181600b019081611e639190613099565b50506005805460009081526009602090815260408083203380855290835281842088905584548452600a835281842080546001810182559085529290932090910180546001600160a01b03191683179055915491517f4412373545e6dccbfc2488ddcc8ff966a2e6f11db627e5e6facb0838617925029350611eec929190879087908790613159565b60405180910390a160058054906000611f0483612f71565b9190505550505050565b600a6020528160005260406000208181548110611f2a57600080fd5b6000918252602090912001546001600160a01b03169150829050565b6007546001600160a01b03163314611f705760405162461bcd60e51b81526004016107d590612fa0565b565b6000828152600860205260409020600581015460ff16611fcc5760405162461bcd60e51b815260206004820152601560248201527450726f7065727479206e6f7420666f722073616c6560581b60448201526064016107d5565b60008160030154838360060154611fe39190612fd6565b611fed9190613016565b905061201d6040518060400160405280600c81526020016b02a34329031b7b9ba1034b9960a51b815250826127c4565b60018201546001600160a01b031633036120795760405162461bcd60e51b815260206004820152601a60248201527f596f7520617265207468652050726f7065727479206f776e657200000000000060448201526064016107d5565b8034146120985760405162461bcd60e51b81526004016107d590612fed565b6120a23384612938565b60006103e86120b3836103e3612fd6565b6120bd9190613016565b905060006120cb8284613038565b90506120fa6040518060400160405280600b81526020016a02a3432903332b29034b9960ad1b815250826127c4565b60018401546040516001600160a01b039091169083156108fc029084906000818181858888f19350505050158015612136573d6000803e3d6000fd5b50600086815260096020908152604080832033845290915281205490036121c4576000868152600a6020818152604080842080546001810182559085528285200180546001600160a01b031916339081179091558151808301835293845269024b739b4b2329034b3160b51b848401528a855260098352818520908552909152909120546121c491906127c4565b6000868152600960209081526040808320338452909152812080548792906121ed908490612fc3565b9250508190555061222f6040518060600160405280602a81526020016131ba602a913960008881526009602090815260408083203384529091529020546127c4565b600086815260096020908152604080832060018801546001600160a01b0316845290915281208054879290612265908490613038565b925050819055506122b46040518060600160405280602e81526020016131e4602e9139600088815260096020908152604080832060018a01546001600160a01b031684529091529020546127c4565b848460040160008282546122c89190612fc3565b925050819055506123126040518060400160405280601781526020017f70726f70657274792e6672616374696f6e73536f6c642000000000000000000081525085600401546127c4565b604080518781523360208201529081018690527fa09ee622b528975b330f6a8b76649135b6cd75be9b28a394a116b8dadbda87809060600160405180910390a1505050505050565b6001600160a01b03918216600090815260016020908152604080832093909416825291909152205490565b600860208190526000918252604090912080546001820154600283015460038401546004850154600586015460068701546007880154988801546009890154600a8a0154600b8b0180549a9c6001600160a01b03909a169b989a9799969860ff968716989597909616959394929391926123fe90612f21565b80601f016020809104026020016040519081016040528092919081815260200182805461242a90612f21565b80156124775780601f1061244c57610100808354040283529160200191612477565b820191906000526020600020905b81548152906001019060200180831161245a57829003601f168201915b505050505090508c565b6001600160a01b0383166124e35760405162461bcd60e51b8152602060048201526024808201527f45524332303a20617070726f76652066726f6d20746865207a65726f206164646044820152637265737360e01b60648201526084016107d5565b6001600160a01b0382166125445760405162461bcd60e51b815260206004820152602260248201527f45524332303a20617070726f766520746f20746865207a65726f206164647265604482015261737360f01b60648201526084016107d5565b6001600160a01b0383811660008181526001602090815260408083209487168084529482529182902085905590518481527f8c5be1e5ebec7d5bd14f71427d1e84f3dd0314c0f7b2291e5b200ac8c7c3b92591015b60405180910390a3505050565b60006125b2848461235a565b9050600019811461261a578181101561260d5760405162461bcd60e51b815260206004820152601d60248201527f45524332303a20696e73756666696369656e7420616c6c6f77616e636500000060448201526064016107d5565b61261a8484848403612481565b50505050565b6001600160a01b0383166126845760405162461bcd60e51b815260206004820152602560248201527f45524332303a207472616e736665722066726f6d20746865207a65726f206164604482015264647265737360d81b60648201526084016107d5565b6001600160a01b0382166126e65760405162461bcd60e51b815260206004820152602360248201527f45524332303a207472616e7366657220746f20746865207a65726f206164647260448201526265737360e81b60648201526084016107d5565b6001600160a01b0383166000908152602081905260409020548181101561275e5760405162461bcd60e51b815260206004820152602660248201527f45524332303a207472616e7366657220616d6f756e7420657863656564732062604482015265616c616e636560d01b60648201526084016107d5565b6001600160a01b03848116600081815260208181526040808320878703905593871680835291849020805487019055925185815290927fddf252ad1be2c89b69c2b068fc378daa952ba7f163c4a11628f55a4df523b3ef910160405180910390a361261a565b610ac482826040516024016127da929190613197565b60408051601f198184030181529190526020810180516001600160e01b0316632d839cb360e21b1790526129f7565b6001600160a01b0382166128695760405162461bcd60e51b815260206004820152602160248201527f45524332303a206275726e2066726f6d20746865207a65726f206164647265736044820152607360f81b60648201526084016107d5565b6001600160a01b038216600090815260208190526040902054818110156128dd5760405162461bcd60e51b815260206004820152602260248201527f45524332303a206275726e20616d6f756e7420657863656564732062616c616e604482015261636560f01b60648201526084016107d5565b6001600160a01b0383166000818152602081815260408083208686039055600280548790039055518581529192917fddf252ad1be2c89b69c2b068fc378daa952ba7f163c4a11628f55a4df523b3ef9101612599565b505050565b6001600160a01b03821661298e5760405162461bcd60e51b815260206004820152601f60248201527f45524332303a206d696e7420746f20746865207a65726f20616464726573730060448201526064016107d5565b80600260008282546129a09190612fc3565b90915550506001600160a01b038216600081815260208181526040808320805486019055518481527fddf252ad1be2c89b69c2b068fc378daa952ba7f163c4a11628f55a4df523b3ef910160405180910390a35050565b612a0081612a03565b50565b60006a636f6e736f6c652e6c6f679050600080835160208501845afa505050565b6040518061018001604052806000815260200160006001600160a01b0316815260200160008152602001600081526020016000815260200160001515815260200160008152602001600015158152602001600081526020016000815260200160008152602001606081525090565b6000815180845260005b81811015612ab857602081850181015186830182015201612a9c565b506000602082860101526020601f19601f83011685010191505092915050565b602081526000612aeb6020830184612a92565b9392505050565b80356001600160a01b0381168114612b0957600080fd5b919050565b60008060408385031215612b2157600080fd5b612b2a83612af2565b946020939093013593505050565b60008060408385031215612b4b57600080fd5b50508035926020909101359150565b60008060408385031215612b6d57600080fd5b82359150612b7d60208401612af2565b90509250929050565b6000610180825184526020830151612ba960208601826001600160a01b03169052565b5060408301516040850152606083015160608501526080830151608085015260a0830151612bdb60a086018215159052565b5060c083015160c085015260e0830151612bf960e086018215159052565b5061010083810151908501526101208084015190850152610140808401519085015261016080840151818601839052612c3483870182612a92565b9695505050505050565b6000602080830181845280855180835260408601915060408160051b870101925083870160005b82811015612c9357603f19888603018452612c81858351612b86565b94509285019290850190600101612c65565b5092979650505050505050565b600080600060608486031215612cb557600080fd5b612cbe84612af2565b9250612ccc60208501612af2565b9150604084013590509250925092565b600060208284031215612cee57600080fd5b5035919050565b6020808252825182820181905260009190848201906040850190845b81811015612d2d57835183529284019291840191600101612d11565b50909695505050505050565b602081526000612aeb6020830184612b86565b600060208284031215612d5e57600080fd5b612aeb82612af2565b60008060008060808587031215612d7d57600080fd5b8435935060208501359250612d9460408601612af2565b9396929550929360600135925050565b634e487b7160e01b600052604160045260246000fd5b600080600060608486031215612dcf57600080fd5b8335925060208401359150604084013567ffffffffffffffff80821115612df557600080fd5b818601915086601f830112612e0957600080fd5b813581811115612e1b57612e1b612da4565b604051601f8201601f19908116603f01168101908382118183101715612e4357612e43612da4565b81604052828152896020848701011115612e5c57600080fd5b8260208601602083013760006020848301015280955050505050509250925092565b60008060408385031215612e9157600080fd5b612e9a83612af2565b9150612b7d60208401612af2565b60006101808e835260018060a01b038e1660208401528c60408401528b60608401528a608084015289151560a08401528860c084015287151560e084015286610100840152856101208401528461014084015280610160840152612f0e81840185612a92565b9f9e505050505050505050505050505050565b600181811c90821680612f3557607f821691505b602082108103612f5557634e487b7160e01b600052602260045260246000fd5b50919050565b634e487b7160e01b600052601160045260246000fd5b600060018201612f8357612f83612f5b565b5060010190565b634e487b7160e01b600052603260045260246000fd5b6020808252600990820152682737ba1037bbb732b960b91b604082015260600190565b8082018082111561077957610779612f5b565b808202811582820484141761077957610779612f5b565b6020808252600f908201526e496e636f72726563742076616c756560881b604082015260600190565b60008261303357634e487b7160e01b600052601260045260246000fd5b500490565b8181038181111561077957610779612f5b565b601f82111561293357600081815260208120601f850160051c810160208610156130725750805b601f850160051c820191505b818110156130915782815560010161307e565b505050505050565b815167ffffffffffffffff8111156130b3576130b3612da4565b6130c7816130c18454612f21565b8461304b565b602080601f8311600181146130fc57600084156130e45750858301515b600019600386901b1c1916600185901b178555613091565b600085815260208120601f198616915b8281101561312b5788860151825594840194600190910190840161310c565b50858210156131495787850151600019600388901b60f8161c191681555b5050505050600190811b01905550565b85815260018060a01b038516602082015283604082015282606082015260a06080820152600061318c60a0830184612a92565b979650505050505050565b6040815260006131aa6040830185612a92565b9050826020830152939250505056fe70726f70657274794672616374696f6e735b70726f706572747949645d5b6d73672e73656e6465725d2070726f70657274794672616374696f6e735b70726f706572747949645d5b70726f70657274792e6f776e65725d20a264697066735822122014bfcd16de361d63b5e68f3e9de22094d9c1af43ae8a8e691512bfbac93addab64736f6c63430008110033",
  "linkReferences": {},
  "deployedLinkReferences": {}
}